:020000040800F2
:100000000000012021640008716400087164000888
:100010007164000871640008716400080000000049
:1000200000000000000000000000000071640008F3
:10003000716400080000000071640008EB2A0008E9
:10004000716400087164000871640008716400083C
:1000500071640008716400089D2C0008A32C00083E
:10006000A92C0008AF2C0008B52C0008716400080A
:10007000716400087164000871640008716400080C
:1000800071640008716400087164000871640008FC
:10009000716400087164000871640008295B00083D
:1000A000112800089D27000871640008C127000876
:1000B000D52700080000000000000000716400085F
:1000C00071640008716400087164000871640008BC
:1000D0007164000899390008B1390008CD39000869
:1000E000BB2C000871640008000000000000000044
:1000F0000000000000000000000000000000000000
:100100000000000071640008000000007164000835
:100110000000000000000000E9270008FD2700089B
:10012000716400087164000871640008716400085B
:1001300071640008000000000000000000000000E2
:10014000716400087164000871640008716400083B
:100150007164000871640008E939000871640008DE
:1001600071640008716400087164000800000000F8
:1001700071640008716400087164000800000000E8
:0C018000716400087164000871640008DC
:1001900081F0004102E000BF83F0004330B54FEA38
:1001A00041044FEA430594EA050F08BF90EA020FA5
:1001B0001FBF54EA000C55EA020C7FEA645C7FEA38
:1001C000655C00F0E2804FEA5454D4EB5555B8BF5B
:1001D0006D420CDD2C4480EA020281EA030382EACC
:1001E000000083EA010180EA020281EA0303362D5E
:1001F00088BF30BD11F0004F4FEA01314FF4801C31
:100200004CEA113102D0404261EB410113F0004F42
:100210004FEA03334CEA133302D0524263EB4303F9
:1002200094EA050F00F0A780A4F10104D5F1200E97
:100230000DDB02FA0EFC22FA05F2801841F10001F2
:1002400003FA0EF2801843FA05F359410EE0A5F1C6
:1002500020050EF1200E012A03FA0EFC28BF4CF0F7
:10026000020C43FA05F3C01851EBE37101F00045AD
:1002700007D54FF0000EDCF1000C7EEB00006EEBBA
:100280000101B1F5801F1BD3B1F5001F0CD3490844
:100290005FEA30004FEA3C0C04F101044FEA44529B
:1002A00012F5800F80F09A80BCF1004F08BF5FEA22
:1002B000500C50F1000041EB045141EA050130BD02
:1002C0005FEA4C0C404141EB0101013C28BFB1F514
:1002D000801FE9D291F0000F04BF01460020B1FA5F
:1002E00081F308BF2033A3F10B03B3F120020CDA32
:1002F0000C3208DD02F1140CC2F10C0201FA0CF010
:1003000021FA02F10CE002F11402D8BFC2F1200C74
:1003100001FA02F120FA0CFCDCBF41EA0C0190402A
:10032000E41AA2BF01EB0451294330BD6FEA040473
:100330001F3C1CDA0C340EDC04F11404C4F120025E
:1003400020FA04F001FA02F340EA030021FA04F370
:1003500045EA030130BDC4F10C04C4F1200220FAC7
:1003600002F001FA04F340EA0300294630BD21FA05
:1003700004F0294630BD94F0000F83F4801306BFCB
:1003800081F480110134013D4EE77FEA645C18BFBF
:100390007FEA655C29D094EA050F08BF90EA020F56
:1003A00005D054EA000C04BF1946104630BD91EA4E
:1003B000030F1EBF0021002030BD5FEA545C05D151
:1003C0004000494128BF41F0004130BD14F5800490
:1003D0003CBF01F5801130BD01F0004545F0FE4104
:1003E00041F470014FF0000030BD7FEA645C1ABF39
:1003F000194610467FEA655C1CBF0B46024650EA70
:10040000013406BF52EA033591EA030F41F400219B
:1004100030BD00BF90F0000F04BF0021704730B521
:100420004FF4806404F132044FF000054FF00001F6
:1004300050E700BF90F0000F04BF0021704730B5B7
:100440004FF4806404F1320410F0004548BF40428C
:100450004FF000013EE700BF42004FEAE2014FEAE1
:1004600031014FEA02701FBF12F07F4393F07F4FBC
:1004700081F06051704732F07F4208BF704793F0BF
:100480007F4F04BF41F40021704730B54FF46074D2
:1004900001F0004521F000411CE700BF50EA0102D5
:1004A00008BF704730B54FF000050AE050EA01027E
:1004B00008BF704730B511F0004502D5404261EBEE
:1004C00041014FF4806404F132045FEA915C3FF42F
:1004D000D8AE4FF003025FEADC0C18BF03325FEACC
:1004E000DC0C18BF033202EBDC02C2F1200300FA7D
:1004F00003FC20FA02F001FA03FE40EA0E0021FAA2
:1005000002F11444BDE600BF4FEA4102B2F1E043FC
:1005100024BFB3F5001CDCF1FE5C0DD901F0004CEA
:100520004FEAC0024CEA5070B2F1004F40EB83003A
:1005300008BF20F00100704711F0804F21D113F166
:100540003872BCBF01F00040704741F480114FEA9F
:100550005252C2F11802C2F1200C10FA0CF320FA28
:1005600002F018BF40F001004FEAC1234FEAD32345
:1005700003FA0CFC40EA0C0023FA02F34FEA4303AF
:10058000CCE77FEA625307D150EA01331EBF4FF038
:10059000FE4040F44000704701F0004040F0FE4053
:1005A00040F40000704700BF53B94AB9002908BFA2
:1005B00000281CBF4FF0FF314FF0FF3000F00CB8A7
:1005C000ADF1080C6DE904CE06F04EF8DDF804E05C
:1005D000DDE9022304B07047704700BF034613F8FB
:1005E000012B002AFBD1181A0138704700000000C7
:1005F00001F0FF01102A2BDB10F0070F08D010F8D4
:10060000013B013A8B422DD010F0070F42B3F6D1D7
:10061000F0B441EA012141EA014122F007047FF0F0
:1006200000070023F0E80256083C85EA010586EA47
:10063000010685FA47F5A3FA87F586FA47F6A5FA83
:1006400087F68EB9EED1F0BC01F0FF0102F007028F
:1006500032B110F8013B013A83EA010313B1F8D13A
:100660000020704701387047002D06BF354603381B
:10067000073815F0010F07D1013015F4807F02BF54
:10068000013015F4C03F0130F0BC0138704700BFA5
:1006900010B5054C237833B9044B13B10448AFF3BC
:1006A00000800123237010BDB40100200000000071
:1006B0002C75000808B5034B1BB103490348AFF381
:1006C000008008BD00000000B80100202C75000863
:1006D0007047000038B50F4B1A7805460AB901205B
:1006E00038BD4FF47A73B3FBF2F30B4A1068B0FBDA
:1006F000F3F000F09BF804460028F0D10F2DEED85F
:10070000024629464FF0FF3000F03EF8034B2046EA
:100710001D60E5E7000000206400002004000020C8
:1007200010B5032000F01EF80020FFF7D3FF0446A9
:1007300018B9FFF7CDFF204610BD0124FBE70000EC
:10074000034A044B11681B780B441360704700BFC9
:10075000D001002000000020014B1868704700BF46
:10076000D00100200749CA6822F4E06203021204A3
:1007700003F4E063120C134343F0BF6343F400330C
:10078000CB60704700ED00E0164B30B5DC68C4F379
:100790000224C4F10703251D042B28BF0423062DC2
:1007A0004FF0FF358CBF033C002405FA03F321EA28
:1007B0000303A54022EA0502A340002843EA0203FE
:1007C000ACBF00F16040084A4FEA0313B8BF00F025
:1007D0000F00DBB2AABF00F56140135480F800336C
:1007E00030BD00BF00ED00E014ED00E0002807DBA5
:1007F000044A4109012300F01F00834042F82130E0
:10080000704700BF00E100E000280CDB4309064907
:1008100000F01F0020330122824041F82320BFF363
:100820004F8FBFF36F8F704700E100E00138B0F1E8
:10083000807F0BD24FF0E023054A5861F02182F807
:1008400023100020072298611A6170470120704729
:1008500000ED00E0002808DB4309044900F01F0018
:1008600001226033824041F82320704700E100E01C
:10087000704708B5FFF7FCFF08BD704710B5044688
:1008800008B9012010BD437F03F0FF0213B90277BE
:10089000FFF7F3FF022363772379E3B92368134A51
:1008A0005A619A6822F018029A6062792368D2B974
:1008B0004FF0FF321A619A68616922F060020A43C0
:1008C0009A609A68A16922F080020A439A60012323
:1008D00063770020D6E7D4E90212204600F008F83A
:1008E0000028E2D0CDE72269E4E700BFB71DC104CC
:1008F00010B51F23013B1CD321FA03F4E407F9D5FB
:10090000102A12D004D83AB1082A10D001200BE0E6
:10091000182AFBD1062BF9D800684161836823F0BF
:10092000180313438360002010BD072BF3E70F2B40
:10093000F1E7102AEAD0E9D8002AE7D1ECE710B5B0
:10094000044640B10223037102F04AF800202061FE
:100950006071207110BD0120FCE710B50468012210
:10096000236801F0100102FA01F123EA0103236078
:100970000271002010BD90F82520022A034606D0FF
:100980000422C2630120002283F8242070470268F9
:10099000116821F00E011160116821F00101116050
:1009A000D0E91002012102F01C0201FA02F24260B9
:1009B00083F825100020E6E710B590F82520022ADC
:1009C00003D00422C263012010BD0268836B11684A
:1009D00021F00E011160116821F001011160D0E9D0
:1009E0001042012102F01C0201FA02F262600022B0
:1009F00080F8251080F8242003B198470020E3E711
:100A0000094A536943F4802310B55361EFF3108210
:100A100072B60023CC58C4500433B3F5807FF9D1AB
:100A200082F3108810BD00BF00200240064B5A69B7
:100A3000002ABFBF054A9A6002F188329A60BABFA5
:100A40005869C00F0020704700200240230167450D
:100A5000034A536943F0004353610020704700BFCD
:100A60000020024070B50546FFF776FE0F4C0646A3
:100A70002369DA030AD423690D4A13400FD00D49C4
:100A80004A681A434A600120236170BD691CEFD097
:100A9000FFF762FE801BA842EAD30320F5E7236933
:100AA000DB0744BF012323610020EEE70020024062
:100AB000FAC30200080000202DE9F843294D9946A9
:100AC0002B78012B06460F46904649D001234CF265
:100AD00050302B70FFF7C6FF044670BB6860224899
:100AE000026812F4806217BF03682A7723F48063D8
:100AF00003601CBF02232B77AEB9436943F00103A7
:100B00004361C7F80080BFF36F8F4CF25030C7F8D5
:100B10000490FFF7A7FF01210446134A536923EA13
:100B20000103536107E0731E012B0BD94CF25030C7
:100B3000FFF798FF044600F03DF800232B70204695
:100B4000BDE8F88338464146FFF75AFF022E4CF2C3
:100B50005030EDD1FFF786FF4FF480210446DCE7EB
:100B60000224ECE70800002000200240064B10F0B1
:100B7000010F1EBF5A6942F004025A615A6942F4D9
:100B800080325A61704700BF00200240084B5A690A
:100B9000C00022F47E7200F4FF60104358615A696D
:100BA00042F002025A615A6942F480325A61704737
:100BB000002002401548037FDAB203F0FD03012B49
:100BC00010D1134B196821F400711960196841F4B0
:100BD00000611960196821F400611960196841F415
:100BE00000711960931E012B0CD8094B1A6842F44E
:100BF00080521A601A6822F480521A601A6842F40D
:100C000080621A6000230377704700BF080000204D
:100C1000002002402DE9F047324D2B78012B06468B
:100C200088465CD001274CF250302F70FFF71AFF36
:100C3000044610BB2C4B68601A6812F4007F1A68D7
:100C400020D0510506D51A6822F480621A60032369
:100C50002B7700E02F773368012B1DD17068FFF7E9
:100C600085FF4CF25030FFF7FDFE1F4A536923F019
:100C7000040304465361FFF79DFF00232B702046B9
:100C8000BDE8F087520505D51A6822F480621A6023
:100C90000223DDE72877DEE74FF0FF33C8F80030A6
:100CA000B768DFF84490DFF844A0D6E90232134475
:100CB000BB42E0D971683846FFF768FF4CF250300C
:100CC000FFF7D0FED9F8143003EA0A03C9F814304C
:100CD00018B1C8F800700446CDE70137E5E70224F3
:100CE000CDE700BF080000200020024005FCFFFF08
:100CF0002DE9F74FDFF89081614C00230A6832FA42
:100D000003F502D103B0BDE8F08F012505FA03F920
:100D100019EA020200F086804E68032706F00305F8
:100D20004FEA430E07FA0EFC6F1E012F6FEA0C0C00
:100D30007AD8876807EA0C0ACF6807FA0EF747EAFD
:100D40000A078760476827EA0909C6F300179F402A
:100D500047EA09074760C76807EA0C098F6807FA7E
:100D60000EF747EA0907022DC76069D0076805FA40
:100D70000EF507EA0C073D4316F4403F056051D0DD
:100D8000D8F8605045F00105C8F86050D8F86050B8
:100D900023F0030707F1804705F0010507F58037C9
:100DA000019503F0030C019DBD684FEA8C0C4FF0D8
:100DB0000F0E0EFA0CFEB0F1904F25EA0E0E57D032
:100DC000304DA84256D005F58065A84254D005F5AF
:100DD0008065A84252D005F58065A84214BF07255A
:100DE000042505FA0CF545EA0E05BD60A568D74354
:100DF00016F4801F0CBF3D401543A560E56816F44E
:100E0000001F0CBF3D401543E560656816F4003FC8
:100E10000CBF3D40154365602568F60354BF3D4057
:100E200015432560013369E7032D9FD0C7680CEA9D
:100E300007098F6807FA0EF747EA0907C76095E7C1
:100E40004FEAD30900EB890903F0070AD9F82070AB
:100E50004FEA8A0A4FF00F0B0BFA0AFB27EA0B0B3B
:100E60000F6907FA0AF747EA0B07C9F820707DE710
:100E70000025B6E70125B4E70225B2E70325B0E770
:100E8000000401400004004800100240044A516977
:100E9000014208B502D0506101F0EAFE08BD00BF72
:100EA00000040140024A136843F4807313607047E2
:100EB00000700040024B186800F4C060704700BF2B
:100EC00000700040174A1368B0F5007F03F4C06358
:100ED0001BD1B3F5007F1BD0136823F4C06343F428
:100EE00000731360104B1B6832214B430F49B3FB57
:100EF000F1F301335169490500D523B953695B0505
:100F000006D503207047013BF4E7B3F5806F01D1AC
:100F100000207047136823F4C06343F480631360B8
:100F2000F6E700BF007000406400002040420F0060
:100F300037B51E4DAB6DDA00044618D5FFF7BAFF82
:100F4000B0F5007F23D1802C29D9A12C34BF0124F6
:100F5000022417490A6822F0070222430A6008683F
:100F600000F00700001B18BF012003B030BDAB6DBF
:100F700043F08053AB65AB6D03F080530193019B4D
:100F8000FFF798FFAB6D23F08053AB65D8E7802C5B
:100F900007D808D0A4F170035C425C41D9E7002473
:100FA000D7E70324D5E70224D3E700BF00100240AF
:100FB00000200240224B9A68D96812F00C0205D03A
:100FC0000C2A15D101F00301012918D119681D4817
:100FD000090755BFD3F894101968C1F30321C1F371
:100FE000031150F8210012B10C2A09D000207047DB
:100FF000042A22D0082A144818BF00207047002075
:10100000DA6802F00302022A15D00F49032A08BF4A
:101010000846D968DA68C2F306224243D868C0F3AA
:101020004160C1F30211013001314000B2FBF1F225
:10103000B2FBF0F070470548EBE70448704700BF8B
:1010400000100240BC79000800127A000024F4006D
:101050002DE9F7430546002860D0954C0368A66843
:10106000E768DB0606F00C0607F0030776D51EB12D
:101070000C2E55D1012F53D12368980702D5AB69A7
:10108000002B4BD02368286A190756BFD4F8943038
:1010900023681B0903F0F003984229D9FFF748FFA2
:1010A00000283BD1236843F00803236023682A6AA1
:1010B00023F0F003134323606368EA6923F47F435A
:1010C00043EA02236360FFF775FFA368794AC3F31D
:1010D0000313D35C03F01F03D840774B1860774BA2
:1010E0001868FFF7F7FA002838D003B0BDE8F0839E
:1010F000236843F008032360236823F0F0030343CD
:1011000023606368EA6923F47F4343EA0223636050
:10111000002ED8D1FFF70CFF0028D4D00120E4E73F
:10112000AB69002B3AD0236843F001032360FFF73B
:1011300013FB804623689A0728D5236843F00803E9
:10114000236023682A6A23F0F00313432360636853
:10115000EA6923F47F4343EA022363602B68D807DC
:101160002DD42B6899076BD42B68180700F1A88041
:101170002B68590700F1CE802B68980600F1378163
:10118000AB6A002B40F05D810020AEE7FFF7E4FA88
:10119000A0EB08000228CDD90320A6E7236823F09E
:1011A00001032360FFF7D8FA804623689B07D5D553
:1011B000FFF7D2FAA0EB08000228F6D9ECE7082ED8
:1011C00003D00C2E08D1032F06D123689A03C8D56B
:1011D0006B68002BC5D1A1E76B68B3F5803F10D1D8
:1011E000236843F480332360FFF7B6FA8046236810
:1011F0009B03B6D4FFF7B0FAA0EB08006428F6D939
:10120000CAE7B3F5A02F04D1236843F480232360F9
:10121000E6E7226822F480322260226822F48022EB
:101220002260002BE0D1FFF797FA804623689803ED
:1012300097D5FFF791FAA0EB08006428F6D9ABE741
:10124000042E03D00C2E10D1022F0ED12368590585
:1012500003D5EB68002B3FF461AF63682A6923F084
:10126000F85343EA026363607EE7EB687BB123686F
:1012700043F480732360FFF76FFA074623685A052B
:10128000EBD4FFF769FAC01B0228F7D984E723687B
:1012900023F480732360FFF75FFA074623685B053A
:1012A0007FF562AFFFF758FAC01B0228F6D973E743
:1012B00000100240F47900086400002004000020BF
:1012C0006B699BB1D4F8943043F00103C4F89430B7
:1012D000FFF742FA0746D4F894309A073FF548AF33
:1012E000FFF73AFAC01B0228F5D955E7D4F8943035
:1012F00023F00103C4F89430FFF72EFA0746D4F820
:1013000094309B077FF534AFFFF726FAC01B022805
:10131000F5D941E7A36DDF0029D4A36D43F08053D5
:10132000A365A36D03F080530193019B4FF0010867
:10133000954F3B68D8051DD5AB68012B2BD1D4F850
:10134000903043F00103C4F89030FFF705FA41F202
:1013500088390746D4F890309A0742D5B8F1000F83
:101360003FF40AAFA36D23F08053A36504E74FF069
:101370000008DDE73B6843F480733B60FFF7ECF95E
:1013800081463B68D905D7D4FFF7E6F9A0EB090001
:101390000228F6D900E7052B06D1D4F8903043F0A7
:1013A0000403C4F89030CAE7D4F8902022F0010278
:1013B000C4F89020D4F8902022F00402C4F89020C1
:1013C000002BC2D1FFF7C8F941F288390746D4F89B
:1013D00090309B07C2D5FFF7BFF9C01B4845F6D92F
:1013E000DAE6FFF7B9F9C01B4845B3D9D4E66B6A12
:1013F0009BB1D4F8983043F00103C4F89830FFF75C
:10140000ABF90746D4F8983099073FF5B9AEFFF726
:10141000A3F9C01B0228F5D9BEE6D4F8983023F012
:101420000103C4F89830FFF797F90746D4F89830CD
:101430009A077FF5A5AEFFF78FF9C01B0228F5D9F3
:10144000AAE6022B40F08880E368EA6A03F0030111
:10145000914222D1296B03F070020139B2EB011FD6
:101460001BD1696B03F4FE42B2EB012F15D1A96BBE
:1014700003F07842B2EBC16F0FD1EA6B520803F46C
:10148000C001013AB1EB425F07D12A6C520803F068
:10149000C063013AB3EB426F45D00C2E3FF43EAE31
:1014A00023685B013FF53AAE236823F08073236025
:1014B000FFF752F9064623689F012ED4E268334BAA
:1014C0001340EA6A13436A6B43EA0223AA6B43EAB6
:1014D000C2632A6B013A43EA0213EA6B5208013AEB
:1014E00043EA42532A6C5208013A43EA4263E360FA
:1014F000236843F080732360E36843F08073E36004
:10150000FFF72AF90546236898013FF53DAEFFF73E
:1015100023F9401B0228F6D93EE6FFF71DF9801B90
:101520000228C8D938E6236899013FF52DAE236813
:1015300043F080732360E36843F08073E360FFF758
:101540000BF9054623689A013FF51EAEFFF704F933
:10155000401B0228F6D91FE60C2E3FF4DFAD2368AE
:1015600023F080732360FFF7F7F8054623689B019B
:1015700004D4E268064B1340E36005E6FFF7ECF89D
:10158000401B0228F2D907E6007000408C809D01C4
:10159000FCFFEEFE2DE9F0410D46044610B9012096
:1015A000BDE8F0814B4A136803F007038B422CD34C
:1015B0002168880734D4C9073FD421688A0768D4D2
:1015C000444A136803F00703AB426FD811F0040FCD
:1015D000414D77D10B0706D5AB68226923F46053E0
:1015E00043EAC203AB60FFF7E5FCAB683B4AC3F3D9
:1015F0000313BDE8F041D35C03F01F03D840384B20
:101600001860384B1868FFF765B8136823F00703B4
:101610000B431360136803F007038B42BFD1C7E786
:101620002D4AA068936803F0F003984281BF936845
:1016300023F0F00303439360BDE76268264E032A5C
:1016400033681AD113F0007FA9D0B36823F00303E5
:101650001343B360FFF780F841F288380746B36858
:10166000626803F00C03B3EB820FA6D0FFF774F8A7
:10167000C01B4045F3D9032092E7022A02D113F49C
:10168000003FE1E712B913F0020FDDE713F4806FBA
:10169000DAE7114AA068936803F0F00398423FBF6D
:1016A000936823F0F0030343936089E7136823F002
:1016B00007032B431360136803F00703AB427FF467
:1016C0006EAF83E7AB68E26823F4E0631343AB607B
:1016D00080E700BF0020024000100240F4790008BB
:1016E0006400002004000020054B064A9B68C3F3F9
:1016F0000223D35C044A106803F01F03D8407047EC
:1017000000100240EC79000864000020054B064AF6
:101710009B68C3F3C223D35C044A106803F01F0321
:10172000D840704700100240EC79000864000020A7
:101730007047704703681A69910710B504460FD5C2
:10174000DA6892070CD56FF002021A610122027763
:101750009B69990700F0858001F0C9F80023237781
:1017600023681A69520710D5DA6850070DD56FF053
:1017700004021A61022222779B6913F4407F2046FB
:1017800075D001F0B4F80023237723681A69110794
:101790000FD5DA6812070CD56FF008021A6104221F
:1017A0002277DB699B07204667D001F0A0F8002371
:1017B000237723681A69D00610D5DA68D1060DD5CB
:1017C0006FF010021A6108222277DB6913F4407F60
:1017D000204658D001F08BF80023237723681A693C
:1017E000D20708D5DA68D00705D56FF001021A6173
:1017F000204601F059F823681A69110608D5DA68FD
:10180000120605D56FF080021A61204600F0A7F895
:1018100023681A69D00508D5DA68110605D56FF472
:1018200080721A61204600F09BF823681A695206FC
:1018300008D5DA68500605D56FF040021A612046D7
:10184000FFF777FF23681A69910622D5DA689206B6
:101850001FD56FF0200220461A61BDE8104000F04D
:101860007DB801F042F82046FFF762FF76E701F00D
:101870003CF82046FFF75CFF85E701F036F820468C
:10188000FFF756FF93E701F030F82046FFF750FFCF
:10189000A2E710BD174A0368904202D0B0F1804F12
:1018A00008D14A6823F070031343CA6823F44073D5
:1018B000134306E0104A9042F7D002F5806290424E
:1018C000F3D04A6923F08003134303608B68C3623B
:1018D0000B688362074B984207D003F5A0539842E8
:1018E00003D003F58063984201D10B6903630123A0
:1018F00043617047002C01400040014010B5044690
:1019000050B390F83D3003F0FF021BB980F83C2043
:1019100001F0D2FC0223206884F83D30211DFFF73E
:10192000B9FF012384F84830002084F83E3084F861
:101930003F3084F8403084F8413084F8423084F8F5
:10194000433084F8443084F8453084F8463084F8D5
:10195000473084F83D3010BD0120FCE770477047E8
:101960007047026852E8003F23F4907342E8003168
:1019700002680029F5D102F1080353E8003F23F083
:10198000010302F1080C4CE800310029F3D1036E89
:10199000012B07D152E8003F23F0100342E8003149
:1019A0000029F7D12023C3670023036643667047ED
:1019B000026852E8003F23F0800342E800310268E9
:1019C0000029F5D152E8003F43F0400342E80031DE
:1019D0000029F7D17047826F212A034611D1B0F850
:1019E000522092B20AB9FFF7E3BFC26C016812F845
:1019F000010B0885DA64B3F85220013A92B2A3F8D9
:101A000052207047826F212A034613D1B0F852202A
:101A100092B20AB9FFF7CCBFDA6C006832F8021B49
:101A2000C1F308010185DA64B3F85220013A92B299
:101A3000A3F85220704770470346806F20282BD1AF
:101A400041B33AB393F87400012825D0A3F852208B
:101A5000A3F850200022C3F8802021229A679A68B8
:101A6000D964B2F5805F13D118690C4A0C4900287B
:101A700008BF0A469A66002283F87420196851E864
:101A8000002F42F0800241E800200028F6D1704784
:101A9000024AEFE70120704702207047D71900087B
:101AA000051A000808B5806A0023A0F85A30A0F88B
:101AB000523001F04DFF08BD704700000368DA693D
:101AC000196870B540F60F0632429D6804460CD185
:101AD000960640F1AB808E0640F1A880436E002B45
:101AE00000F09E80BDE87040184715F0010064D0FA
:101AF00012F0010F02F002057CD13DB102251D62FA
:101B0000D4F8805045F00405C4F8805056075ED5DF
:101B100004201862D4F8800040F00200C4F880006D
:101B200012F0080F07D008201862D4F8800040F0A7
:101B30000800C4F8800016050AD54D0108D54FF4F9
:101B400000601862D4F8803043F02003C4F880307D
:101B5000D4F88030002B63D0900605D58A0603D5D3
:101B6000636E0BB1204698472668D4F88020B3688E
:101B700002F0280203F0400353EA0205204650D049
:101B8000FFF7EFFEB3685B0647D5226802F1080352
:101B900053E8003F23F04003083242E800310029B7
:101BA000F3D1206F002838D0774B8363FEF704FF12
:101BB000002835D0206F836B94E7744E314235D0C6
:101BC00012F0010F02F0020507D155070DD41507D9
:101BD000B1D501F020050543A4E7CE0510D4002DB2
:101BE000F3D15507F3D5002892D11607A3D511F0EC
:101BF000200F97E7CE0503D4002D7FF47FAFF0E7E9
:101C000001251D62D4F88050960745F00105C4F8FF
:101C10008050E6D50028D8D070E7204601F098FE25
:101C200070BD01F095FEC4F88050F9E7206E0128E0
:101C30007ED1D6067CD5C8067AD510221A629A685B
:101C4000510646D5226F11684A6892B2002AE7D041
:101C5000B4F858009042E3D9A4F85A200A689206D2
:101C60002DD453E8002F22F4807243E8002100298C
:101C7000F7D103F1080252E8002F22F0010203F12C
:101C8000080040E800210029F3D103F1080252E8DE
:101C9000002F22F0400203F1080040E80021002953
:101CA000F3D12022E267216653E8002F22F01002D0
:101CB00043E800210029F7D1206FFEF75CFEB4F85D
:101CC0005A30B4F85810C91A89B22046FFF7F4FE0A
:101CD000A6E7B4F85A20B4F85A00B4F8581080B205
:101CE00092B200289CD0891A89B2002998D053E872
:101CF000002F22F4907243E800200028F7D103F16E
:101D0000080252E8002F22F0010203F1080545E81D
:101D100000200028F3D12022E2676066206653E8A5
:101D2000002F22F0100243E800200028F7D1CCE772
:101D3000D60209D5680207D54FF4801220461A62F0
:101D4000BDE8704001F05CBE160607D50D0605D54E
:101D5000A36E002B3FF464AF2046C3E650067FF528
:101D60005FAF4A067FF55CAF53E8002F22F04002D8
:101D700043E800210029F7D12023A367A16620466C
:101D800001F0E2FD4CE700BFA51A000820010004A5
:101D9000C16F0268222908B5B0F85C3042D1918C3D
:101DA000426D0B401370436D01334365B0F85A30F8
:101DB000013B9BB2A0F85A30B0F85A309BB26BBBD3
:101DC000026852E8003F23F4907342E80031036850
:101DD0000029F5D103F1080252E8002F22F0010298
:101DE00003F1080C4CE800210029F3D12022C2673E
:101DF000026E4166012A12D1016653E8002F22F0DB
:101E0000100243E800210029F7D1DA69B0F8581030
:101E1000D20644BF10221A62FFF74EFE08BD01F041
:101E20008FFDFBE7138B9BB243F008031383F5E7A9
:101E3000C26FB0F85C10222A08B503683FD19A8CB3
:101E40001140426D22F8021B4265B0F85A20013A57
:101E500092B2A0F85A20B0F85A2092B25ABB53E876
:101E6000002F22F4907243E800210029F7D103F1FA
:101E7000080252E8002F22F0010203F1080C4CE89E
:101E800000210029F3D12022C267026E4166012A97
:101E900012D1016653E8002F22F0100243E800211E
:101EA0000029F7D1DA69B0F85810D20644BF1022E1
:101EB0001A62FFF701FE08BD01F042FDFBE71A8B35
:101EC00092B242F008021A83F5E710B590F8743028
:101ED000012B1CD0012380F874302423836702680F
:101EE00052E8003F23F00C0342E800340168002C64
:101EF000F5D151E8002F42F0080241E80023002B01
:101F0000F7D12022826780F87430184610BD022075
:101F1000FCE710B590F87430012B1CD0012380F839
:101F2000743024238367026852E8003F23F00C03D7
:101F300042E800340168002CF5D151E8002F42F04E
:101F4000040241E80023002BF7D12022826780F8A9
:101F50007430184610BD0220FCE7826FC06F10433A
:101F60007047000038B5044603682169A2681D68FF
:101F7000C0690A4361690A436749024329400A4329
:101F80001A605A68E16822F440520A4363495A6071
:101F90008B42A26999681AD121F430610A439A6090
:101FA0005F4BD3F8883003F44063B3F5006F78D00B
:101FB00007D8002B6DD0B3F5806F00F0AA80012008
:101FC0006BE0B3F5406FFAD14FF400406AE0256A48
:101FD00021F430612A430A439A60524A934210D155
:101FE0004F4BD3F8883003F00303022B38D0032B78
:101FF00018D0012B2ED1B0F5004F77D1FEF7DAFFC4
:1020000026E0494A934274D1454BD3F8883003F017
:102010000C03082B24D003D8ABB1042BEBD0CEE7B4
:102020000C2BCCD1B0F5004F1ED04FF400406368AC
:1020300000EB5300B0FBF3F04FF6EF73A0F110028A
:1020400046E0302BEDE7B0F5004F47D1FFF74CFBF2
:1020500010B309E0B0F5004F45D1FFF757FBF7E7A4
:10206000B0F5004F3148E2D16268530803EB4003FA
:10207000B3FBF2F34FF6EF72A3F1100191429ED839
:1020800023F00F02216892B2C3F342031343CB60E3
:1020900002E0FFF729FB28B900200023C4E9193327
:1020A00038BD2248626802EB4203834287D8B0EB16
:1020B000023F84D8510800238C464FF4807519469E
:1020C000E0FB05C16046FEF76FFA194BA0F54072C0
:1020D0009A423FF674AF2368D860DDE7FFF704FB50
:1020E0000028D9D0A3E7FFF711FBF9E7FEF762FF5D
:1020F000F6E7104A93427FF462AF094BD3F8883079
:1021000003F03003202BABD09BD8002B9BD0102B9F
:1021100084E7FEF74FFFBEE7F369FFEF0080004062
:102120000010024000380140004400400024F40048
:10213000FFFC0F0000480040436ADA0710B506D5DF
:102140000168846A4A6822F4003222434A609C078C
:1021500006D50168C46A4A6822F4803222434A6084
:10216000590706D50168046B4A6822F4802222438D
:102170004A601A0706D50168446B4A6822F4004297
:1021800022434A60DC0606D50168846B8A6822F423
:10219000805222438A60990606D50168C46B8A681A
:1021A00022F4005222438A605A060FD50168046C5B
:1021B0004A6822F480122243B4F5801F4A6005D198
:1021C0004A68446C22F4C00222434A601B0606D5CA
:1021D0000268816C536823F400230B43536010BDE5
:1021E0002DE9F843DDF8209005460F46164698463F
:1021F0002A68D36937EA03030CBF01230023B342E3
:1022000001D0002027E0B9F1FF3FF2D0FEF7A4FA99
:10221000A0EB080048452C6802D8B9F1000F1CD18A
:1022200054E8003F23F4D07344E80032002AF7D189
:1022300004F1080353E8003F23F0010304F108010F
:1022400041E80032002AF3D12023AB67EB6700237B
:1022500085F874300320BDE8F88323685A07C7D592
:10226000E3691B05C4D54FF40063236254E8003FC3
:1022700023F4D07344E80032002AF7D104F10803B4
:1022800053E8003F23F0010304F1080141E8003264
:10229000002AF3D12023AB67EB67C5F88030D6E77F
:1022A0002DE9F7439846836F202B04460E461746C8
:1022B0004DD1002949D0002A47D090F87430012B25
:1022C00045D0012380F8743000252123C0F88050C8
:1022D0008367FEF741FAA368A4F85070B3F5805FF6
:1022E0008146A4F8527003D123690BB935461E46C6
:1022F000002384F87430B4F85220CDF8008092B2F4
:102300004B463AB940212046FFF76AFF40B92023E7
:10231000A36706E0002280212046FFF761FF18B185
:10232000032003B0BDE8F08322685EB935F8023BB4
:10233000C3F308031385B4F85220013A92B2A4F80B
:102340005220D8E716F8013BF4E70120E9E7022024
:10235000E7E773B504460026C0F88060FEF7FCF995
:1023600023681B681A07054616D423681B685B0799
:102370000AD56FF07E43009300222B464FF4800174
:102380002046FFF72DFF98B920230020A36784F88B
:102390007400E36720660CE06FF07E4300933246E2
:1023A00003464FF400112046FFF71AFF0028DCD047
:1023B000032002B070BD10B5044640B3836F1BB953
:1023C00080F87430FFF737FB22682423A367136873
:1023D00023F0010313602046FFF7C4FD012816D047
:1023E000636A13B12046FFF7A7FE23685A6822F4F8
:1023F00090425A609A6822F02A029A601A6842F063
:10240000010220461A60BDE81040FFF7A2BF01207C
:1024100010BD10B5044660B3836F1BB980F87430EB
:10242000FFF709FB22682423A367136823F0010345
:1024300013602046FFF796FD01281AD0636A13B196
:102440002046FFF779FE23685A6822F490425A60CA
:102450009A6822F022029A609A6842F008029A6012
:102460001A6842F0010220461A60BDE81040FFF7EA
:1024700070BF012010BD000010B5A0F85820A0F8D2
:102480005A20826841650023B2F5805F43662DD1F2
:102490000369002B40F2FF1318BFFF23A0F85C3044
:1024A0000023C0F880302223C367026802F10803CA
:1024B00053E8003F43F00103083242E8003102686C
:1024C0000029F2D184680369B4F5805F2BD1EBB1A8
:1024D000184B436680F8741052E8003F43F4907341
:1024E00042E800310029F7D1002010BD2AB9036964
:1024F000002B14BF7F23FF23D0E7B2F1805FCDD143
:102500000369002B14BF3F237F23C7E70A494166B5
:1025100080F8743052E8003F43F0200342E8003175
:102520000029F7D1E0E7034C446680F87410002BD3
:10253000F0D0D1E7911D0008311E0008C36F202B99
:1025400030B41FD1D9B1D2B190F87430012B19D069
:10255000012380F874300023046803660A4B9C4210
:102560000AD063681B0207D554E8003F43F080633C
:1025700044E80035002DF7D130BCFFF77DBF0120C6
:1025800030BC70470220FBE70080004090F87430B8
:10259000012B12D0012380F87430016801F1080387
:1025A00053E8002F42F40002194641E80023002BB3
:1025B000F3D180F87430184670470220704790F8C5
:1025C0007430012B12D0012380F87430016801F1BE
:1025D000080353E8002F22F40002194641E80023C3
:1025E000002BF3D180F874301846704702207047F2
:1025F00090F87430012B0FD0012380F874300168FB
:1026000051E8002F42F0020241E80023002BF6D1EE
:1026100080F87430184670470220704790F8743084
:10262000012B0FD0012380F87430016851E8002F8E
:1026300022F0020241E80023002BF6D180F874302A
:102640001846704702207047836810B504462BB1C6
:102650000322014698470023C4E9023310BD836872
:1026600010B5044613B1032201469847204610BD19
:10267000124A9042034616D0B0F1804F15D0A2F511
:102680008E32904213D002F58062904211D002F552
:10269000963290420FD002F580624FF6FF7093425F
:1026A00008BF0520704700207047012070470220B6
:1026B0007047032070470420704700BF002C014082
:1026C000014670B5044651F8100FFFF7D1FF0546DB
:1026D000084600F057FD094A002342F8253004F16E
:1026E0006406E36004F1B405B54204D0103D284609
:1026F000FFF7B5FFF8E7204670BD00BFD40100200A
:10270000F8B504460846FFF7B3FF4FF6FF77B84227
:1027100000D1FEE7256905B1FEE71F4B84F82C5078
:1027200004F10C0243F8202004F110060E23C4E942
:10273000173521613046C4E90C55C4E90E55C4E98A
:102740001055A56484F84C5084F84D50E46000F0B6
:10275000B5FC04F16400FFF777FF04F17400FFF7A4
:1027600073FF04F18400FFF76FFF04F19400FFF79B
:102770006BFF04F1A400FFF767FF8023C4E9005555
:10278000C4E90657C4E90855A5606561A3623046EF
:10279000BDE8F840FFF7B2B8D401002010B5074CEF
:1027A000206810B10430FEF7C5FF606920B1BDE8B4
:1027B00010400430FEF7BEBF10BD00BFD4010020A2
:1027C000034B186810B10430FEF7B4BF704700BF68
:1027D000D4010020034B586810B10430FEF7AABFA3
:1027E000704700BFD4010020034B986810B104303B
:1027F000FEF7A0BF704700BFD4010020034BD8688C
:1028000010B10430FEF796BF704700BFD40100201E
:10281000034B186910B10430FEF78CBF704700BF3E
:10282000D40100200022C0E90022C0E90222704742
:10283000F8B504460E4600F1640500F1B4072846D9
:102840001035FFF7EFFFBD42F9D100232046236189
:102850003146FFF755FF2046F8BD38B50023C0E9E3
:102860000033C0E902338B6804460D462BB10222C7
:102870009847EB68E360AB68A360204638BD826888
:1028800010B50AB904F04EF8BDE81040C368184707
:1028900008B500B9FEE700F00FFC0068C36E13B185
:1028A0006430FFF7ECFF08BDFFF7F2BF10B500B9C9
:1028B000FEE7037F013B072B10D8DFE803F0041489
:1028C0000F100F0F0F12012400F0F6FB2401006817
:1028D0006434204483680BB1FFF7D1FF10BD03249B
:1028E000F2E70424F0E70224EEE7FFF7DFBFFFF78B
:1028F000DDBF04F021B804F027B8000086B0052839
:102900004ED8DFE800F003111D293541254BDA6C64
:1029100042F00102DA64DB6C03F001030093009BD8
:102920004FF0904006B070471E4B1F48DA6C42F0E3
:102930000202DA64DB6C03F002030193019BF1E70E
:10294000184B1A48DA6C42F00402DA64DB6C03F0CC
:1029500004030293029BE5E7124B1548DA6C42F040
:102960000802DA64DB6C03F008030393039BD9E7E6
:102970000C4B1048DA6C42F01002DA64DB6C03F0A6
:1029800010030493049BCDE7064B0B48DA6C42F02E
:102990008002DA64DB6C03F080030593059BC1E7DA
:1029A0000020BFE700100240000400480008004873
:1029B000000C004800100048001C004808B50749FA
:1029C00000F042FBC0F3C430012802D0022802D03C
:1029D000FEE7002008BD1020FCE700BF5C7800087F
:1029E0000268094B9A420DD103F5CE339A6B42F03F
:1029F00000529A639A6B22F000529A639A6D22F009
:102A000000529A65704700BF0074004010B50B4932
:102A100086B0044600F0F6FA019060B12046FFF758
:102A2000CDFF30F01003014605D101A8FDF795FF59
:102A300001A8FDF784FF06B010BD00BF5C78000858
:102A4000F8B51449144E074600F0DCFAFFF710FE03
:102A500056F82030044673B9B420FFF74AFF0D49F9
:102A60000546384600F0CEFA01462846FFF7E0FE5C
:102A700056F824301D6056F824301C6844B12046B6
:102A8000FFF71EFE2046B421BDE8F840FFF733BF34
:102A9000F8BD00BF00770008D401002037B5FDF76E
:102AA0005BFE4FF0E0250446AB690093FDF754FE52
:102AB000AB6901936969844201F101014FF47A73B2
:102AC00008D0019A8A1A5A43B2FBF1F203FB0020A4
:102AD00003B030BD009A8A1A5A43B2FBF1F203FBED
:102AE0000420F5E7FDF738BE704708B5FDF728FE6E
:102AF000FDF7BFFEFFF7F8FF08BD000010B592B06C
:102B000004464422002101A804F023F9FEF7CAF983
:102B1000032C12D8DFE804F0021A2A40264BD3F81F
:102B2000942042F00102C3F89420D3F894309C071B
:102B300003D40823019301230693019B002B39D072
:102B400001A8FEF785FA002834D0FEE71A4B1A6870
:102B500042F480721A601B685905EED40223019377
:102B60004FF480721023CDE90423E6E7124BD3F82B
:102B7000902042F00102C3F89020D3F890209407EF
:102B8000DBD4D3F8902022F01802C3F8902004235D
:102B9000019301230393D0E7074B1A6842F4803274
:102BA0001A601B6899035EBF01224FF48033CDE9A0
:102BB0000123C2E712B010BD0010024070470000B0
:102BC0000F4B9A6D42F080529A659A6D84B002F074
:102BD00080520192019A1A6E42F001021A661A6E30
:102BE00002F001020292029A9A6C42F480529A64B4
:102BF0009B6C03F480530393039B04B0704700BFA6
:102C0000001002400C4BD3F8FC20D2015EBFD3F879
:102C1000FC2042F08072C3F8FC20084B00225A606E
:102C20001A6842F001021A6000BF00BF00BF586876
:102C3000B0FA80F04009704700ED00E0001000E0BD
:102C400008B5FFF7BDFFFFF7DDFFFDF769FDFFF7F3
:102C5000B5FF03F001F8BDE808400148FDF70EBEDE
:102C6000400000200023C0E90033C0E90233704770
:102C70000023012803F101020AD11422DBB25343DD
:102C8000054A181D1044816829B11A441369184770
:102C900040081346EDE77047EC0100200120FEF7E5
:102CA000F5B80220FEF7F2B80420FEF7EFB80820CE
:102CB000FEF7ECB81020FEF7E9B838B506244FF45B
:102CC0008065A8B2FEF7E2F8013C4FEA4505F8D16D
:102CD00038BD00002DE9F04116468CB00A460024AC
:102CE000012A04F1010543D1E4B26200CDE90713E2
:102CF000C168DFF88480032393400B40D34003F086
:102D0000030303AD099307A902230A93FDF7F0FF1C
:102D10001423314628465C43FFF79FFD95E80300E6
:102D200008EB040301AA043382E8030093E80300DC
:102D300085E8030092E80300271D83E80300474469
:102D4000059BBA68BB60069B05922846FA68FB6043
:102D50000692FFF784FC18F9040000220621FDF713
:102D600013FD18F90400FDF741FD0CB0BDE8F0813A
:102D700052082C46B4E700BFEC010020344A10464C
:102D800008B5062300F8043BFFF76CFF072302F1A8
:102D900018001375FFF766FF082302F12C0082F874
:102DA0002830FFF75FFF092302F1400082F83C3032
:102DB000FFF758FF0A2302F1540082F85030172120
:102DC000FFF750FF02F1680082F86410FFF74AFF36
:102DD00002F17C0082F87810FFF744FF02F19000C6
:102DE00082F88C10FFF73EFF02F1A40082F8A010D9
:102DF000FFF738FF02F1B80082F8B4102821FFF77E
:102E000031FF02F1CC0082F8C810FFF72BFF02F16E
:102E1000E00082F8DC10FFF725FF02F1F40082F8F1
:102E2000F010FFF71FFF02F5847082F80411FFF71E
:102E300019FF02F58E7082F81811FFF713FFBDE835
:102E4000084002F5987082F82C11FFF70BBF00BF05
:102E5000EC01002038B5054CA4F5A075143C201DEC
:102E6000FFF7FDFBAC42F9D138BD00BF2C030020B9
:102E700030B591FAA1F391FAA1F1B3FA83F3C468E2
:102E80005B000325B1FA81F105FA03F3490024EA56
:102E900003038A401A43C26030BD431C04D00C3186
:102EA00051F80C3C5A1C01D100207047834201F1BB
:102EB0000C01F5D101207047F8B5471C06460D46B8
:102EC00000D1FEE700F00F02414BC0F3031053F8AE
:102ED0002240FFF713FD94FAA4F3B3FA83F3876853
:102EE00003225B0002FA03F394FAA4F2B2FA82F22C
:102EF00027EA03075200032393403B4305F00701F1
:102F00008360032903D8DFE801F05F032C61FEE74B
:102F1000012394FAA4F2B2FA82F20668520003275F
:102F200007FA02F226EA020694FAA4F2B2FA82F250
:102F300052009340013933430129036005D84368A7
:102F40002A074CBF2343A3434360C5F30112012A60
:102F500002D0022A18BF00222146BDE8F840FFF740
:102F600087BFC5F306227F2A01D10223D1E73607A6
:102F700016D5230A93FAA3F6B6FA86F6476A93FAA9
:102F8000A3F3B6004FF00F0CB3FA83F30CFA06F676
:102F90009B0027EA060602FA03F333434362E4E7A1
:102FA00094FAA4F3B3FA83F3066A9B000F2707FA97
:102FB00003F326EA030694FAA4F3B3FA83F39B001F
:102FC0009A4032430262D0E70023A2E70323A0E73E
:102FD0007C790008431C06D17047834202D189687E
:102FE000FFF76ABF0C310B685A1CF6D1FEE70B687D
:102FF0005A1C01D100207047834201D148687047B4
:103000000C31F4E7431C01D0FFF7F1BF00207047FB
:103010004B6813B94FF0FF307047834201D1086805
:1030200070470C31F4E708B1FFF7F2BF4FF0FF3003
:10303000704703460868421C00D17047984201D18E
:10304000886870470C31F5E7431C01D0FFF7F1BFEA
:10305000704703468B42084604D01BB100290CBFC1
:103060001846002070470000114B4FF000629A6034
:10307000D3F8882042F47002C3F888200D4B1A68F8
:10308000002142F001021A6099601A6822F0A852E9
:1030900022F410221A604FF48052DA601A6822F487
:1030A00080221A6040F27F7299611A62704700BFF5
:1030B00000ED00E0001002400438704703682B4A1E
:1030C000934286B00BD12A4B1A6E42F400621A6604
:1030D0001B6E03F400630093009B06B07047B3F1CE
:1030E000804F0BD103F504339A6D42F001029A65CB
:1030F0009B6D03F001030193019BEEE71D4A934290
:103100000AD11B4B9A6D42F010029A659B6D03F039
:1031100010030293029BE0E7174A93420AD1144B33
:103120009A6D42F020029A659B6D03F02003039391
:10313000039BD2E7114A93420AD10D4B1A6E42F417
:1031400080321A661B6E03F480330493049BC4E739
:103150000B4A9342C1D1064B1A6E42F400321A66F2
:103160001B6E03F400330593059BB6E7002C01406A
:1031700000100240001000400014004000400140D8
:103180000044014003681B4A934206D102F56442A1
:10319000136E23F4006313667047B3F1804F05D1BB
:1031A000154A936D23F0010393657047134A9342C8
:1031B00005D102F50032936D23F01003F4E7104AB5
:1031C000934205D102F5FE32936D23F02003EBE725
:1031D0000C4A934205D102F55042136E23F480331A
:1031E000D9E7094A9342D7D102F54C42136E23F432
:1031F0000033D0E7002C01400010024000100040D6
:10320000001400400040014000440140431C18D01D
:10321000114B984218D007D8B0F1804F16D0A3F5C3
:103220008063984214D0FEE70C4B984212D003F50D
:103230008063984203D0A3F5C0539842F3D119207C
:1032400070476FF00D007047372070471C207047A3
:10325000362070471820704700140040004001409D
:10326000431C18D0124B984218D00BD8A3F58E33BC
:10327000984215D003F58063984213D0B0F1804F87
:1032800012D0FEE70B4B984210D003F580639842B2
:10329000F7D1192070476FF00D0070471B20704761
:1032A00036207047372070471C2070471820704721
:1032B000002C01400040014038B5FFF7FFFE0446F6
:1032C0000068FFF7A3FFD4E91312FDF75DFA206849
:1032D000FFF79CFFFDF78AFA22681046FFF7C0FF50
:1032E00005461046FFF792FF85420BD02846D4E9E9
:1032F0001312FDF749FA2068FFF7B2FFBDE8384026
:10330000FDF774BA38BD00002DE9F04F87B00446D0
:103310000F46D0F8900098499846109B019391462B
:10332000FFF770FE95498246D4F89400FFF76AFED5
:1033300093490646D4F89800FFF764FE9149054684
:10334000D4F89C00FFF75EFE8346BAF1000F00F050
:103350009980D4F89420013202D0002E00F092809F
:10336000D4F89820013202D0002D00F08B80D4F8E0
:103370009C20013203D0BBF1000F00F08380314666
:103380005046FFF766FE29462060FFF762FE594669
:103390002060FFF75EFE2060002873D07A4B9842D1
:1033A00073D103F558431A6C42F480421A641A6CC4
:1033B00022F480421A641A6E42F480421A661B6E2E
:1033C00003F480430293029B2523A4F8A0306A49AA
:1033D000D4F89000FFF7FEFD26B16849D4F89400B8
:1033E000FFF7F8FD002D00F09C806549D4F89800A7
:1033F000FFF7F0FD4FF4807ABBF1000F06D0614972
:10340000D4F89C004AF4007AFFF7E4FD94F8A11088
:103410005E4A019B94F9A000C4F80C90251D42F867
:1034200021502268C4E901270C22C4E9062A00229F
:10343000C4E90438C4E9092222620121FDF7A4F994
:10344000D4F80080524B984540F04781B7F5165F9D
:10345000284670D8FFF79AF82846FFF7C9F828469B
:10346000002E40F09D80FEF7D4FF58B10220FFF7F8
:1034700045FB2368434556D02846FEF7CAFF00287F
:1034800040F0F08007B0BDE8F08F424B984215D174
:1034900003F5E6339A6B42F400329A639A6B22F496
:1034A00000329A639A6D42F400329A659B6D03F480
:1034B00000330393039B4FF4937386E7364B984294
:1034C00015D103F5E4339A6B42F480229A639A6B28
:1034D00022F480229A639A6D42F480229A659B6D51
:1034E00003F480230493049B40F227236DE7284BC9
:1034F00098427FF46CAF03F5C833DA6B42F00102F7
:10350000DA63DA6B22F00102DA63DA6D42F001026B
:10351000DA65DB6D03F001030593059B40F246334A
:1035200053E7AA4668E71D4AD2F8883043F440635F
:10353000C2F88830A0E7FFF742F82846FFF76EF898
:1035400028465EB9FEF765FF00289BD0134B1A682A
:103550002368510540F1BC8043458BE0FEF72BFF0B
:1035600000288FD00D4B1A682368520540F1B280B5
:1035700043453FD135E000BF88760008107600084B
:10358000A475000844750008003801402C03002091
:10359000008000400044004000480040001002400D
:1035A000FEF709FF00283FF46DAF0220FFF7A6FAEF
:1035B0002368434506D14A4AD2F8883043F4406331
:1035C000C2F888302846FEF7F6FE00283FF45AAFCE
:1035D000434B22681B6813F4806F424B36D09A42EB
:1035E0000AD13F4AD2F8883023F4406343F40063A1
:1035F000C2F88830002E3ED02846FEF7DCFE0028B8
:103600003FF440AF2268374B9A4206D1344AD2F891
:10361000883023F44063C2F888302846FEF7CBFE9A
:1036200000283FF42FAF22682E4B9A4208D12C4A33
:10363000D2F8883023F4406343F48063C2F88830C2
:10364000284607B0BDE8F04FFEF7B5BE9A42E4D178
:10365000234AD2F8883023F44063C2F88830002E21
:10366000DBD11CE01E4B22681B6813F4806F1D4BDE
:1036700013D09A42B5D02846FEF7CBFE00283FF47F
:1036800001AF2268174B9A4209D1154AD2F8883007
:1036900023F44063C2F8883001E09A42D8D028462B
:1036A000FEF7B7FE00283FF4EDAE22680D4B9A42BC
:1036B00008D10B4AD2F8883023F4406343F4806386
:1036C000C2F88830284607B0BDE8F04FFEF7A1BE2B
:1036D0004345E3E74345C2D1BAE7002EB0D1F1E755
:1036E000001002400080004010B4019C20B1019401
:1036F0005DF8044BFFF708BE5DF8044B704700000F
:103700000A4B13B5D3F8A84009492046FFF77AFCC5
:1037100048B108480023C0F890401A4600934FF47F
:103720001651FFF7F1FD02B010BD00BFB4780008DC
:10373000887600086800002008B5074B90F8A120A3
:1037400053F82200FEF709FC00F02200A0F122034A
:103750005842584108BD00BF2C03002008B5074B54
:1037600090F8A12053F82200FEF7F7FB00F02100AB
:10377000A0F121035842584108BD00BF2C0300208E
:103780002DE9F0472B4C06460D46FCF7E5FF94F873
:10379000A130032B074613D894F8A120264B53F8E9
:1037A0002240A4F104084046FFF7D8FFD0BB4FF4F5
:1037B0007A73AAB231462046FEF772FD40B908E09E
:1037C0001E4B1F49D3F8A8804046FFF71BFC18BBCF
:1037D00000252846BDE8F0875AF8233043B994F80D
:1037E000A1300133DBB2032B84F8A130F4D90CE013
:1037F00049464046FFF706FC94F8A1205AF82230CB
:103800001B688342EBD1032AC6D9FFF779FF94F8EE
:10381000A130032BC0D9DBE7DFF81CA0DFF8209034
:103820000023E0E7FCF798FFC01BB0F57A7FBAD31E
:10383000CEE700BF680000202C030020B478000809
:103840008876000870B50E46054610B94FF0FF3077
:1038500070BDFFF771FF04460028F7D12946012209
:1038600011F8A23F337095F8A100034B53F82000E4
:10387000FEF764FE2046EBE72C03002038B50D462A
:103880000446C0B1FFF758FFA8B994F9A000C4F8E6
:103890008850FCF7B9FF94F8A100074B04F1A2018E
:1038A00053F820000122FEF749FE94F9A000BDE87C
:1038B0003840FCF79BBF38BD2C03002038B51546B7
:1038C0000446C8B1C0F88C1090F9A000FCF79CFF2A
:1038D000D4F8A830B4F8B21094F8A10013FA81F12A
:1038E000064BAAB253F82000FEF7A6F894F9A00000
:1038F000BDE83840FCF77ABF38BD00BF2C0300207C
:1039000050B1D0F89430013306D190F8A120034B88
:1039100053F82200FEF7D9BA704700BF2C030020ED
:1039200050B1D0F89430013306D190F8A120034B68
:1039300053F82200FEF7EDBA704700BF2C030020B9
:10394000D0F8843004381847D0F888300438184745
:1039500010B5044650F80439DA69D1070CD50122B4
:103960001A62FFF7E9FEB0B904F19E012046012278
:10397000BDE81040FEF7E2BDDA69920701D50222E8
:10398000EEE7DA69510701D50422E9E7DA6912079F
:10399000E7D50822E4E710BD08B52520FCF75AFF5B
:1039A000024B1868BDE80840FEF788B82C030020D9
:1039B00008B52620FCF74EFF034B586818B1BDE848
:1039C0000840FEF77BB808BD2C03002008B527206F
:1039D000FCF740FF034B986818B1BDE80840FEF7BC
:1039E0006DB808BD2C03002008B54620FCF732FF57
:1039F000024BD868BDE80840FEF760B82C030020F1
:103A0000012200F19E01FEF799BD00000A4903461C
:103A1000086810B50344EFF30882934205D9074BB9
:103A20000C221A604FF0FF3010BD054A054C121BE6
:103A30009342F4D20B60F7E720010020A80A00208F
:103A40000000012000040000FEE70000024B1622E7
:103A50001A604FF0FF307047A80A0020012070471D
:103A600010B50446084662702170002102F002FD84
:103A7000207802F0A1FD003818BF01200023207239
:103A8000637202F0CDFD6060204610BD38B504467B
:103A9000007802F091FD227A031E18BF01239A429A
:103AA00005460DD0237202F0BBFD6368C01A63782F
:103AB000984202D30DB10123637202F0B1FD606040
:103AC00038BD03460022407A5A727047816101F581
:103AD0008031C902C161704710B5C1690123AA22B2
:103AE000CC5CC4540133182B82EA0402F8D10B7861
:103AF00003709B1A5842584110BD70B50346AA2264
:103B000003F8172B86B00446024612F8010F2178FD
:103B10009A4281EA00012170F7D100230122CDE908
:103B200002320592A26904920193FCF77FFF01A97A
:103B300002A8FDF76FF8E56904F118062D1B61195D
:103B4000F4E802230020FCF7B7FFB442F7D1FCF7FA
:103B50007FFF06B070BD000006494FF4E112C0E9D6
:103B60000112C2604FF0000C40F2FF32C0E904C203
:103B7000FFF7C3BF8096980000220270704770B5AF
:103B80000446084694F88C10A0F13003DBB219B952
:103B9000092B0BD9084670BD362B30D8A0F13A035B
:103BA000062B2CD9A0F14703192B28D904F147057E
:103BB000002315F8016F16B101333F2BF9D19A425A
:103BC0004FF000021DDD234404F1480583F848004E
:103BD00083F8492041B110220021284603F016F84D
:103BE000C4F888000121D5E70A22284603F00EF820
:103BF00094F88C30C4F88800002BF3D0EBE7002158
:103C0000C8E71146C6E738B500F14702044600236D
:103C100012F8011F39B101333F2BF9D1234400229F
:103C200083F8472001E0002BF8D194F88C1004F1C0
:103C3000480539B110220021284602F0E7FFC4F8F8
:103C4000880038BD0A22284602F0E0FF94F88C3044
:103C5000C4F88800002BF4D0ECE7000010B504464F
:103C6000034802F01FFB63680133636010BD00BFAF
:103C7000FC0700200EB430B500F108050399044696
:103C8000284602F0CDFF29462046FFF7E7FFBDE8B2
:103C9000304003B07047000038B54468044D152C1F
:103CA00000DD38BD284602F0EBFA0134F7E700BF2B
:103CB000FC07002070B5054E05464024304602F052
:103CC000DFFA013CFAD16C6070BD00BFFC07002038
:103CD00070B5164E164D0446FFF7ECFF31462046F0
:103CE000FFF7BCFF20461349FFF7B8FF20461249F3
:103CF000FFF7B4FF29462046FFF7B0FF002301225B
:103D000020460E49FFF7B6FF31462046FFF7A6FFD3
:103D100029462046FFF7A2FF20460949FFF79EFFEC
:103D20002046BDE87040FFF7B7BF00BF4A830008D8
:103D3000238F0008047A00081A7A0008367A0008EF
:103D4000467A00082DE9F04F0023044687B043600F
:103D5000B149FFF783FF2278B04B204653F8221079
:103D6000FFF77CFFAC492046FFF778FF23785A1E07
:103D70000E2A00F2CB82DFE812F00F0026008B0043
:103D80008B008B00DB00F50022012201A1011A0249
:103D900030024A0281028C02A1492046FFF75EFFF1
:103DA000A0492046FFF75AFF9F492046FFF756FFDC
:103DB0009E492046FFF752FF9D49204607B0BDE8C7
:103DC000F04FFFF74BBF96499A4D2046FFF746FF4D
:103DD00099492046FFF742FF93492046FFF73EFFEF
:103DE0000021964800F025FF0021B0FBF5F693482E
:103DF00000F01FFF6427324605FB16039049B3FB12
:103E0000F7F32046FFF736FF01218C4800F011FF41
:103E10000121B0FBF5F6894800F00BFF324605FBA7
:103E200016038849B3FBF7F32046FFF723FF02216F
:103E3000824800F0FEFE0221B0FBF5F67F4800F05C
:103E4000F8FE3246804905FB16032046B3FBF7F324
:103E5000FFF710FF72492046FFF700FF7149204627
:103E6000FFF7FCFE70492046FFF7F8FE7749204631
:103E7000FFF7F4FE76492046FFF7F0FE754920462D
:103E8000FFF7ECFE68492046FFF7E8FE724994E729
:103E9000042B4AD0052B714B714D0EBF02271D46D6
:103EA00000275F492046FFF7D9FE29462046FFF745
:103EB000D5FE5D495F4D2046FFF7D0FE39465F488D
:103EC00000F0B7FE3946B0FBF5F65C4800F0B1FEF5
:103ED0006427644905FB160332462046B3FBF7F31B
:103EE000FFF7C8FED4F888305F497B432046B3FB18
:103EF000F5F205FB1233B3FBF7F3FFF7BBFE4849BE
:103F00002046FFF7ABFE47492046FFF7A7FE46498C
:103F10002046FFF7A3FE55492046FFF79FFE544970
:103F20002046FFF79BFE534947E7534D0127B8E76B
:103F30003B492046FFF792FE3A492046FFF78EFEA6
:103F400039492046FFF78AFE4C492046FFF786FE96
:103F50004B492046FFF782FE4A492046FFF77EFE86
:103F600049498CE72E49494D2046FFF777FE4849DD
:103F70002046FFF773FE2C492046FFF76FFE2A69A3
:103F800044492046FFF776FE6A6943492046FFF719
:103F900071FE23492046FFF761FE22492046FFF7C4
:103FA0005DFE21492046FFF759FE3C492046FFF7B8
:103FB00055FE3B492046FFF751FE3A495FE7092B82
:103FC00014BF394E394E314A154914BF158A958AA6
:103FD0002046FFF743FE31462046FFF73FFE1249D9
:103FE0002046FFF73BFE32492A462046FFF742FEB5
:103FF000D4F888202F492046FFF73CFE0849204688
:10400000FFF72CFE07492046FFF728FE0649204609
:10401000FFF724FE284983E74A8300082401002093
:10402000238F0008E07A000816830008EA7A000867
:10403000F97A000840420F00087B00085C07002066
:10404000187B0008357B0008527B00086F7B000856
:10405000847B00089B7B0008B27B00086D7A000817
:10406000847A0008C07B0008D97B0008F27B000836
:104070000F7C0008277C00089E7A0008367C000828
:10408000467C00085C7C00086C7C00083C07002033
:10409000827C0008947C0008AD7C0008C67C000887
:1040A000D57C0008EE7C0008B87A0008CD7A0008BC
:1040B000057D0008187D00082B7D0008954D964968
:1040C000964E2046FFF7CAFDD5E9042394492046C1
:1040D000FFF7D0FD93492046FFF7C0FD924801212C
:1040E00001F0A6FCD5E904350135ED1A2D091FFABA
:1040F00083FA4FF00009ABB20AEB09179945BFB23A
:1041000009D38948002101F093FC86492046FFF736
:10411000A5FD864951E60DF1080842464FF0000B17
:1041200007EB0B018048019289B201F02CFB0BF1E7
:10413000010B019ABBF1100F02F8010BF0D17C4981
:104140003A46304602F0C1F87A49C34600271BF8C8
:10415000012B3046013702F0B8F8082F7549F6D127
:104160007549304602F088F8724918F80720304641
:10417000013702F0AAF8102F6E49F6D16F49304688
:1041800002F07AF8002718F8011BA1F11503692B3A
:1041900088BF2E213046013701F061FE102FF2D189
:1041A0005D492046FFF75AFD09F10109A3E75A4985
:1041B0002046FFF753FD62492046FFF74FFD564961
:1041C0002046FFF74BFD5F492046FFF747FD5E495C
:1041D0002046FFF743FD5D49A2E64F492046FFF721
:1041E0003DFDD4F894206AB959492046FFF736FDC1
:1041F00049492046FFF732FD52492046FFF72EFD80
:10420000514983E753492046FFF734FDF0E742491F
:10421000514EDFF88C91414FDFF888812046FFF73F
:104220001DFD4E492046FFF719FD4D492046FFF779
:1042300015FD39492046FFF711FD4A492046FFF791
:104240000DFD38492046FFF709FD002501352A46B6
:104250004946384602F039F83168384602F00CF821
:10426000B2884146384602F030F82B492046FFF725
:10427000F5FC042D06F10C06E8D146E72649204658
:10428000FFF7ECFCD4F894300BB13749ADE7374970
:10429000ABE72149244D2046FFF7E0FC3449204696
:1042A000FFF7DCFC28492046FFF7D8FC6B78BF2BD2
:1042B00022D130492046FFF7D1FCAB78B52B0BD18A
:1042C0002D492046FFF7CAFC2C492046FFF7C6FCC3
:1042D000D4F894202A4996E7B62B05D129492046DF
:1042E000FFF7BCFC2849F0E7B72B09D12749204646
:1042F000FFF7B4FC2649E8E726492046FFF7AEFC65
:1043000025492046FFF7AAFC2449DEE707B0BDE8AF
:10431000F08F00BF3C070020238F0008FC0700201F
:10432000387D0008547D000870040020B07D00082E
:104330009F7D0008A77D0008AE7D0008AD7D0008C8
:10434000B97D0008E07A000816830008D57D0008D2
:10435000E57D0008FD7D00088C8300082B7E0008A9
:10436000527E0008807E0008A67E0008D47E0008E9
:10437000497C0008027F00081A7F0008347F00088B
:1043800006800008537F00086D7F00088C7F0008BE
:10439000A57F0008F07F0008C47F0008DA7F0008CE
:1043A000947E00089A7E000873B50C460178054695
:1043B0000F293AD8DFE811F02E0010001900300064
:1043C000300030008800B800CD00CD00EE00F100D4
:1043D000CB000A01CB00CB00312C02D102232B7081
:1043E00023E0322C6ED10623F9E70023312C80F82C
:1043F000483080F88C30C0F8883001D10323EEE7D4
:10440000322C01D10423EAE7332C01D10523E6E75E
:10441000392C57D10123E2E71B2CDFD0082C01D027
:104420007F2C0ED12846FFF7EEFB2846FFF742FC13
:104430002846FFF787FC284602B0BDE87040FFF72A
:104440002BBC0A2C03D00D2C01D02B2C33D1D5F84A
:10445000882064260123042906FB02F201931DD063
:1044600005290ED000216148009100F07FFC2B2C23
:10447000B4D1D5F888305E4873434360FFF73DFB05
:10448000ACE75A480093022100F070FC2B2CA5D118
:10449000D5F8883056487343C360EFE7534800931C
:1044A000194600F063FC2B2C98D1D5F88830504881
:1044B00073438360E2E7062221462846FFF75FFB4D
:1044C0000028B2D102B070BD312C01D1072386E79C
:1044D000323C072CF6D801A353F824F0FD44000821
:1044E0002145000825450008C5440008C5440008CA
:1044F000C5440008C54400081544000801213D4892
:1045000001F096FA3B4801F0F3F93A4801F07EFADF
:104510000021C5F89400374801F08AFA0F235EE7BE
:104520000B235CE70D235AE7012380F88C30312CF4
:104530004FF0000380F8483001D10A234FE7322CB6
:1045400001D108234BE7332C01D1092347E7392C4C
:1045500048E71B2CBAD0082C3FF464AF7F2C3FF403
:1045600061AF0A2C01D00D2C12D1D5F88830204A29
:104570001F4808290BBF23F00F039BB21B0443F015
:104580000F030ABF1B0C53611361FFF7B6FA9DE7D7
:10459000042291E7392C95D198E71B2C3FF423AFE7
:1045A0000A2C01D00D2C8DD10121124801F040FAC6
:1045B000104801F061F90F4801F028FA0021C5F810
:1045C00094000C4801F034FA0C2308E7392C3FF42E
:1045D0000AAFA4F13101C9B203293FF673AF054810
:1045E00001F040FA0E23C5F89400F8E65C070020BD
:1045F0003C0700207004002013B50446C0F80110E9
:104600009A3000F0F1F804F1E60000F0EDF8012333
:104610002046237002B010BD10B50446013069B1C8
:10462000012101F005FA00232370A38104F19A000F
:1046300000F025FA01F0F4FFA06010BD01F0F8F9D8
:1046400001232370F9E738B5057804467DB98368FE
:104650006BB101F0E5FFA368C01A42F210739842F3
:1046600005D929462046BDE83840FFF7D5BF38BDFB
:104670002DE9FF4104469A3000F0E5F801281CD0EE
:10468000022817D1E02304F1E6058DF80F3001234D
:1046900000220093AA210DF10F0328460E3400F0EA
:1046A000A4F82146284600F096F9214602464D48D6
:1046B00001F030FC04B0BDE8F081B4F89C104FF27A
:1046C000AA02914217D1A12204F1E6058DF80F202C
:1046D000009000220DF10F03AA21284604F10E06D6
:1046E00000F083F83146284600F075F9314602465D
:1046F0003C4801F00FFC94F89C30002B38D101F0BD
:104700008FFFA389A06013B9601C01F0B5F8A389DD
:1047100004F19C070133A3813E46002504F1010802
:1047200094F8DD30AB4244DC0126002504EB06089A
:1047300094F8DD30AB4247DC002E0CBFE123A1230F
:104740008DF80F3004F1E605012300220093AA2121
:104750000DF10F03284604F10E0600F046F831462D
:10476000284600F038F9314602461E4801F0D2FBD7
:1047700094F89C30012B9DD104F1E606A1228DF81E
:104780000F20009300220DF10F03304604F10E05B7
:10479000AA2100F02AF82946304600F01CF92946E3
:1047A0000246104801F0B6FB00212046FFF734FF17
:1047B00080E7B4F89A1016F8012F294489B24046D0
:1047C00001F01CF80135ABE7B4F89A10294489B21E
:1047D000404600F0D8FF17F8013F0135834218BF6B
:1047E0000026A5E7FC070020704710B59DF808409B
:1047F0000280817080F8434000220230944200DC45
:1048000010BD995C00F8011F0132F7E703466FF015
:10481000460210B5D21A00F147040020131999423C
:1048200000DC10BD14F8013F602B04D9573BDBB20C
:1048300003EB0010F2E7402B01D9373BF7E72F2BB2
:10484000F6D9303BF3E790F8452038B504460B46DF
:10485000052A2ED8DFE802F0030E2F4C688C3A2B85
:1048600006D14FF48073A0F84430002380F846301E
:10487000002038BD90F84620511CC9B202440229DC
:1048800080F8461082F84830F2D1002580F8465072
:10489000FFF7BCFF94F84430C0B20344402884F8CA
:1048A000430084F8443002D884F84510E0E784F8E7
:1048B00045500220DDE790F84620511CC9B2024461
:1048C000042980F8461082F84830D1D1002380F8BE
:1048D0004630FFF79BFF94F8443082B2184400EB57
:1048E0001220228084F84400032384F84530BFE777
:1048F00090F84620511CC9B20244022980F84610A3
:1049000082F84830B4D10023A0F84630FFF77EFF8C
:1049100094F84430C0B2A070184494F8433084F83E
:1049200044001BB30423E0E790F84620511CC9B2B1
:104930000244022980F8461082F8483098D10023BA
:1049400080F84630FFF762FF94F8443094F847202F
:1049500053FA80F384F84430531C2244DBB284F8C9
:104960004730D07094F843209A4281D10523BCE7A8
:1049700090F84620511CC9B20244022980F8461022
:1049800082F848307FF474AFFFF740FF94F844306A
:104990005B42DBB2C0B20022834284F8443084F828
:1049A000452086D1012064E7581EC00030B5F025AF
:1049B000854002EB430304309A4200D130BD01EA46
:1049C0000504C440092C8CBF3734303402F8014B45
:1049D0002D090438F0E7F8B50A463A23002580F897
:1049E000445002F8013B04460F46012390F843105F
:1049F000FFF7DAFF94F8443094F8432021881344F9
:104A000084F84430FA1C02232046FFF7CDFF2288A9
:104A100094F84430A178134403EB12232646FA1D80
:104A200084F8443020460123FFF7BEFF94F8443059
:104A300016F8022F1344DBB2093794F8431084F8B8
:104A40004430A9423A4607F102070BDC5942C9B289
:104A5000204684F844100123FFF7A6FF68000B30BE
:104A6000C0B2F8BD16F8011F01232046FFF79CFFD6
:104A700094F8443032781344DBB20135DDE700238B
:104A800080F84530704738B5044600250846217047
:104A90006570012101F0EEFC2078294601F054FDFB
:104AA000204638BD70B50446164600780D4619B943
:104AB00001F04AFD657070BD01211AB901F044FD95
:104AC0006670F8E701F040FD0123A6806580637001
:104AD00001F0A6FDA060EEE710B54378012B044677
:104AE0000FD101F09DFDA368C01A6388984208D3D6
:104AF0002078002101F028FD0223637001F090FD71
:104B0000A0606378022B0FD101F08AFDA368C01A60
:104B1000A388984208D32078012101F015FD0123D4
:104B2000637001F07DFDA06010BDF8B504460D4630
:104B300014F8441B490001F0FE01204617461E46AA
:104B400000F03CFB2946204600F0B8FA0025B542AB
:104B500005DB0121204600F037FA0120F8BD795D20
:104B6000204600F0ABFA0135F1E738B504461D46A2
:104B7000443000F0F7F92570204638BD07EE902A42
:104B800007EE101AF8EE677AB8EE477AF8B5C7EE76
:104B9000276A0546FCEEE67A16EE900A17EE904A72
:104BA000FBF75AFC064620460F46FBF733FC02464D
:104BB0000B4630463946FBF7EFFAFBF7A5FC9FEDB5
:104BC0000C7A0C4907EE900A67EE877AE401FCEE56
:104BD000E77AA4F5007417EE903ADB01B3FBF1F22B
:104BE0001444C2EB02529B1AC5E906316C61F8BD50
:104BF000F0FF7F49FFFF0F00C36970B41C0A4470C7
:104C00008370C48A066A858A1B0B23F00F038371A5
:104C100004F003048369037244EA06146DBAC47095
:104C20001C0A02468580C47170BC08230132FFF75C
:104C30007CBF00EB8100406A70473223A0F85830F7
:104C4000443000F021BA102B01D8FFF76EBF0020CE
:104C50007047102B2DE9F0410746884616461D4641
:104C60002ED80446013D14F8441B490001F0FE0112
:104C7000204600F0A3FA4146204600F01FFA012129
:104C8000204600F0A1F9397849000131C9B2204627
:104C900000F094FA0027AF420BDB00227119204686
:104CA00000F0BAFA0121204600F08EF90120BDE89B
:104CB000F081F1190122204600F0AEFA0137EAE74F
:104CC0000020F4E707B501238DF807200DF1070256
:104CD000FFF72BFF03B05DF804FB000070B504463E
:104CE000FFF7ABFF0525661C012332460021204655
:104CF000FFF7AFFF94F90130002B26DBFF220321E1
:104D00002046FFF7DFFF4FF08F33C4F80130324603
:104D10007360102108232046FFF795FF00220F2122
:104D20002046FFF7CFFF00234FF42062C4E905239C
:104D30000B4A1A21C4E907232046FFF75DFF222111
:104D40002046FFF759FF012070BD0A2001F06CFCDE
:104D5000013DC9D10349044801F0A4FA2846F3E70C
:104D6000FFFF0F00EB8D0008FC0700202DE9F34743
:104D700007299DF82C9004460E46154607D932495E
:104D8000324801F08FFA002002B0BDE8F0879DF8AC
:104D90002820012A01D92E49F2E75F1E3B0601D5E2
:104DA0002C49EDE72C4A954204D92C49274801F0BB
:104DB0008CFAE8E72A4B9D4202D82A4A2A49F5E7AD
:104DC00001230DF107020321FFF743FF4FF0010814
:104DD0009DF8072008FA06F842EA080206F1100AD0
:104DE000D2B2032120465FFA8AFA8DF80720FFF736
:104DF00069FF8F2251462046FFF764FFB9F1000F8B
:104E000020D02A4619492046FFF7B8FEF1002A3182
:104E100001F0FE0127622046FFF7EEFE9DF8072015
:104E2000032122EA080220468DF80720FFF74AFFF7
:104E30000F2251462046FFF745FF04EB8604012070
:104E40006562A1E74D46F8E7098E0008FC070020DF
:104E50003B8E0008698E0008C06878049B8E0008AD
:104E60006778040068780400E08E00080046C323D9
:104E7000002070477047827F407F101A704710B53E
:104E800090F8253090F824209A4281BF026A5C1C79
:104E900080F82540D1549BBF0123436001200020AE
:104EA00010BDF8B505460C468F180026BC4201D14E
:104EB0003046F8BD2B6814F8011B1B68284698473C
:104EC0000644F3E7437F827F9A4281BF8269591C7F
:104ED0004177D05C98BF4FF0FF307047827F437FAF
:104EE0009A4286BF8269D05C4FF0FF30704710B5A0
:104EF000047C0021204601F027FB20460121BDE86B
:104F0000104001F0B7BA10B5447C0021204601F0F2
:104F10001BFB20460121BDE8104001F0ABBA817CAB
:104F2000007C01F0A7BA817C407C01F0A3BA08B5EF
:104F3000007C01F041FBC0B208BD08B5407C01F027
:104F40003BFBC0B208BD037A10B5044633B901F08B
:104F500069FB6368C01AC043C00F10BD01F060FB5D
:104F6000F7E7000042744FF420624282642230B5B9
:104F7000828200244FF00062C0E907240B4A82625B
:104F80000B4AC2620B4A02630B4A42634FF47A75C2
:104F90000A4A8263C0E90145094A0A4D0560017465
:104FA0008461848480F82640C26330BDEF4E0008DF
:104FB0001F4F0008074F0008274F00082F4F000819
:104FC0003B4F00082C8F0008F0B585B0838A019311
:104FD000012304460E468DF80C3001F021FB019BA5
:104FE000264D274F03440293002384F826302046A1
:104FF000236B9847234A2B68B3FBF2F3E27C796872
:1050000053437A68521A9342FBDCA36A20469847BE
:105010001C4A2B68B3FBF2F3E27C796818485343CF
:105020004268521A9342FBDC3EB101A9204600F0CF
:105030002EF828B9022005B0F0BD636B20469847D2
:105040000F4E104A2B68B3FBF2F3E27C71685343B6
:105050007268521A9342FBDCE36A20469847094A79
:105060002B68B3FBF2F3E27C716805485343426856
:10507000521A9342FBDC0020DDE700BF64000020F1
:10508000001000E040420F000121FFF79DBF70B506
:10509000436B05460E469847EB6B284698470446F7
:1050A00008B1012009E03046FFF74DFF0028F3D09A
:1050B00021462846FFF788FF204670BD2DE9FF41B5
:1050C000868A0196012304460D468DF80C3001F0C6
:1050D000A7FA06440296DFF8E080354E0827236BD6
:1050E000204698472B064CBFE36AA36A20469847A0
:1050F000304AD8F80030B3FBF2F3E27C71685343D6
:105100007268521A9342FBDC01A92046FFF7BFFFE9
:10511000A8B1284AD8F80030B3FBF2F3E27C7168FA
:1051200053437268521A9342FBDC6D0001A8EDB242
:10513000FFF709FF40B101212046FFF745FF022597
:10514000284604B0BDE8F081013F17F0FF07C6D143
:10515000236B20469847E36A20469847154AD8F8BB
:105160000030B3FBF2F3E27C7168114E5343726876
:10517000521A9342FBDC01A92046FFF788FF002862
:10518000DDD0A36B204698470A4AD8F80030B3FB1D
:10519000F2F3E27C7168051E054818BF01255343F0
:1051A0004268521A9342FBDC236B20469847C7E7BC
:1051B000001000E040420F0064000020F8B50446F3
:1051C000124F836A124E0D469847124A3B68B3FB52
:1051D000F2F3E27C716853437268521A9342FBDC2B
:1051E000236B204698470B4A3B68B3FBF2F3E27C03
:1051F0007168074853434268521A9342FBDC2946C0
:105200002046BDE8F840FFF759BF00BF640000200A
:10521000001000E040420F002DE9F043002385B06C
:105220000B70858A0195012304460E4691468DF840
:105230000C3001F0F5F9DFF82881474F054402955D
:10524000082533785B003370236B20469847E36A68
:1052500020469847414A3B68B3FBF2F3E27CD8F81A
:1052600004105343D8F80420521A9342FADC01A9DF
:105270002046FFF70CFF002860D0384A3B68B3FB9C
:10528000F2F3E27CD8F804105343D8F80420521A01
:105290009342FADCE36B20469847002845D0A36B85
:1052A0002046984718B1337843F001033370013D2D
:1052B00015F0FF05C5D1236B20469847B9F1000FC3
:1052C00041D0A36A264E20469847244A3B68B3FB48
:1052D000F2F3E27C716853437268521A9342FBDC2A
:1052E00001A92046FFF7D3FE40B31C4A3B68B3FB3D
:1052F000F2F3E27C71681A4853434268521A9342AF
:10530000FBDCE36B20469847F8B11549134A3B682C
:10531000B3FBF2F3E27C486853434A68121A9342A3
:10532000FBDC236B2046984709E001A8FFF70BFE42
:105330000028AFD001212046FFF746FE022528466F
:1053400005B0BDE8F083E36ABCE701A8FFF7FBFD09
:105350000028D6D0EEE700BF6400002040420F00D6
:10536000001000E010B54FF090444FF40063A361CB
:10537000322001F059F94FF00063A36110BD000025
:10538000037849B94FF090431AB14FF400629A6123
:1053900070474FF00062FAE7002BF9D0012908D1DD
:1053A0004FF0904312B94FF00042F0E74FF4004243
:1053B000EDE7022908D14FF0904312B94FF0804237
:1053C000E5E74FF48042E2E7032908D14FF090432C
:1053D00012B94FF08052DAE74FF48052D7E7042930
:1053E00008D14FF0904312B94FF00052CFE74FF47D
:1053F0000052CCE70529CBD1034B12B94FF4003250
:10540000C5E70222C3E700BF001C0048037893B140
:105410004FF0904201F0C70393611B0483F44703EC
:105420008902936101F46042C943034B090401F00E
:1054300060419A61996170470008004803780BB198
:10544000014B5961704700BF000400484FF0904382
:10545000186903F5006300F0C7001B699B0A03F09D
:105460003803184370474FF09043C7229A614FF4B6
:105470006042C3F818287047F0B59DF81470002FEB
:105480000CBF0124032423401025012600203242B2
:105490000ABF01EA040C184340EA0C00760027B961
:1054A0005B006400013DF2D1F0BD9B00A400F9E770
:1054B00073B54FF0904600247168009423464FF472
:1054C00071420546FFF7D8FF706006F5E0562346A7
:1054D0007168009403222846FFF7CEFF706002B087
:1054E00070BD73B505460C4621B102B0BDE87040F1
:1054F000FFF7DEBF4FF090460123716800944FF430
:105500007142FFF7B9FF706006F5E056012371683C
:10551000009403222846FFF7AFFF706002B070BD11
:1055200010B500210446FFF7DCFF4FF09043C7227F
:105530009A610A4A4FF460419161A2F580624FF688
:10554000FF7191614FF471429A6103F5E0530322B8
:105550009A6101229A610023237010BD000800485F
:10556000037810B50446C3B9FFF7DAFF0C4B0D49B9
:105570004FF480329A610C4B0C4A1B684868B3FBAD
:10558000F2F30A2253434A68121A9342FBDC204684
:10559000FFF78EFF0120207010BD0020FCE700BF48
:1055A000001C0048001000E06400002040420F0092
:1055B0006D4B2DE9F047DA6CDFF8B491DFF8B48178
:1055C0006A4E42F00102DA64DA6C86B002F001023F
:1055D0000292029ADA6C42F00202DA64DA6C02F0A9
:1055E00002020392039ADA6C42F00402DA64DA6C83
:1055F00002F004020492049ADA6C42F08002DA6447
:10560000DB6C4FF0904A03F0800300270593059B65
:10561000DAF80410009701234FF6C7120446FFF78B
:105620002BFFCAF80400D9F80410009701234FF6A5
:10563000FF722046FFF720FFC9F80400D8F80410D5
:10564000009701234FF460422046FFF715FFC8F88A
:10565000040071680097012303222046FFF70CFF26
:1056600001257060DAF8001000952B464FF6C7123E
:105670002046FFF701FFCAF80000D9F80010009596
:105680002B464FF6FF722046FFF7F6FEC9F80000E2
:10569000D8F8001000952B464FF460422046FFF7E3
:1056A000EBFEC8F80000316800952B460322204627
:1056B000FFF7E2FE3060DAF8081000951346204646
:1056C0004FF6C712FFF7D8FECAF80800D9F808103D
:1056D000009503234FF6FF722046FFF7CDFEC9F871
:1056E0000800D8F80810009503234FF460422046C4
:1056F000FFF7C2FE0323C8F80800B16800951A46F8
:105700002046FFF7B9FEB060DAF80C1000953B4672
:105710004FF6C7122046FFF7AFFECAF80C00D9F8C3
:105720000C1000953B464FF6FF722046FFF7A4FE93
:10573000C9F80C00D8F80C1000953B464FF46042B5
:105740002046FFF799FEC8F80C00F16800953B462B
:1057500003222046FFF790FEF0602046FFF7E0FEB0
:10576000204606B0BDE8F08700100240001C00484B
:105770000004004800080048012202700022C170A5
:1057800042708270704738B50578EDB9C41C204668
:10579000FFF754FE2A4602212046FFF7F1FD2A4674
:1057A00003212046FFF7ECFD2046FFF74FFE0122C4
:1057B000032105462046FFF7E3FD01220221204692
:1057C000FFF7DEFD284638BDFF25FBE738B5C41CD2
:1057D0000D4620461146FFF719FE29462046FFF7E1
:1057E0002DFE204600220421FFF7CAFD204601229B
:1057F000BDE838400421FFF7C3BD0000F8B51746E7
:10580000027804460E4682BBC51C02212846FFF7DB
:10581000B7FDAA2245F255512046FFF7D7FF552282
:1058200042F6AA212046FFF7D1FFA02245F25551AA
:105830002046FFF7CBFF3A4631462046FFF7C6FF2A
:10584000012202212846FFF79BFD2846FFF70BFEA9
:105850000649074B074A1B684868B3FBF2F3192255
:1058600053434A68121A9342FBDCF8BD001000E073
:105870006400002040420F00027838B50446AABBFD
:10588000C51C28460221FFF77BFD2046AA2245F2CF
:105890005551FFF79BFF2046552242F6AA21FFF7FC
:1058A00095FF2046802245F25551FFF78FFF204695
:1058B000AA2245F25551FFF789FF2046552242F6AC
:1058C000AA21FFF783FF2046102245F25551FFF72A
:1058D0007DFF284601220221FFF752FD2846FFF7EF
:1058E000C2FDBDE83840642000F09EBE38BD000017
:1058F0000278F8B50446002A40F08180C51C0221D8
:105900002846FFF73DFDAA2245F255512046FFF7F4
:105910005DFF3B4F3B4E552242F6AA212046FFF742
:1059200055FF902245F255512046FFF74FFF364A6A
:1059300033687968B3FBF2F30A2253437A68521A48
:105940009342FBDC2846FFF78EFD00220321284608
:10595000FFF716FD00212846FFF770FD2A4A7968F7
:105960003368274FB3FBF2F30A2253437A68521A83
:105970009342FBDC2846FFF769FD01216070284651
:10598000FFF75CFD204A796833681D4FB3FBF2F3E3
:105990000A2253437A68521A9342FBDC2846FFF7E7
:1059A00055FD0122A07003212846FFF7E9FCAA2239
:1059B00045F255512046FFF709FF552242F6AA212C
:1059C0002046FFF703FFF02245F255512046FFF72E
:1059D000FDFE0D4A33687968B3FBF2F308480A22EA
:1059E00053434268521A9342FBDC284601220221AB
:1059F000FFF7C6FC2846BDE8F840FFF734BDF8BD08
:105A0000001000E06400002040420F0038B5037829
:105A100005465BB94FF6FF74A1B22846FFF7B3FE07
:105A2000FF2801D0601C38BD013CF5D10020FAE709
:105A300070B5C51C04460E46284649B1FFF790FDD7
:105A4000012200212846FFF79BFC0023237070BD34
:105A5000FFF766FD324631462846FFF791FC0123E9
:105A6000F4E700002DE9F843C51C044628460F461C
:105A7000FFF776FD2846012200210025FFF780FC74
:105A800025702046174EFFF7F7FE4FF00C0808FB75
:105A90000768B8F80490A9450ED80C2300254FF0EC
:105AA000010803FB0766A9450FD120460021FFF737
:105AB000BFFF4046BDE8F883D8F80830A9B25A5D68
:105AC0002046FFF79BFE0135E3E7A9B22046FFF72A
:105AD0005AFEB3685B5D0135834218BF4FF0000882
