:020000040800F2
:1000000000FE032061ED0008B1ED0008B1ED00082D
:10001000B1ED0008B1ED0008B1ED000800000000EE
:10002000000000000000000000000000B1ED00082A
:10003000B1ED000800000000B1ED000807A80008BD
:10004000B1ED0008B1ED0008B1ED0008B1ED000818
:10005000B1ED0008B1ED000825A90008BD0300209E
:100060002BA9000831A9000837A90008B1ED000844
:10007000B1ED0008B1ED0008B1ED0008B1ED0008E8
:10008000B1ED0008B1ED0008B1ED0008B1ED0008D8
:10009000B1ED0008B1ED0008B1ED00083DA9000880
:1000A000B9A40008D1A30008CDA40008F5A3000856
:1000B00009A400081DA4000831A40008B1ED00083F
:1000C000B1ED0008B1ED0008B1ED0008B1ED000898
:1000D000B1ED00082DB7000845B7000861B700086A
:1000E00053A90008B1ED0008B1ED0008E1A4000833
:1000F00081A40008F5A40008A5A40008B1ED00083B
:10010000B1ED0008B1ED000845A40008B1ED00080C
:100110007DB7000895B7000859A400086DA4000831
:10012000B1ED0008B1ED0008B1ED0008B1ED000837
:10013000B1ED000800000000000000000000000019
:10014000000000000000000000000000B1ED000809
:10015000B1ED0008B1ED0008B1ED0008ADB7000841
:10016000B1ED0008B1ED0008B1ED0008B1ED0008F7
:10017000B1ED0008B1ED0008000000000000000033
:10018000B1ED0008B1ED0008C5B70008DDB7000803
:10019000B1ED0008B1ED000800000000B1ED00086D
:1001A000000000000000000000000000B1ED0008A9
:1001B000B1ED0008B1ED00080000000000000000F3
:1001C000000000000000000000000000000000002F
:1001D000000000000000000000000000B1ED000879
:1080000081F0004102E000BF83F0004330B54FEA49
:1080100041044FEA430594EA050F08BF90EA020FB6
:108020001FBF54EA000C55EA020C7FEA645C7FEA49
:10803000655C00F0E2804FEA5454D4EB5555B8BF6C
:108040006D420CDD2C4480EA020281EA030382EADD
:10805000000083EA010180EA020281EA0303362D6F
:1080600088BF30BD11F0004F4FEA01314FF4801C42
:108070004CEA113102D0404261EB410113F0004F54
:108080004FEA03334CEA133302D0524263EB43030B
:1080900094EA050F00F0A780A4F10104D5F1200EA9
:1080A0000DDB02FA0EFC22FA05F2801841F1000104
:1080B00003FA0EF2801843FA05F359410EE0A5F1D8
:1080C00020050EF1200E012A03FA0EFC28BF4CF009
:1080D000020C43FA05F3C01851EBE37101F00045BF
:1080E00007D54FF0000EDCF1000C7EEB00006EEBCC
:1080F0000101B1F5801F1BD3B1F5001F0CD3490856
:108100005FEA30004FEA3C0C04F101044FEA4452AC
:1081100012F5800F80F09A80BCF1004F08BF5FEA33
:10812000500C50F1000041EB045141EA050130BD13
:108130005FEA4C0C404141EB0101013C28BFB1F525
:10814000801FE9D291F0000F04BF01460020B1FA70
:1081500081F308BF2033A3F10B03B3F120020CDA43
:108160000C3208DD02F1140CC2F10C0201FA0CF021
:1081700021FA02F10CE002F11402D8BFC2F1200C86
:1081800001FA02F120FA0CFCDCBF41EA0C0190403C
:10819000E41AA2BF01EB0451294330BD6FEA040485
:1081A0001F3C1CDA0C340EDC04F11404C4F1200270
:1081B00020FA04F001FA02F340EA030021FA04F382
:1081C00045EA030130BDC4F10C04C4F1200220FAD9
:1081D00002F001FA04F340EA0300294630BD21FA17
:1081E00004F0294630BD94F0000F83F4801306BFDD
:1081F00081F480110134013D4EE77FEA645C18BFD1
:108200007FEA655C29D094EA050F08BF90EA020F67
:1082100005D054EA000C04BF1946104630BD91EA5F
:10822000030F1EBF0021002030BD5FEA545C05D162
:108230004000494128BF41F0004130BD14F58004A1
:108240003CBF01F5801130BD01F0004545F0FE4115
:1082500041F470014FF0000030BD7FEA645C1ABF4A
:10826000194610467FEA655C1CBF0B46024650EA81
:10827000013406BF52EA033591EA030F41F40021AD
:1082800030BD00BF90F0000F04BF0021704730B533
:108290004FF4806404F132044FF000054FF0000108
:1082A00050E700BF90F0000F04BF0021704730B5C9
:1082B0004FF4806404F1320410F0004548BF40429E
:1082C0004FF000013EE700BF42004FEAE2014FEAF3
:1082D00031014FEA02701FBF12F07F4393F07F4FCE
:1082E00081F06051704732F07F4208BF704793F0D1
:1082F0007F4F04BF41F40021704730B54FF46074E4
:1083000001F0004521F000411CE700BF50EA0102E6
:1083100008BF704730B54FF000050AE050EA01028F
:1083200008BF704730B511F0004502D5404261EBFF
:1083300041014FF4806404F132045FEA915C3FF440
:10834000D8AE4FF003025FEADC0C18BF03325FEADD
:10835000DC0C18BF033202EBDC02C2F1200300FA8E
:1083600003FC20FA02F001FA03FE40EA0E0021FAB3
:1083700002F11444BDE600BF4FEA4102B2F1E0430E
:1083800024BFB3F5001CDCF1FE5C0DD901F0004CFC
:108390004FEAC0024CEA5070B2F1004F40EB83004C
:1083A00008BF20F00100704711F0804F21D113F178
:1083B0003872BCBF01F00040704741F480114FEAB1
:1083C0005252C2F11802C2F1200C10FA0CF320FA3A
:1083D00002F018BF40F001004FEAC1234FEAD32357
:1083E00003FA0CFC40EA0C0023FA02F34FEA4303C1
:1083F000CCE77FEA625307D150EA01331EBF4FF04A
:10840000FE4040F44000704701F0004040F0FE4064
:1084100040F40000704700BF53B94AB9002908BFB3
:1084200000281CBF4FF0FF314FF0FF3000F00CB8B8
:10843000ADF1080C6DE904CE06F0B6FDDDF804E000
:10844000DDE9022304B07047704700BF034613F80C
:10845000012B002AFBD1181A0138704700000000D8
:1084600001F0FF01102A2BDB10F0070F08D010F8E5
:10847000013B013A8B422DD010F0070F42B3F6D1E9
:10848000F0B441EA012141EA014122F007047FF002
:1084900000070023F0E80256083C85EA010586EA59
:1084A000010685FA47F5A3FA87F586FA47F6A5FA95
:1084B00087F68EB9EED1F0BC01F0FF0102F00702A1
:1084C00032B110F8013B013A83EA010313B1F8D14C
:1084D0000020704701387047002D06BF354603382D
:1084E000073815F0010F07D1013015F4807F02BF66
:1084F000013015F4C03F0130F0BC0138704700BFB7
:1085000010B5054C237833B9044B13B10448AFF3CD
:1085100000800123237010BDE40300200000000050
:108520006CFE000808B5034B1BB103490348AFF3C9
:10853000008008BD00000000E80300206CFE000879
:108540007047000038B50E4B05461A784FF47A7321
:10855000B3FBF2F30B4A1068B0FBF3F000F0A2F8A3
:10856000044658B90F2D09D8024629464FF0FF306E
:1085700000F046F8044B20461D6038BD0120FCE7A2
:1085800000020020500200200402002008B5094B20
:1085900003201A6842F400721A601A6842F480726A
:1085A0001A6000F01BF80020FFF7CCFFFFF7C8FFB0
:1085B000002008BD003C0240034A044B11681B78B0
:1085C0000B441360704700BF00040020000200202D
:1085D000014B1868704700BF0004002007490302E0
:1085E000CA6803F4E06322F4E0621204120C13433D
:1085F00043F0BF6343F40033CB60704700ED00E00D
:10860000164B30B5DC68C4F30224C4F10703251D02
:10861000042B28BF0423062D4FF0FF358CBF033CED
:10862000002405FA03F3002805FA04F521EA030300
:1086300022EA050203FA04F343EA02034FEA0313B2
:10864000DBB206DB00F1604000F5614080F80033EA
:1086500030BD00F00F00024A1354F9E700ED00E0CE
:1086600014ED00E0002807DB0123410900F01F00A2
:10867000024A834042F82130704700BF00E100E029
:1086800000280CDB4309012200F01F0004492033BD
:10869000824041F82320BFF34F8FBFF36F8F7047A5
:1086A00000E100E00138B0F1807F0BD24FF0E02311
:1086B000054AF0215861002082F8231007229861B2
:1086C0001A6170470120704700ED00E0BFF35F8F33
:1086D000044B5A6A22F480325A620022C3F8942072
:1086E000704700BF00ED00E0002808DB43090122CD
:1086F00000F01F0002496033824041F82320704798
:1087000000E100E0704708B5FFF7FCFF08BD7047C7
:1087100010B5044608B9012010BD437F03F0FF02E5
:1087200013B90277FFF7F3FF022363772379E3B9E5
:108730002368134A5A619A6822F018029A60627993
:108740002368D2B94FF0FF321A6100209A6861693C
:1087500022F060020A43A1699A609A6822F08002BE
:108760000A439A6001236377D6E7D4E902122046D0
:1087700000F008F80028E2D0CDE72269E4E700BF66
:10878000B71DC1041F2310B5013B1CD321FA03F40C
:10879000E407F9D5102A12D004D83AB1082A10D02B
:1087A00001200BE0182AFBD1062BF9D800684161A3
:1087B000836823F0180313438360002010BD072B48
:1087C000F3E70F2BF1E7102AEAD0E9D8002AE7D126
:1087D000ECE710B5044640B10223037101F08EFFAF
:1087E000002020616071207110BD0120FCE710B5F0
:1087F0000122046801F01001236802FA01F123EA62
:10880000010323600271002010BD70B50446866D1F
:10881000FFF7DEFE054694F83530022B06D08023A4
:1088200001206365002384F8343070BD23681A6822
:1088300022F016021A605A6922F080025A61226CF4
:108840000AB9A26C1AB11A6822F008021A601A68F2
:1088500022F001021A602368186810F0010007D1A5
:10886000E26D3F239340B360012384F83530D9E7AC
:10887000FFF7AEFE401B0528EDD9202303206365DA
:1088800084F83500CEE790F83530022B03D08023F2
:108890004365012070470268052380F835300020C9
:1088A000136823F001031360704700000A4910B5F4
:1088B0000C6924F440740C610C6944F440740C613C
:1088C0000C6944F001040C610260BFF36F8F4360D8
:1088D000BFF34F8F10BD00BF003C0240084B1A6928
:1088E00022F440721A611A6942F400721A611A691C
:1088F00042F001021A610160BFF34F8F704700BF61
:10890000003C0240084B1A6922F440721A611A694D
:1089100042F480721A611A6942F001021A61018000
:10892000BFF34F8F704700BF003C0240074B1A69EE
:1089300022F440721A611A691A611A6942F001023E
:108940001A610170BFF34F8F704700BF003C0240B7
:108950001B4AD368990704D51A498B6943F0200351
:108960008B61D368DA0604D5164A936943F0100385
:108970009361134AD3689B0604D512498B6943F06F
:1089800008038B61D368580604D50E4A936943F0F7
:10899000040393610A4AD368190604D509498B690F
:1089A00043F002038B61D368DB0504D5054A936964
:1089B00043F040039361024B4FF4F972DA60704761
:1089C000003C024004040020064B1A69002A07DA22
:1089D000054A5A6002F188325A601869C00F704720
:1089E00000207047003C024023016745034A0020F5
:1089F000136943F000431361704700BF003C02401D
:108A0000134B002270B504469A61124DFFF7E0FD4A
:108A10000646EB68DA0307D4EB6813F4F97F0ED04F
:108A2000FFF796FF012003E0611CF2D00CB9032090
:108A300070BDFFF7CDFD801BA042EAD9F7E7EB68D8
:108A4000DB0701D40020F3E70123EB60FAE700BF66
:108A500004040020003C02402DE9F0411B4F9846E1
:108A600006460C463B7D1546012B2DD001234CF2CA
:108A700050303B75FFF7C4FF90B9032E07D8DFE8ED
:108A800006F00213181DE9B22046FFF74FFF4CF223
:108A90005030FFF7B5FF0E4A136923F0010313614D
:108AA00000233B75BDE8F081A9B22046FFF72AFFFD
:108AB000EDE729462046FFF711FFE8E72A4643463F
:108AC0002046FFF7F3FEE2E70220EBE70404002074
:108AD000003C0240084B1A6922F440721A611A697C
:108AE00042F004021A611A6942EA002242F480321A
:108AF0001A61BFF34F8F7047003C02400E4B0229B2
:108B00001A6994BF09024FF4407122F440721A614D
:108B10001A690A431A611A6922F0F8021A611A697D
:108B200042EAC00040F0020018611A6942F4803243
:108B30001A61BFF34F8F7047003C02402DE9F843A4
:108B4000DFF8908005460F4698F81430012B3DD091
:108B500001234CF2503088F81430FFF751FF0446DF
:108B600090B94FF0FF333B602B68012B12D1287B6B
:108B7000FFF7B0FF4CF25030FFF742FF144A0446B3
:108B8000136923F004031361002388F8143020468E
:108B9000BDE8F8836E68DFF83890D5E90123134407
:108BA000B342F1D9297B3046FFF7A8FF4CF2503091
:108BB000FFF726FFD9F8103023F07A03C9F81030F8
:108BC00010B104463E60DFE70136E6E70224DEE747
:108BD000003C0240040400202DE9F74F0023DFF899
:108BE000BC816C4A01240D689C4004EA0506AC4334
:108BF00040F097804D6803274FEA430E05F00304C9
:108C000007FA0EFC671E6FEA0C0C012F00F2908031
:108C10008768022C07EA0C09CF6807FA0EF747EAC3
:108C200009078760476827EA0609C5F3001707FAAE
:108C300003F747EA09074760C76807EA0C098F6826
:108C400007FA0EF747EA0907C7607DD0076804FAFC
:108C50000EF415F4403F07EA0C0744EA07040460E9
:108C60005FD0D8F8444023F0030703F0030C4FF023
:108C70000F0E44F4804407F180474FEA8C0CC8F88B
:108C8000444007F59C37D8F844400EFA0CFE04F433
:108C900080440194019CBC6824EA0E0E3E4CA04224
:108CA0006AD004F58064A04268D004F58064A042D4
:108CB00066D004F58064A04264D004F58064A042CC
:108CC00062D004F58064A04260D004F58064A042C4
:108CD0005ED004F58064A04214BF0824072404FA7F
:108CE0000CF415F4801F44EA0E04BC606FEA06071A
:108CF00094680CBF3C40344315F4001F9460D46862
:108D00000CBF3C40344315F4003FD46054680CBFA2
:108D10003C403443ED035460146854BF3C4034433A
:108D200014600133102B7FF45DAF03B0BDE8F08F0A
:108D3000032C8BD0C76807EA0C098F6807FA0EF777
:108D400047EA0907C76081E74FEAD30903F0070A3A
:108D50004FF00F0B00EB89094FEA8A0AD9F820700F
:108D60000BFA0AFB27EA0B0B0F6907FA0AF747EA27
:108D70000B07C9F8207069E70024B0E70124AEE7CB
:108D80000224ACE70324AAE70424A8E70524A6E705
:108D90000624A4E7003C01400000024000380240E5
:108DA000044A5169014208B502D0506101F0A4FDA6
:108DB00008BD00BF003C0140194B37B51A6C194C77
:108DC00042F080521A641B6C03F080530193019BA4
:108DD000236843F480332360FFF7FAFB054663689A
:108DE000DA030CD523680F4D43F400332360FFF7FB
:108DF000EFFB04466B689B030AD5002006E0FFF7F3
:108E0000E7FB401BB0F57A7FE9D9032003B030BD02
:108E1000FFF7DEFB001BB0F57A7FEBD9F5E700BF6B
:108E200000380240007000402DE9F341044640B391
:108E30000368DE0710D423689D0761D423681907EF
:108E400000F1A68023685A0700F1C780A269002AB2
:108E500040F0308100202CE0944B9A6802F00C0224
:108E6000042A07D09A6802F00C02082A0BD15B682A
:108E7000590208D58D4B1B689A03DCD56368002B1B
:108E8000D9D1012015E06368884DB3F5803F13D137
:108E90002B6843F480332B60FFF79AFB834E054623
:108EA00033689B03C7D4FFF793FB401B6428F7D9B3
:108EB000032002B0BDE8F0819BB92B6823F4803316
:108EC0002B602B6823F480232B60FFF781FB064681
:108ED0002B689F03AFD5FFF77BFB801B6428F7D976
:108EE000E6E7B3F5A02F2B6803D143F480232B6072
:108EF000CEE723F480332B602B6823F48023CAE76A
:108F00006A4B9A6812F00C0F07D09A6802F00C02B4
:108F1000082A11D15B685D020ED4644A1368990770
:108F200002D5E368012BACD11368216923F0F80363
:108F300043EAC103136081E7E3685C4DBBB12B6872
:108F400043F001032B60FFF743FB06462B689B07AA
:108F500007D52B68226923F0F80343EAC2032B608C
:108F60006CE7FFF735FB801B0228EFD9A0E72B68E1
:108F700023F001032B60FFF72BFB06462B689F07AE
:108F80007FF55CAFFFF724FB801B0228F6D98FE743
:108F90006369464D83B16B6F43F001036B67FFF765
:108FA00017FB06466B6F9B073FF54CAFFFF710FBB7
:108FB000801B0228F6D97BE76B6F23F001036B67F8
:108FC000FFF706FB06466B6F9F077FF53BAFFFF78A
:108FD000FFFA801B0228F6D96AE7344B1A6CD500D9
:108FE00027D41A6C012742F080521A641B6C03F0DC
:108FF00080530193019B2E4D2B68D8051BD5A36888
:109000002A4D012B27D12B6F43F001032B6741F22F
:109010008838FFF7DDFA254E0546336F9A073FD5AE
:10902000002F3FF413AF214A136C23F080531364D5
:109030000CE70027DFE72B6843F480732B60FFF712
:10904000C7FA06462B68D905D9D4FFF7C1FA801BA9
:109050006428F7D92CE7ABB92B6F41F2883823F09D
:1090600001032B672B6F23F004032B67FFF7B0FA84
:1090700006462B6F9B07D3D5FFF7AAFA801B404506
:10908000F7D915E7052B2B6F03D143F004032B67AA
:10909000B9E723F001032B672B6F23F00403B5E737
:1090A000FFF796FA401B4045B7D901E70038024068
:1090B00000700040384DAB6803F00C03082B41D022
:1090C0002B68022A23F080732B602ED1FFF780FAE1
:1090D00006462B68990122D4A36A5B085A1ED4E97C
:1090E00007310B4343EA0243626A43EA8213E26AAE
:1090F00043EA026343F000536B602B6843F08073D4
:109100002B60FFF765FA244D04462B689A013FF562
:10911000A1AEFFF75DFA001B0228F6D9C8E6FFF7FB
:1091200057FA801B0228D4D9C2E6FFF751FA044649
:109130002B689B017FF58EAEFFF74AFA001B0228D1
:10914000F6D9B5E6012A6B683FF49BAE03F48002C2
:10915000E1698A427FF495AE03F03F02216A8A42B8
:109160007FF48FAE47F6C072616A1A40B2EB811F7E
:109170007FF487AEA26A03F440315208013AB1EBA2
:10918000024F7FF47EAEE26A03F07063B3EB026FCE
:1091900014BF012000208CE600380240134908B5B6
:1091A0008B6803F00C03042B1BD0082B1BD14A68DF
:1091B0004B68496802F03F0213F48003C1F3881141
:1091C0001ABF0B4800230B48A1FB0001FFF724F94D
:1091D000064B5B68C3F3014301335B00B0FBF3F064
:1091E00008BD0348FCE70348FAE700BF0038024027
:1091F00040787D010024F4002DE9F0410D4604463D
:1092000010B90120BDE8F081454A136803F00F034F
:109210008B4228D321688F0730D4C80743D4404AF3
:10922000136803F00F03AB4266D8226851076FD46E
:10923000130707D53B4A2169936823F4604343EA47
:10924000C1039360FFF7AAFF364B374A9B68C3F30D
:109250000313D35CD840354B1860354B1868FFF7C3
:1092600071F90020CEE7136823F00F030B4313605E
:10927000136803F00F038B42C3D1CBE711F0040F47
:10928000284B03D09A6842F4E0529A600E0703D547
:109290009A6842F460429A609A68A06822F0F002EC
:1092A00002439A60B9E761681E4B01291A681BD115
:1092B00012F4003FA5D09A6841F28838194F22F085
:1092C00003020A439A60FFF783F90646BB686268A7
:1092D00003F00C03B3EB820FA1D0FFF779F9801BE9
:1092E0004045F3D903208DE7022902D112F0007F17
:1092F000E0E712F0020FDDE7136823F00F032B43C2
:109300001360136803F00F03AB427FF47AAF8CE76E
:109310000449E0688B6823F4E05303438B6087E7DC
:10932000003C0240003802401404010850020020B2
:1093300004020020044B054A9B68C3F38223D35CDC
:10934000034A1068D8407047003802400C040108F6
:1093500050020020044B054A9B68C3F34233D35CA0
:10936000034A1068D8407047003802400C040108D6
:10937000500200207047704703681A69910710B5C2
:1093800004460FD5DA6892070CD56FF002021A6115
:10939000012202779B69990700F0858001F007F9A7
:1093A0000023237723681A69520710D5DA6850071B
:1093B0000DD56FF0040220461A61022222779B69C4
:1093C00013F4407F75D001F0F2F80023237723686F
:1093D0001A6911070FD5DA6812070CD56FF0080269
:1093E00020461A6104222277DB699B0767D001F0CF
:1093F000DEF80023237723681A69D00610D5DA68CF
:10940000D1060DD56FF0100220461A61082222778E
:10941000DB6913F4407F58D001F0C9F800232377AB
:1094200023681A69D20708D5DA68D00705D56FF026
:10943000010220461A6101F097F823681A691106A3
:1094400008D5DA68120605D56FF0800220461A6149
:1094500000F0C5F823681A69D00508D5DA68110646
:1094600005D56FF4807220461A6100F0B9F82368C0
:109470001A69520608D5DA68500605D56FF0400221
:1094800020461A61FFF777FF23681A69910622D5F3
:10949000DA6892061FD56FF0200220461A61BDE8F7
:1094A000104000F09BB801F080F82046FFF762FF03
:1094B00076E701F07AF82046FFF75CFF85E701F0D8
:1094C00074F82046FFF756FF93E701F06EF8204648
:1094D000FFF750FFA2E710BD264A036890421BD059
:1094E000B0F1804F18D0A2F57C42904214D002F522
:1094F0008062904210D002F5806290420CD002F55A
:109500007842904208D002F57052904209D123F47B
:109510004073CA68134317E023F070034A6813438B
:10952000F5E7154A9042F2D002F580629042EED003
:10953000A2F598329042EAD002F580629042E6D0DD
:1095400002F580629042E2D04A6923F0800313431F
:1095500003608B68C3620B688362064B984203D03A
:1095600003F58063984201D10B69036301234361D2
:10957000704700BF000001400044014010B50446A0
:1095800050B390F83D3003F0FF021BB980F83C2047
:1095900001F0D0FD02232068211D84F83D30FFF743
:1095A0009BFF0123002084F8483084F83E3084F883
:1095B0003F3084F8403084F8413084F8423084F8F9
:1095C000433084F8443084F8453084F8463084F8D9
:1095D000473084F83D3010BD0120FCE770477047EC
:1095E0007047026852E8003F23F4907342E800316C
:1095F00002680029F5D102F1080353E8003F23F087
:10960000010302F1080C4CE800310029F3D1036E8C
:10961000012B07D152E8003F23F0100342E800314C
:109620000029F7D12023C0F8803000230366836629
:109630007047026852E8003F23F0800342E800319F
:1096400002680029F5D152E8003F43F0400342E8A8
:1096500000310029F7D17047C26F0346212A11D18A
:10966000B0F8522092B20AB9FFF7E3BFC26C0168AA
:1096700012F8010B8862DA64B3F85220013A92B210
:10968000A3F852207047C26F0346212A13D1B0F8C5
:10969000522092B20AB9FFF7CCBFDA6C006832F8F8
:1096A000021BC1F308018162DA64B3F85220013A67
:1096B00092B2A3F852207047704700000346C06F73
:1096C000202822D119B312B3A3F85220A3F85020B6
:1096D0000022D964C3F884202122DA679A68B2F59F
:1096E000805F10D118690B4A0B49002808BF0A4651
:1096F000DA66196851E8002F42F0800241E8002044
:109700000028F6D17047034AF2E702207047012093
:10971000704700BF599600088796000808B5806B0F
:109720000023A0F85A30A0F8523001F0DBFF08BD4A
:1097300070470000036870B5DA6940F60F061968D3
:10974000044632429D680CD1960640F1AB808D06EE
:1097500040F1A880836E002B00F09E80BDE8704031
:10976000184715F0010064D012F0010F02F0020555
:109770007CD13DB102251D62D4F8845045F004052A
:10978000C4F8845056075ED5042012F0080F186202
:10979000D4F8840040F00200C4F8840007D0082008
:1097A0001862D4F8840040F00800C4F8840015055D
:1097B0000AD5480108D54FF400601862D4F8843007
:1097C00043F02003C4F88430D4F88430002B63D0F5
:1097D000920605D58B0603D5A36E0BB1204698479C
:1097E00026682046D4F88420B36802F0280203F0EB
:1097F000400353EA020550D0FFF7F3FEB3685E065C
:1098000047D5226802F1080353E8003F23F04003E4
:10981000083242E800310029F3D1606F002838D0C7
:10982000764B0365FFF72FF8002835D0606F036D86
:1098300094E7734D294235D012F0010F02F0020572
:1098400007D155070DD41607B1D501F02005054302
:10985000A4E7CE0510D4002DF3D15507F3D5002889
:1098600092D11007A3D511F0200F97E7CE0503D4AE
:10987000002D7FF47FAFF0E7012596071D62D4F835
:10988000845045F00105C4F88450E6D50028D8D0AE
:1098900070E7204601F026FF70BD01F023FFC4F8F9
:1098A0008450F9E7206E012840F08880D50640F109
:1098B0008580C80640F1828010221A629A6852069A
:1098C0004AD5616F0A68526892B2002AE4D0B4F8AF
:1098D00058009042E0D9A4F85A20CA69B2F5807FB6
:1098E0002ED053E8002F22F4807243E80021002993
:1098F000F7D103F1080252E8002F22F0010203F130
:10990000080040E800210029F3D103F1080252E8E1
:10991000002F22F0400203F1080040E80021002956
:10992000F3D12022C4F88020216653E8002F22F0D2
:10993000100243E800210029F7D1606FFEF765FFB0
:109940000223B4F858106366B4F85A30C91A89B2C1
:109950002046FFF7EDFE9FE7B4F85A20B4F85A000E
:10996000B4F8581092B280B2002895D0891A89B202
:10997000002991D053E8002F22F4907243E8002090
:109980000028F7D103F1080252E8002F22F001026B
:1099900003F1080545E800200028F3D12022A06645
:1099A000C4F88020206653E8002F22F0100243E81C
:1099B00000200028F7D102236366C9E7160607D501
:1099C0000D0605D5E36E002B3FF466AF2046C5E6D5
:1099D00050067FF561AF4A067FF55EAF53E8002F72
:1099E00022F0400243E800210029F7D1202320463D
:1099F000E166E36701F072FE4EE700BF1D970008C5
:109A000020010004D0F88020B0F85C10222A08B5AC
:109A1000036843D15B6A426D0B401370436D0133A1
:109A20004365B0F85A30013B9BB2A0F85A30B0F809
:109A30005A309BB273BB026852E8003F23F4907324
:109A400042E8003103680029F5D103F1080252E829
:109A5000001F21F0010194464CE80012002AF4D1C5
:109A600020218266C0F880104266016E012912D161
:109A7000026653E8002F22F0100243E8002100297B
:109A8000F7D1DA69D20601D510221A62B0F858105F
:109A9000FFF74EFE08BD01F01DFEFBE79A6942F09C
:109AA00008029A61F6E7D0F88020B0F85C10222A0C
:109AB00008B5036840D15A6A1140426D22F8021B72
:109AC0004265B0F85A20013A92B2A0F85A20B0F894
:109AD0005A2092B262BB53E8002F22F4907243E8FE
:109AE00000210029F7D103F1080252E8001F21F0FC
:109AF000010194464CE80012002AF4D1202182662C
:109B0000C0F880104266016E012912D1026653E846
:109B1000002F22F0100243E800210029F7D1DA6972
:109B2000D20601D510221A62B0F85810FFF700FED5
:109B300008BD01F0CFFDFBE79A6942F008029A6187
:109B4000F6E710B590F87830012B1CD0012380F88F
:109B500078302423C367026852E8003F23F00C03E7
:109B600042E800340168002CF5D151E8002F42F0A2
:109B7000080241E80023002BF7D1202280F878303A
:109B8000C267184610BD0220FCE710B590F8783087
:109B9000012B1CD0012380F878302423C36702688E
:109BA00052E8003F23F00C0342E800340168002C27
:109BB000F5D151E8002F42F0040241E80023002BC8
:109BC000F7D1202280F87830C267184610BD0220F5
:109BD000FCE7C26FD0F880001043704738B50446E8
:109BE000C0692169A26823680A4361691D680A4344
:109BF0007D4902432940256A0A43E1681A605A6890
:109C000022F440520A435A60A26999682A4321F417
:109C100030610A439A60754A934225D1744BD3F858
:109C2000903003F00303022B0BD0032B30D0012B19
:109C300000F0A780B0F5004F40F0CF80FFF78AFB1F
:109C4000AAE0B0F5004F6B4800F0AC80626800EB12
:109C50005203B3FBF2F34FF6EF72A3F110019142FE
:109C600012D82268D36098E0634A934217D1604BC0
:109C7000D3F8903003F00C03082BE2D006D8002B69
:109C800000F08580042B7CD0012087E00C2BFBD1D9
:109C9000B0F5004F00F086804FF40040D6E7574AF9
:109CA00093420DD1524BD3F8903003F03003202B68
:109CB000C7D003D8002B6AD0102BE4E7302BE6E79F
:109CC0004F4A93420DD14A4BD3F8903003F0C00372
:109CD000802BB6D003D8002B59D0402BD3E7C02B14
:109CE000D5E7484A934210D1414BD3F8903003F462
:109CF0004073B3F5007FA4D004D8002B47D0B3F550
:109D0000807FC0E7B3F5407FC1E73F4A934210D15F
:109D1000374BD3F8903003F44063B3F5006F90D025
:109D200004D8002B86D0B3F5806FACE7B3F5406F55
:109D3000ADE7364A934210D12D4BD3F8903003F45F
:109D40004053B3F5005F3FF47CAF03D8FBB1B3F5EC
:109D5000805F98E7B3F5405F99E72D4A934293D12E
:109D6000234BD3F8903003F44043B3F5004F3FF456
:109D700068AF03D85BB1B3F5804F84E7B3F5404FCC
:109D800085E7B0F5004F2BD1FFF708FA04E0B0F5F6
:109D9000004F1DD1FFF7CEFA20B900200023C4E9FF
:109DA0001A3338BD6268530803EB4003B3FBF2F388
:109DB0004FF6EF72A3F1100191423FF665AF23F029
:109DC0000F02C3F34203216892B21343CB60E4E76E
:109DD000FFF7B0FA0028E0D038E7FFF7BBFAF9E761
:109DE000FFF7DCF9F6E700BFF369FFEF0010014071
:109DF000003802400024F4000044004000480040C5
:109E0000004C004000500040001401400078004029
:109E1000007C0040436ADA0710B506D50168846A01
:109E20004A6822F4003222434A609C0706D5016842
:109E3000C46A4A6822F4803222434A60590706D530
:109E40000168046B4A6822F4802222434A601A07A0
:109E500006D50168446B4A6822F4004222434A60F6
:109E6000DC0606D50168846B8A6822F4805222439E
:109E70008A60990606D50168C46B8A6822F400528C
:109E800022438A605A0610D50168046C4A68B4F50A
:109E9000801F22F4801242EA04024A6005D14A6817
:109EA000446C22F4C00222434A601B0606D50268B5
:109EB000816C536823F400230B43536010BD2DE9DC
:109EC000F843DDF8209005460F46164698462A6866
:109ED000D36937EA03030CBF01230023B34201D047
:109EE000002028E0B9F1FF3FF2D0FEF771FBA0EBB4
:109EF00008002C68484502D8B9F1000F1DD154E87C
:109F0000003F23F4D07344E80032002AF7D104F173
:109F1000080353E8003F23F0010304F1080141E87E
:109F20000032002AF3D12023EB67C5F880300023EC
:109F3000032085F87830BDE8F88323685A07C6D532
:109F4000E3691B05C3D54FF40063236254E8003F67
:109F500023F4D07344E80032002AF7D104F1080357
:109F600053E8003F23F0010304F1080141E8003207
:109F7000002AF3D12023EB67C5F88030C5F8843080
:109F8000D5E72DE9F7439846C36F04460E46202BCC
:109F9000174641D1002941D0002A3FD02123002576
:109FA000C0F88450C367FEF713FBA3688146A4F88A
:109FB0005070B3F5805FA4F8527003D123690BB9D8
:109FC00035461E46B4F852204B46CDF8008092B27A
:109FD0003AB940212046FFF772FF40B92023E367DA
:109FE00006E0002280212046FFF769FF18B1032018
:109FF00003B0BDE8F08322685EB935F8023BC3F3D5
:10A0000008039362B4F85220013A92B2A4F85220A5
:10A01000D8E716F8013BF4E70220E9E70120E7E77B
:10A0200037B500250446C0F88450FEF7D1FA2268FF
:10A030000346126812070AD40020202384F878000F
:10A04000E367C4F880302066606603B030BD6FF00F
:10A050007E424FF40011204600922A46FFF72FFF60
:10A060000028E9D00320F0E710B5044640B3C36FE1
:10A070001BB980F87830FFF71FFB226824232046A5
:10A08000E367136823F001031360FFF7A7FD0128BE
:10A0900016D0636A13B12046FFF7BCFE2368204642
:10A0A0005A6822F490425A609A6822F02A029A6012
:10A0B0001A6842F00102BDE810401A60FFF7B0BF15
:10A0C000012010BD10B5044660B3C36F1BB980F802
:10A0D0007830FFF7F1FA226824232046E3671368FB
:10A0E00023F001031360FFF779FD01281AD0636A9A
:10A0F00013B12046FFF78EFE236820465A6822F4EB
:10A1000090425A609A6822F022029A609A6842F05D
:10A1100008029A601A6842F00102BDE810401A6015
:10A12000FFF77EBF012010BDA0F858200023A0F843
:10A130005A2082684165B2F5805F83662CD103693D
:10A14000002B40F2FF1318BFFF23A0F85C30002360
:10A15000C0F884302223C0F88030026802F108037E
:10A1600053E8003F43F00103083242E8003102683F
:10A170000029F2D181680369B1F5805F27D1DBB195
:10A18000154B836652E8003F43F4907342E8003178
:10A190000029F7D1002070472AB90369002B14BFAA
:10A1A0007F23FF23D1E7B2F1805FCED10369002B7B
:10A1B00014BF3F237F23C8E7084B836652E8003F64
:10A1C00043F0200342E800310029F7D1E2E70249D9
:10A1D0008166002BF2D0D5E7059A0008A79A0008FF
:10A1E000D0F88030202B30B412D1A1B19AB1002325
:10A1F0000468036663681B0207D554E8003F43F018
:10A20000806344E80035002DF7D130BCFFF78CBFE8
:10A21000022030BC70470120FBE7836810B504467C
:10A220002BB10322014698470023C4E9023310BD35
:10A23000836810B5044613B10322014698472046AF
:10A2400010BD0000294A0346904235D0B0F1804F3E
:10A2500048D0A2F57C42904230D002F58062904214
:10A2600042D002F5806290422AD002F5806290428C
:10A2700034D002F58062904224D002F570429042C0
:10A280002ED002F5705290421ED002F580629042AC
:10A290001CD002F5806290421AD04FF6FF70144A2B
:10A2A000934217D002F58062934215D002F5806286
:10A2B000934208BF0D2070470020F0E7022070474E
:10A2C0000420704706207047082070470920704717
:10A2D0000A2070470B2070470C20704705207047FC
:10A2E000072070470120704703207047000001409D
:10A2F00000180040014670B5044651F8100FFFF7F2
:10A30000A1FF0546084604F1640600F0BBFD0023EA
:10A31000074A42F8253004F1B405E360B54204D0A1
:10A32000103D2846FFF784FFF8E7204670BD00BFC8
:10A3300020040020F8B54FF6FF7704460846FFF7E3
:10A3400081FFB84200D1FEE7256905B1FEE704F1BF
:10A350000C021E4B04F11006A56443F820200E23C6
:10A360002161304684F82C5084F84C5084F84D50CC
:10A37000E460C4E91735C4E90C55C4E90E55C4E9D5
:10A38000105500F097FC04F16400FFF746FF04F15C
:10A390007400FFF742FF04F18400FFF73EFF04F171
:10A3A0009400FFF73AFF04F1A400FFF736FF802383
:10A3B0003046A5606561A362C4E90055C4E906574B
:10A3C000C4E90855BDE8F840FFF7D8B820040020DC
:10A3D00010B5074C206810B10430FEF7CDFF606A5D
:10A3E00020B10430BDE81040FEF7C6BF10BD00BF6D
:10A3F00020040020034B186810B10430FEF7BCBFE6
:10A40000704700BF20040020034B586810B104308F
:10A41000FEF7B2BF704700BF20040020034B9868CE
:10A4200010B10430FEF7A8BF704700BF2004002021
:10A43000034BD86810B10430FEF79EBF704700BFD1
:10A4400020040020034B186910B10430FEF794BFBC
:10A45000704700BF20040020034B586910B104303E
:10A46000FEF78ABF704700BF20040020034B9869A5
:10A4700010B10430FEF780BF704700BF20040020F9
:10A4800010B5074CE06910B10430FEF775FF206B82
:10A4900020B10430BDE81040FEF76EBF10BD00BF14
:10A4A00020040020034BD86910B10430FEF764BFCC
:10A4B000704700BF20040020034B186A10B104301D
:10A4C000FEF75ABF704700BF20040020034B986A74
:10A4D00010B10430FEF750BF704700BF20040020C9
:10A4E000034BD86A10B10430FEF746BF704700BF77
:10A4F00020040020034B586B10B10430FEF73CBF22
:10A50000704700BF200400200022C0E90022C0E9FB
:10A5100002227047F8B504460E4600F1640500F1CA
:10A52000B40728461035FFF7EFFFBD42F9D10023ED
:10A53000204631462361FFF7FDFE2046F8BD8268C4
:10A5400010B50AB904F08EFEC368BDE81040184784
:10A5500008B500B9FEE700F0ABFB0068C36E13B1AD
:10A560006430FFF7ECFF08BDFFF7F2BF10B500B98C
:10A57000FEE7037F013B072B10D8DFE803F004144C
:10A580000F100F0F0F120124240100F091FB00683F
:10A590006434204483680BB1FFF7D1FF10BD03245E
:10A5A000F2E70424F0E70224EEE7FFF7DFBFFFF74E
:10A5B000DDBF04F061BE04F067BE00008AB0082869
:10A5C00073D8DFE800F005121E2A36424E5A6600A4
:10A5D000374B38481A6B42F001021A631B6B03F0C9
:10A5E00001030193019B0AB07047314B32481A6B4B
:10A5F00042F002021A631B6B03F002030293029BF8
:10A60000F1E72B4B2D481A6B42F004021A631B6BC7
:10A6100003F004030393039BE5E7254B28481A6BDB
:10A6200042F008021A631B6B03F008030493049BB7
:10A63000D9E71F4B23481A6B42F010021A631B6BB9
:10A6400003F010030593059BCDE7194B1E481A6BC9
:10A6500042F020021A631B6B03F020030693069B53
:10A66000C1E7134B19481A6B42F040021A631B6B87
:10A6700003F040030793079BB5E70D4B14481A6B93
:10A6800042F080021A631B6B03F080030893089B5F
:10A69000A9E7074B0F481A6B42F480721A631B6BD1
:10A6A00003F480730993099B9DE700209BE700BF9B
:10A6B000003802400000024000040240000802404E
:10A6C000000C02400010024000140240001802403A
:10A6D000001C024000200240074908B500F0B0FA13
:10A6E000C0F3C430012802D0022802D0FEE70020C7
:10A6F00008BD1020FCE700BFA40201080268094B56
:10A700009A420DD103F5E2331A6A42F000521A62FE
:10A710001A6A22F000521A621A6C22F000521A646D
:10A72000704700BF0074004010B586B00A49044667
:10A7300000F064FA019060B12046FFF7CDFF30F0E1
:10A740001003014605D101A8FEF751F801A8FEF754
:10A7500040F806B010BD00BFA4020108F8B51449C6
:10A760000746144E00F04AFAFFF76CFD044656F80F
:10A77000203073B9B420FFF71CFF05460C4938465A
:10A7800000F03CFA01462846FFF7C4FE56F8243094
:10A790001D6056F824301C6844B12046FFF7AAFD1E
:10A7A0002046B421BDE8F840FFF705BFF8BD00BF63
:10A7B000040001082004002037B54FF0E025FDF724
:10A7C00007FF0446AB690093FDF702FFAB698442C3
:10A7D00001934FF47A73696901F1010108D0019A7C
:10A7E0008A1A5A43B2FBF1F203FB002003B030BDDA
:10A7F000009A8A1A5A43B2FBF1F203FB0420F5E7F0
:10A80000FDF7E6BE704708B5FDF7D6FEFDF77BFF06
:10A81000FFF7F8FF08BD70470F4B84B01A6C42F089
:10A8200080521A641A6C02F080520192019A5A6C9A
:10A8300042F480425A645A6C02F480420292029AB4
:10A840001A6B42F480521A631B6B03F48053039318
:10A85000039B04B0704700BF00380240074AD2F89B
:10A86000B43FD90709D503F0020320B12BB1044B43
:10A87000C2F8B03F01E0002BFAD07047001000E0B2
:10A8800055CEACC508B50E4BD3F8FC20D20105D48B
:10A89000D3F8FC2042F08072C3F8FC200120FFF7BF
:10A8A000DDFF084B00225A601A6802431A6000BF9D
:10A8B00000BF00BF5868B0FA80F0400908BD00BF73
:10A8C00000ED00E0001000E008B5FFF7A5FFFFF77E
:10A8D000D9FFFDF75BFEFFF79EFF03F051FE024834
:10A8E000BDE80840FDF714BF2C0200200023C0E99A
:10A8F0000033C0E9023370470023012803F101024D
:10A900000AD11422DBB25343054A181D1044816852
:10A9100029B11A441369184740081346EDE77047F8
:10A92000580400200120FEF73BBA0420FEF738BA95
:10A930000820FEF735BA1020FEF732BA38B50524E4
:10A940002025A8B2FEF72CFA013C4FEA4505F8D1C4
:10A9500038BD38B506244FF48065A8B2FEF720FA5A
:10A96000013C4FEA4505F8D138BD0000344A1721B3
:10A9700008B51046062300F8043BFFF7B7FF07238E
:10A9800002F118001375FFF7B1FF082302F12C0044
:10A9900082F82830FFF7AAFF092302F1400082F86D
:10A9A0003C30FFF7A3FF0A2302F1540082F8503035
:10A9B000FFF79CFF02F1680082F86410FFF796FF32
:10A9C00002F17C0082F87810FFF790FF02F190000E
:10A9D00082F88C10FFF78AFF02F1A40082F8A01021
:10A9E000FFF784FF02F1B80082F8B4102821FFF7C6
:10A9F0007DFF02F1CC0082F8C810FFF777FF02F16B
:10AA0000E00082F8DC10FFF771FF02F1F40082F839
:10AA1000F010FFF76BFF02F5847082F80411FFF766
:10AA200065FF02F58E7082F81811FFF75FFF02F5DF
:10AA3000987082F82C11BDE80840FFF757BF00BF9F
:10AA40005804002038B5054CA4F5A075143C201D11
:10AA5000FFF7EEFBAC42F9D138BD00BF98050020EE
:10AA600091FAA1F3B3FA83F391FAA1F130B55B0047
:10AA70000325B1FA81F1C46805FA03F3490024EA19
:10AA800003038A401A43C26030BD431C04D00C311A
:10AA900051F80C3C5A1C01D100207047834201F14F
:10AAA0000C01F5D101207047F8B5471C06460D464C
:10AAB00000D1FEE700F00F02434BC0F3031053F840
:10AAC0002240FFF77BFD94FAA4F3B3FA83F3032249
:10AAD000876805F007015B0002FA03F394FAA4F219
:10AAE000B2FA82F227EA03070323520093403B4362
:10AAF0008360032903D8DFE801F062032F64FEE7D7
:10AB0000012394FAA4F2B2FA82F20327066801390B
:10AB10005200012907FA02F226EA020694FAA4F288
:10AB2000B2FA82F24FEA420203FA02F343EA060360
:10AB3000036005D843682A074CBF2343A3434360FF
:10AB4000C5F30112012A02D0022A18BF00222146B1
:10AB5000BDE8F840FFF784BFC5F306227F2A01D184
:10AB60000223CEE7360716D5230A4FF00F0C93FACF
:10AB7000A3F6B6FA86F6476A93FAA3F3B600B3FAD9
:10AB800083F30CFA06F69B0027EA060602FA03F3A3
:10AB900033434362E4E794FAA4F3B3FA83F30F2751
:10ABA000066A9B0007FA03F326EA030694FAA4F365
:10ABB000B3FA83F39B009A4032430262D0E700234A
:10ABC0009FE703239DE700BFCC030108431C06D188
:10ABD0007047834202D18968FFF766BF0C310B686A
:10ABE0005A1CF6D1FEE70B685A1C01D100207047B1
:10ABF000834201D1486870470C31F4E7431C01D00F
:10AC0000FFF7F1BF002070474B6813B94FF0FF30DA
:10AC10007047834201D1086870470C31F4E708B1EE
:10AC2000FFF7F2BF4FF0FF30704703460868421C41
:10AC300000D17047984201D1886870470C31F5E720
:10AC4000431C01D0FFF7F1BF7047034608468B4213
:10AC500004D01BB100290CBF18460020704700002B
:10AC60001049D1F8883043F47003C1F888300E4B96
:10AC70001A6842F001021A6000229A601A6822F0F3
:10AC8000847222F480321A60084A5A601A6822F4E8
:10AC900080221A604FF47F02DA604FF000638B600D
:10ACA000704700BF00ED00E0003802401030002483
:10ACB0000438704703688EB0644A934219D102F594
:10ACC0009C32516C41F001015164526C02F001025E
:10ACD0000092009A5E4A934240F09A805D4B5A6C13
:10ACE00042F400325A645B6C03F400330993099B0D
:10ACF0000DE0B3F1804F0CD103F50E331A6C42F026
:10AD000001021A641B6C03F001030193019B0EB056
:10AD10007047514A934218D102F50D32116C41F03F
:10AD200002011164126C02F002020292029A4B4A72
:10AD3000934218D1474B1A6C42F080021A641B6C84
:10AD400003F080030C930C9BE1E7454A934218D132
:10AD500002F50C32116C41F004011164126C02F026
:10AD600004020392039A3F4A9342D0D1394B1A6CA2
:10AD700042F480721A641B6C03F480730D930D9B74
:10AD8000C5E7394A93420AD1324B1A6C42F00802A5
:10AD90001A641B6C03F008030493049BB7E7334A5F
:10ADA00093420AD12B4B1A6C42F010021A641B6CAE
:10ADB00003F010030593059BA9E72D4A93420AD19E
:10ADC000244B1A6C42F020021A641B6C03F020031F
:10ADD0000693069B9BE7274A93420AD11D4B5A6C68
:10ADE00042F002025A645B6C03F002030793079B74
:10ADF0008DE7214A93427FF46DAF164B5A6C42F4B3
:10AE000080325A645B6C03F480330893089B7EE7BE
:10AE10001A4A93420AD10F4B5A6C42F480225A6468
:10AE20005B6C03F480230A930A9B70E7144A9342F5
:10AE30007FF47DAF074B1A6C42F040021A641B6C22
:10AE400003F040030B930B9B61E700BF0000014040
:10AE5000004401400038024000040040001C004053
:10AE60000008004000200040000C0040001000409E
:10AE7000001400400004014000400140004801402F
:10AE80000018004003683F4A934215D13E494A6C7E
:10AE900022F001024A643D4A934243D002F58062A7
:10AEA000934244D002F5806293420DD102F50632FE
:10AEB000136C23F4807306E0B3F1804F05D1324A5E
:10AEC000136C23F0010313647047314A934205D198
:10AED00002F50D32136C23F00203F4E72D4A93427E
:10AEE00005D102F50C32136C23F00403EBE72A4A78
:10AEF000934205D102F50B32136C23F00803E2E70D
:10AF0000264A934205D102F50A32136C23F010034E
:10AF1000D9E7234A93420FD102F50932136C23F08B
:10AF20002003D0E7184A136C23F04003CBE7164AFE
:10AF3000136C23F08003C6E71A4A934206D102F548
:10AF40009A32536C23F0020353647047164A9342BB
:10AF500005D102F57842536C23F48033F4E7134AA9
:10AF6000934205D102F57442536C23F40033EBE7AE
:10AF70000F4A93428FD102F57042536C23F4802321
:10AF8000E2E700BF00000140003802400018004026
:10AF90000004004000080040000C00400010004089
:10AFA0000014004000040140004001400044014002
:10AFB00000480140431C3AD0294B98423AD018D857
:10AFC000A3F54063984237D00BD8A3F500639842AD
:10AFD00034D003F58063984232D0B0F1804F31D045
:10AFE000FEE7204B98422FD003F5806398422DD086
:10AFF000F6E71D4B98422DD00CD8A3F56443984238
:10B0000026D003F56043984226D0A3F564439842C6
:10B0100020D0E5E7154B98421ED003F58063984297
:10B020001CD0A3F500639842DAD1182070476FF066
:10B030000D0070472B207047322070471D2070474D
:10B040001E2070471C2070473620704737207047FD
:10B050002D2070472C207047192070471A20704708
:10B06000001800400010004000040140004401406E
:10B07000431C3AD02B4B98423AD01CD8A3F58053AE
:10B08000984237D00BD8A3F50063984234D003F52B
:10B090008063984232D0B0F1804F31D0FEE7224B2E
:10B0A00098422FD003F5806398422DD0A3F500631A
:10B0B00098422BD0F2E71D4B984229D00CD8A3F52B
:10B0C0008043984226D003F58063984224D0A3F5AC
:10B0D0006443984222D0E1E7154B984220D003F513
:10B0E00080639842DAD11A2070476FF00D007047E4
:10B0F0002C207047322070471D2070471E2070475B
:10B100001C207047372070472B207047362070472F
:10B11000182070471B2070472E2070472D20704745
:10B1200019207047001C00400014004000400140FE
:10B130000044014038B50446FFF7BCFD0068FFF746
:10B1400039FFD4E91312FDF75BFA2068FFF732FFED
:10B15000FDF788FA22681046FFF78AFF0546104679
:10B16000FFF728FF85420BD02846D4E91312FDF7DC
:10B1700047FA2068FFF77CFFBDE83840FDF772BA58
:10B1800038BD00002DE9F04F8BB0044698468A4642
:10B19000149B9146A849D0F894000193FFF72EFD27
:10B1A000A6498346D4F89800FFF728FDA44906462F
:10B1B000D4F89C00FFF722FDA2490546D4F8A00070
:10B1C000FFF71CFD0746BBF1000F00F03181D4F8FA
:10B1D0009820013202D0002E00F02A81D4F89C2061
:10B1E000013202D0002D00F02381D4F8A0200132DA
:10B1F00002D0002F00F01C8131465846FFF725FD94
:10B2000029462060FFF721FD39462060FFF71DFD2C
:10B210002060002800F00C818B4B984253D103F53D
:10B2200094335A6A42F010025A625A6A22F01002AB
:10B230005A625A6C42F010025A645B6C03F01003BD
:10B240000293029B2523A4F8A4307B49D4F89400F0
:10B25000FFF7BCFC26B17949D4F89800FFF7B6FC9B
:10B2600035B14FF480757649D4F89C00FFF7AEFCF9
:10B2700037B1744945F40075D4F8A000FFF7A6FC77
:10B2800094F8A520271D714B012194F9A40043F8DF
:10B29000227000222368C4F80C902262C4E9013AAB
:10B2A000019BC4E904380C23C4E90922C4E906352A
:10B2B000FDF7A6F93846002E40F0B5800BB0BDE88A
:10B2C000F04FFEF7FFBE624B984215D103F5FA33FB
:10B2D0001A6A42F400321A621A6A22F400321A62BE
:10B2E0001A6C42F400321A641B6C03F400330393AB
:10B2F000039B4FF49373A6E7564B984215D103F581
:10B30000F8331A6A42F480221A621A6A22F48022FE
:10B310001A621A6C42F480221A641B6C03F48023B4
:10B320000493049B40F227238DE74B4B984215D1A1
:10B3300003F5F6331A6A42F400221A621A6A22F4FA
:10B3400000221A621A6C42F400221A641B6C03F485
:10B3500000230593059B4FF44D7374E73F4B9842D0
:10B3600015D103F5F4331A6A42F480121A621A6A8C
:10B3700022F480121A621A6C42F480121A641B6C56
:10B3800003F480130693069B40F235435BE7344B8E
:10B39000984215D103F592335A6A42F020025A625C
:10B3A0005A6A22F020025A625A6C42F020025A6411
:10B3B0005B6C03F020030793079B40F2475342E77F
:10B3C000284B984215D103F5E0331A6A42F08042C7
:10B3D0001A621A6A22F080421A621A6C42F08042A3
:10B3E0001A641B6C03F080430893089B40F252637D
:10B3F00029E71D4B98427FF428AF03F5DE331A6A24
:10B4000042F000421A621A6A22F000421A621A6C72
:10B4100042F000421A641B6C03F000430993099B3D
:10B4200040F253730FE70BB0BDE8F04FFEF71CBEC0
:10B430000BB0BDE8F08F00BF8CFF000814FF0008C0
:10B44000CCFE000884FE0008001001409805002092
:10B450000044004000480040004C004000500040C4
:10B460000014014000780040007C004010B4019CB2
:10B4700020B101945DF8044BFFF784BE5DF8044BE6
:10B48000704700000B4A0C4B126813B553F822406A
:10B490000A492046FFF7B2FB48B1002308484FF4A1
:10B4A0001651C0F894401A460093FFF76BFE02B0A5
:10B4B00010BD00BFC8020108040301088CFF00088A
:10B4C0005402002008B5074B90F8A52053F822003D
:10B4D000FEF77FFB00F02200A0F122035842584102
:10B4E00008BD00BF9805002008B5074B90F8A520BF
:10B4F00053F82200FEF76DFB00F02100A0F12103BC
:10B500005842584108BD00BF980500202DE9F0477A
:10B510002C4C06460D46FDF75BF894F8A53007461F
:10B52000072B14D894F8A520274B53F82240A4F1F8
:10B5300004084046FFF7D8FF00283CD14FF47A7347
:10B54000AAB231462046FEF71CFD50B90AE01F4A58
:10B550001F4B12681F4953F822804046FFF74EFBED
:10B5600018BB00252846BDE8F0875AF8233043B9B8
:10B5700094F8A5300133DBB2072B84F8A530F4D959
:10B580000CE049464046FFF739FB94F8A5205AF8ED
:10B5900022301B688342EBD1072AC3D9FFF772FF21
:10B5A00094F8A530072BBDD9DBE70023DFF818A0FE
:10B5B000DFF82090E0E7FDF70BF8C01BB0F57A7FCD
:10B5C000B7D3CEE75402002098050020C802010836
:10B5D000040301088CFF000870B50E46054610B93B
:10B5E0004FF0FF3070BDFFF76DFF04460028F7D124
:10B5F0002946012211F8A63F3370044B95F8A500A7
:10B6000053F82000FEF7ECFD2046EBE798050020FC
:10B6100038B50D460446C0B1FFF754FFA8B994F9F8
:10B62000A400C4F88C50FDF72BF894F8A500074B44
:10B6300004F1A601012253F82000FEF7D1FD94F990
:10B64000A400BDE83840FDF70DB838BD98050020CE
:10B6500038B515460446C8B1C0F8901090F9A4005A
:10B66000FDF70EF8D4F8AC30B4F8B610AAB294F8DE
:10B67000A50013FA81F1064B53F82000FEF71EF8DF
:10B6800094F9A400BDE83840FCF7ECBF38BD00BF1A
:10B690009805002050B1D0F89830013306D190F8C9
:10B6A000A520034B53F82200FEF74BBA704700BFAA
:10B6B0009805002050B1D0F89830013306D190F8A9
:10B6C000A520034B53F82200FEF75FBA704700BF76
:10B6D00098050020D0F8883004381847D0F88C300E
:10B6E0000438184710B5044650F80439DA69D10710
:10B6F0000CD501221A62FFF7E5FEB0B904F1A201F0
:10B7000020460122BDE81040FEF76ABDDA699207C3
:10B7100001D50222EEE7DA69510701D50422E9E7F3
:10B72000DA691207E7D50822E4E710BD08B525203D
:10B73000FCF7DAFF024B1868BDE80840FDF7FABFD6
:10B7400098050020262008B5FCF7CEFF034B58686B
:10B7500018B1BDE80840FDF7EDBF08BD9805002011
:10B76000272008B5FCF7C0FF034B986818B1BDE867
:10B770000840FDF7DFBF08BD9805002008B534205C
:10B78000FCF7B2FF024BD868BDE80840FDF7D2BF16
:10B790009805002008B53520FCF7A6FF024B186974
:10B7A000BDE80840FDF7C6BF9805002008B5472052
:10B7B000FCF79AFF024B5869BDE80840FDF7BABF95
:10B7C0009805002008B55220FCF78EFF024B9869BF
:10B7D000BDE80840FDF7AEBF9805002008B553202E
:10B7E000FCF782FF024BD869BDE80840FDF7A2BF15
:10B7F000980500200A490346086810B50344EFF392
:10B800000882934205D9074B0C224FF0FF301A6093
:10B8100010BD054A054C121B9342F4D20B60F7E7AA
:10B8200010030020540D002000FE0320000400003F
:10B83000FEE70000024B16224FF0FF301A607047FF
:10B84000540D00200120704710B504460846627070
:10B850002170002103F0AEFA207803F04DFB003890
:10B860004FF0000318BF01206372207203F078FBD1
:10B870006060204610BD38B50446007803F03CFBFC
:10B88000031E227A054618BF01239A420DD0237267
:10B8900003F066FB6368C01A6378984202D30DB167
:10B8A0000123637203F05CFB606038BD0346002235
:10B8B000407A5A727047704730B5094A0446BB2334
:10B8C000084D12F8011BAA4283EA010304F8011F84
:10B8D000F7D1054A1278D31A02705842584130BD48
:10B8E000014000081840000800400008BB2300F198
:10B8F000170170B5037086B00446034613F8010FB4
:10B9000022788B4282EA00022270F7D101230222C0
:10B91000013C0E4D0E4E0592CDE9033300230293F8
:10B920000193FDF751F801A902A8FDF707F90023DB
:10B930002946013514F8012F1846FDF78DF8B54258
:10B94000F5D1FDF753F806B070BD00BF0040000808
:10B95000184000084FF4E10205494FF0000CC260A6
:10B96000C0E9011240F2FF32C0E904C2FFF7BEBFD6
:10B970008096980000220270704770B50446084611
:10B9800094F88C10A0F13003DBB219B9092B0BD954
:10B99000084670BD362B30D8A0F13A03062B2CD9BF
:10B9A000A0F14703192B28D904F14705002315F806
:10B9B000016F16B101333F2BF9D19A424FF00002CB
:10B9C0001DDD234404F1480583F8480083F849202D
:10B9D00041B110220021284603F0B8FDC4F88800C8
:10B9E0000121D5E70A22284603F0B0FD94F88C30F7
:10B9F000C4F88800002BF3D0EBE70021C8E711461C
:10BA0000C6E738B500F147020446002312F8011FCB
:10BA100039B101333F2BF9D12344002283F8472069
:10BA200001E0002BF8D194F88C1004F1480539B1ED
:10BA300010220021284603F089FDC4F8880038BD93
:10BA40000A22284603F082FD94F88C30C4F888005E
:10BA5000002BF4D0ECE7000010B50446034803F0D7
:10BA6000CDF863680133636010BD00BF980A002001
:10BA70000EB430B500F1080504460399284603F0DA
:10BA80006FFD29462046FFF7E7FFBDE8304003B0D1
:10BA90007047000038B54468044D142C00DD38BDF3
:10BAA0002846013403F098F8F7E700BF980A002011
:10BAB00070B505464024044E304603F08DF8013C35
:10BAC000FAD16C6070BD00BF980A002070B50446C2
:10BAD000154EFFF7EDFF154D31462046FFF7BCFF31
:10BAE00020461349FFF7B8FF20461249FFF7B4FF7D
:10BAF00029462046FFF7B0FF0023012220460E49C9
:10BB0000FFF7B6FF31462046FFF7A6FF294620463D
:10BB1000FFF7A2FF20460949FFF79EFF2046BDE838
:10BB20007040FFF7B7BF00BF45120108941E01081F
:10BB3000240401083A0401085604010866040108B7
:10BB40000023B9492DE9F04F044687B04360FFF761
:10BB500083FF2278B54B204653F82210FFF77CFF75
:10BB6000B1492046FFF778FF23785A1E142A00F2C5
:10BB70002C84DFE812F01500300095009500950048
:10BB8000E500FF002C012C01AD0122023C025A020B
:10BB900092029D02DA02F002C803E203F3031F04DB
:10BBA000A3492046FFF758FFA2492046FFF754FF5C
:10BBB000A1492046FFF750FFA0492046FFF74CFF60
:10BBC0009F492046FFF748FF9E49204607B0BDE841
:10BBD000F04FFFF741BF96492046FFF73DFF9A49D6
:10BBE00020469A4DFFF738FF934920466427FFF718
:10BBF00033FF0021964801F0D4F80021B0FBF5F6A0
:10BC0000934801F0CEF805FB1603324691492046D1
:10BC1000B3FBF7F3FFF72CFF01218D4801F0C1F8CA
:10BC20000121B0FBF5F68A4801F0BBF805FB1603CD
:10BC3000324689492046B3FBF7F3FFF719FF02218B
:10BC4000834801F0AEF80221B0FBF5F6804801F020
:10BC5000A8F805FB1603324680492046B3FBF7F3EC
:10BC6000FFF706FF72492046FFF7F6FE71492046AE
:10BC7000FFF7F2FE70492046FFF7EEFE78492046B6
:10BC8000FFF7EAFE77492046FFF7E6FE76492046B1
:10BC9000FFF7E2FE68492046FFF7DEFE734994E7AE
:10BCA000042B4AD0052B724B724D0EBF02271D4646
:10BCB00000275F492046FFF7CFFE29462046634D07
:10BCC000FFF7CAFE5C492046FFF7C6FE39466048CA
:10BCD00001F067F839466427B0FBF5F65C4801F0DF
:10BCE00060F805FB1603324663492046B3FBF7F3C1
:10BCF000FFF7BEFED4F88830604920467B43B3FB93
:10BD0000F5F205FB1233B3FBF7F3FFF7B1FE484939
:10BD10002046FFF7A1FE47492046FFF79DFE464912
:10BD20002046FFF799FE56492046FFF795FE5549F4
:10BD30002046FFF791FE544947E7544D0127B8E7E5
:10BD40003B492046FFF788FE3A492046FFF784FE2C
:10BD500039492046FFF780FE4D492046FFF77CFE1B
:10BD60004C492046FFF778FE4B492046FFF774FE0A
:10BD70004A498CE72E492046FFF76EFE484D494957
:10BD80002046FFF769FE2C492046FFF765FE2A6929
:10BD900045492046FFF76CFE6A6944492046FFF793
:10BDA00067FE23492046FFF757FE22492046FFF74A
:10BDB00053FE21492046FFF74FFE3D492046FFF73D
:10BDC0004BFE3C492046FFF747FE3B495FE7092B06
:10BDD000334A1749204615BF384E394E158A958A81
:10BDE000FFF73AFE31462046FFF736FE124920465D
:10BDF000FFF732FE2A4633492046FFF739FED4F8D2
:10BE0000882031492046FFF733FE09492046FFF7D5
:10BE100023FE08492046FFF71FFE07492046FFF78B
:10BE20001BFE2A4984E700BF4512010814030020C5
:10BE3000941E010800050108111201080A050108F5
:10BE400019050108280501083905010840420F00BD
:10BE5000F809002049050108660501088305010865
:10BE6000A0050108B5050108CC050108E305010896
:10BE70008D040108A4040108F10501080A0601085F
:10BE8000230601084006010858060108BE040108FF
:10BE900067060108770601088D0601089D0601085E
:10BEA000E0090020AF060108C1060108DA06010812
:10BEB000F3060108020701081B070108D80401085E
:10BEC000ED04010832070108450701085807010879
:10BED000B34D2046B3494FF00009FFF7BDFDB2490D
:10BEE0002046B24ED5E90423FFF7C2FDB0492046F3
:10BEF000FFF7B2FD0121AF4801F088FCD5E9043518
:10BF000001351FFA83FAED1A2D09ABB20AEB0917B6
:10BF10009945BFB205D30021A64801F077FCA4499A
:10BF20007EE00DF108084FF0000B424607EB0B01D5
:10BF30000BF1010B9F4889B2019201F0D0FA019AEE
:10BF4000BBF1100F02F8010BF0D13A469A49304686
:10BF5000C34602F066FE0027984901371BF8012B03
:10BF6000304602F05EFE082F9449F6D194493046DF
:10BF700002F02EFE914918F807200137304602F0F2
:10BF800050FE102F8D49F6D100278E49304602F021
:10BF90001FFE18F8011B01373046A1F11503692B6C
:10BFA00088BF2E2102F007FC102FF2D17D492046D8
:10BFB00009F10109FFF750FDA7E77A492046FFF78D
:10BFC0004BFD81492046FFF747FD76492046FFF7A4
:10BFD00043FD7E492046FFF73FFD7D492046FFF7A0
:10BFE0003BFD7C492046FFF737FD7B49A0E66D49C4
:10BFF0002046FFF731FDD4F8942022B97749204636
:10C00000FFF72AFD03E076492046FFF731FD654939
:10C010002046FFF721FD6D492046FFF71DFD6C49C5
:10C020002046FFF719FD6F49CFE55E492046FFF72F
:10C0300013FD6D4920466D4EFFF70EFD6C492046FD
:10C040000025FFF709FD57492046DFF80C92FFF75E
:10C0500003FD564F67492046DFF80082FFF7FCFCDE
:10C0600053492046FFF7F8FC0135494638460C365F
:10C070002A4602F0D6FD56F80C1C384602F0A8FD00
:10C0800036F8082C4146384602F0CBFD454920469B
:10C09000FFF7E2FC042DE7D141E742492046FFF7D4
:10C0A000DBFCD4F894300BB15349A8E75349A6E719
:10C0B0003C492046FFF7D0FC3E4D51492046FFF752
:10C0C000CBFC43492046FFF7C7FC6B78BF2B22D13E
:10C0D0004C492046FFF7C0FCAB78B52B0BD14A4941
:10C0E0002046FFF7B9FC49492046FFF7B5FCD4F8D4
:10C0F0009420474988E7B62B05D146492046FFF7EB
:10C10000ABFC4549F0E7B72B09D144492046FFF77E
:10C11000A3FC4349E8E743492046FFF79DFC424919
:10C120002046FFF799FC4149DEE71E492046FFF70C
:10C1300093FC26492046FFF78FFC25492046FFF750
:10C140008BFC3B492046FFF787FC3A492046FFF726
:10C1500083FC39499BE513492046FFF77DFC3749AD
:10C160002046FFF779FC1A492046FFF775FC94F842
:10C170009820002A74D0531E042B0ED8DFE803F059
:10C18000030507090B002E4939E72E4937E72E49E9
:10C1900035E72E4933E72E4931E72E4934E700BF12
:10C1A000E0090020941E010865070108980A002094
:10C1B00081070108EC060020CC070108D40701081C
:10C1C000DB070108DA070108E60701080005010896
:10C1D000111201080F08010831080108560801086A
:10C1E0006E080108DD0701089C0801088412010897
:10C1F000BE080108F1080108110901083B090108FE
:10C200007A060108650901087D09010897090108F6
:10C21000690A0108B6090108D0090108EF090108F7
:10C22000080A0108530A0108270A01083D0A010803
:10C23000800A0108950A0108A50A0108B60A010842
:10C24000D20A0108F60A01082B0B0108640B010849
:10C25000990B0108CC0B0108900C01080509010895
:10C2600094F89950002D7FF4D2AE59492046FFF73B
:10C27000F3FB94F89A300BB95649C0E6564920466C
:10C28000FFF7EAFB264655492046DFF8AC91FFF759
:10C29000E3FB534F2046DFF8A4A15249FFF7DCFB34
:10C2A0000135494638462A4602F0BBFCD6F8A08044
:10C2B000B8F1000F22D0D6F89C2038464A4902F047
:10C2C000B0FCC8F3CB23D6F8A0203846474902F08B
:10C2D000A8FC96F8A4204649384602F0A2FC96F83D
:10C2E000A5204449384602F09CFC3B492046FFF714
:10C2F000B3FB042D06F10C06D2D188E65146384630
:10C3000002F066FCF1E734492046FFF7A5FB3A4905
:10C310002046FFF7A1FB39492046FFF79DFB2E4938
:10C320002046FFF799FB36492046FFF795FB2D493C
:10C330002046FFF791FB3349FAE427492046FFF7EF
:10C340008BFB94F8CC300BB92F4958E62F49204687
:10C35000FFF782FB94F8CC202D4955E620461E4974
:10C36000FFF77AFB20462B49FFF776FB20462A4948
:10C37000FFF772FB20461849FFF76EFB204627495E
:10C38000FFF76AFB20462649FFF766FB0122254995
:10C39000134802F046FC2449114802F019FC40F20F
:10C3A000672222490E4802F03CFC0B492046FFF769
:10C3B00053FBB4E508492046FFF74EFB94F8CC3018
:10C3C0000BB91B491BE61B49C1E707B0BDE8F08F5D
:10C3D000080C0108280C0108941E01086D0C0108C6
:10C3E000980A002011120108960C0108A20C0108FD
:10C3F000B70C0108C40C0108DC0C0108000D010891
:10C40000000501083D0D01084D0D01086D0D0108E5
:10C410009E0D0108B10D0108D90D0108F1080108B0
:10C4200081070108900C01080C0E0108050901089C
:10C43000350E0108520E0108860C0108D30C0108C4
:10C4400070B50C46017890B00546152942D8DFE852
:10C4500011F04901160024003800380038008F0020
:10C46000B200CA00CA00EC00EF00C5001201C5000E
:10C47000C50021014B014D014B0166014B01312CDF
:10C4800002D102232B7025E0322C01D10623F9E7DB
:10C49000332C40F0A6801023F4E70023312C80F8E1
:10C4A000483080F88C30C0F8883001D10323E9E7A8
:10C4B000322C01D10423E5E7332C40F01081052311
:10C4C000E0E71B2CDDD0082C01D07F2C0ED12846B4
:10C4D000FFF797FA2846FFF7EBFA2846FFF730FBFD
:10C4E000284610B0BDE87040FFF7D4BA0A2C03D03C
:10C4F0000D2C01D02B2C33D1D5F8882064260123B4
:10C50000042906FB02F201931DD005290ED000215B
:10C510008F48009100F0E0FC2B2CB2D1D5F8883088
:10C520008C4873434360FFF7E1F9AAE7022188488A
:10C53000009300F0D1FC2B2CA3D1D5F8883085488E
:10C540007343C360EFE719468148009300F0C4FCD1
:10C550002B2C96D1D5F888307E4873438360E2E770
:10C56000062221462846FFF708FA002839D0B1E70D
:10C57000312C01D1072385E7323C072C31D8DFE885
:10C5800004F004161830303030B10121724801F047
:10C590003DF9714801F09AF86F4801F025F9002142
:10C5A000C5F894006C4801F031F90F236AE70B23BA
:10C5B00068E70D2366E70123312C80F88C304FF0BB
:10C5C000000380F8483001D10A235BE7322C01D107
:10C5D000082357E7332C01D1092353E7392C3FF4C3
:10C5E00055AF10B070BD1B2CC4D0082C3FF46FAFFA
:10C5F0007F2C3FF46CAF0A2C01D00D2C13D1D5F851
:10C6000088300829534A0CBF23F00F039BB25148CE
:10C610000BBF1B0443F00F031B0C536108BF1361D6
:10C62000FFF764F9A6E704229BE7392CD9D1A1E7EB
:10C630001B2C3FF42BAF0A2C01D00D2C11D14648F6
:10C64000012101F0E3F8444800F0C2FF424801F044
:10C65000CBF80021C5F894003F4801F0D7F80C232F
:10C6600010E72B2CBDD101213B4801F0CFF83A480F
:10C6700000F0E9FFEAE7392C3FF408AFA4F13101FB
:10C68000C9B20329ADD8344801F0DAF80E23C5F851
:10C690009400F7E6312C1AD1012200212F4802AC78
:10C6A00001F012FD2E4902A805F1980601F066FC82
:10C6B0000FCC0FC60FCC0FC60FCC0FC600222368BD
:10C6C00026483360114601F0FFFC1123DAE6322CD4
:10C6D00001D11223D6E6332C01D11423D2E6392C12
:10C6E0007FF47FAF0123CDE6392CD2E61B2C3FF43B
:10C6F000D2AE0A2C02D00D2C7FF473AF01220021A0
:10C70000164801F0E1FC164801F0F4FB002285F820
:10C71000CC001146114801F0D7FC1323B2E6392CA6
:10C720003FF4B9AE312C7FF45CAF012200210B48FD
:10C7300001F0CAFC00220A48114601F06FFB0022FA
:10C7400085F8CC001146054801F0BEFC152399E69A
:10C75000F8090020E0090020EC0600200C09002068
:10C76000F006002013B50446C0F801109A3000F01E
:10C77000F3F804F1E60000F0EFF8012320462370FF
:10C7800002B010BD10B50446013069B1012101F0BD
:10C790003DF8002304F19A002370A38100F027FAEA
:10C7A00002F0DEFBA06010BD01F030F80123237021
:10C7B000F9E738B5057804467DB983686BB102F0B6
:10C7C000CFFBA368C01A42F21073984205D92946DC
:10C7D0002046BDE83840FFF7D5BF38BD2DE9FF4101
:10C7E00004469A3000F0E8F801281CD0022817D13E
:10C7F000E02304F1E6050E3400228DF80F3001230A
:10C80000AA21284600930DF10F0300F0A6F8214657
:10C81000284600F099F9214602464E4802F026F8D3
:10C8200004B0BDE8F081B4F89C104FF2AA02914226
:10C8300017D1A12204F1E60504F10E060DF10F0354
:10C84000AA218DF80F2000900022284600F085F8DC
:10C850003146284600F078F9314602463D4802F05C
:10C8600005F894F89C30002B39D102F079FBA389AC
:10C87000A06013B9601C00F0ABFEA38904F19C0713
:10C88000002504F1010801333E46A38194F8DD3010
:10C89000AB4245DC0126002504EB060894F8DD30A8
:10C8A000AB4248DC002E04F1E60504F10E064FF021
:10C8B00000020CBFE123A123AA2128468DF80F30E6
:10C8C000012300930DF10F0300F047F8314628468D
:10C8D00000F03AF9314602461E4801F0C7FF94F8CD
:10C8E0009C30012B9CD104F1E606A12204F10E0537
:10C8F000009330460DF10F038DF80F20AA2100227E
:10C9000000F02BF82946304600F01EF92946024671
:10C91000104801F0ABFF00212046FFF733FF7FE70F
:10C92000B4F89A10404616F8012F2944013589B20F
:10C9300000F010FEAAE7B4F89A10404629440135E9
:10C9400089B200F0CCFD17F8013F834218BF0026E2
:10C95000A4E700BF980A0020704710B59DF8084072
:10C96000023020F8022C0022017080F841409442ED
:10C9700000DC10BD995C013200F8011FF7E70346A7
:10C980006FF0460210B5D21A00F1470400201319C7
:10C99000994200DC10BD14F8013F602B04D9573BCD
:10C9A000DBB203EB0010F2E7402B01D9373BF7E78E
:10C9B0002F2BF6D9303BF3E790F8452038B50446E5
:10C9C0000B46052A2ED8DFE802F0030E2F4C688CA8
:10C9D0003A2B06D14FF48073A0F84430002380F83E
:10C9E0004630002038BD90F84620511C0244C9B2A0
:10C9F000022980F8461082F84830F2D1002580F8EC
:10CA00004650FFF7BCFF94F84430C0B203444028BE
:10CA100084F8430084F8443002D884F84510E0E7F5
:10CA200084F845500220DDE790F84620511C02446E
:10CA3000C9B2042980F8461082F84830D1D10023C9
:10CA400080F84630FFF79BFF94F8443082B21844D8
:10CA50000323228000EB122084F8440084F8453040
:10CA6000BFE790F84620511C0244C9B2022980F861
:10CA7000461082F84830B4D10023A0F84630FFF7C2
:10CA80007EFF94F84430C0B2A070184494F843304C
:10CA900084F844001BB30423E0E790F84620511CBF
:10CAA0000244C9B2022980F8461082F8483098D171
:10CAB000002380F84630FFF762FF94F8443094F882
:10CAC000472053FA80F384F84430531C2244DBB2ED
:10CAD00084F84730D07094F843209A4281D10523DE
:10CAE000BCE790F84620511C0244C9B2022980F8E4
:10CAF000461082F848307FF474AFFFF740FF94F897
:10CB00004430C0B200225B4284F84520DBB283424D
:10CB100084F8443086D1012064E7581E02EB4303B9
:10CB2000C00030B5F025854004309A4200D130BDB8
:10CB300001EA05042D09C4400438092C8CBF3734A0
:10CB4000303402F8014BF0E7F8B50A463A230025E5
:10CB500004460F4680F84450264602F8013B012364
:10CB600090F84310FFF7D9FF94F8443094F843202D
:10CB7000204621881344FA1C84F844300223FFF72E
:10CB8000CCFF228894F844302046A178134403EB6C
:10CB90001223FA1D093784F844300123FFF7BDFF43
:10CBA00094F8443016F8022F1344DBB294F8431083
:10CBB0003A4684F844300237A9420BDC59422046F9
:10CBC0000123C9B284F84410FFF7A7FF68000B30B7
:10CBD000C0B2F8BD16F8011F012320460135FFF74A
:10CBE0009CFF94F8443032781344DBB2DEE7002334
:10CBF00080F84530704738B5044600250846217056
:10CC00000121657002F0D6F82078294602F03CF93F
:10CC1000204638BD70B50446164600780D4619B951
:10CC200002F032F9657070BD01211AB902F02CF9D9
:10CC30006670F8E702F028F90123A680658063702A
:10CC400002F08EF9A060EEE710B543780446012BA0
:10CC50000FD102F085F9A368C01A6388984208D3FF
:10CC60000021207802F010F90223637002F078F9B5
:10CC7000A0606378022B0FD102F072F9A368C01A8A
:10CC8000A388984208D30121207802F0FDF80123FF
:10CC9000637002F065F9A06010BDF8B504460D465A
:10CCA00017461E4614F8441B4900204601F0FE01B9
:10CCB00000F03AFB29460025204600F0B5FAB542BF
:10CCC00005DB0121204600F035FA0120F8BD795D31
:10CCD0002046013500F0A8FAF1E738B504461D46B4
:10CCE000443000F0F5F92046257038BD07EE902A53
:10CCF00007EE101AF8EE677AB8EE477AF8B5C7EE85
:10CD0000276A0546FCEEE67A16EE900A17EE904A80
:10CD1000FBF7DAFA06460F462046E401FBF7B2FAC3
:10CD200002460B4630463946A4F50074FBF76CF911
:10CD3000FBF722FB9FED0A7A07EE900A094967EE9E
:10CD4000877AFCEEE77A17EE903ADB01B3FBF1F25B
:10CD50001444C2EB02529B1A6C61C5E90631F8BD5E
:10CD6000F0FF7F49FFFF0F00C369024670B41C0A41
:10CD700083701B0B066A44700132C48A23F00F03D0
:10CD8000858A04F00304837183696DBA44EA06144A
:10CD90000372C4701C0A85800823C47170BCFFF73D
:10CDA0007CBF00EB8100406A7047322344308382AD
:10CDB00000F020BA102B01D8FFF76FBF002070479A
:10CDC000102B2DE9F0410746884616461D462ED801
:10CDD0000446013D14F8441B4900204601F0FE01C1
:10CDE00000F0A2FA4146204600F01EFA012120463A
:10CDF00000F0A0F939780027204649000131C9B276
:10CE000000F092FAAF420BDB00227119204600F0CD
:10CE1000B9FA0121204600F08DF90120BDE8F0812A
:10CE2000F11901222046013700F0ACFAEAE70020B0
:10CE3000F4E707B501238DF807200DF10702FFF78E
:10CE40002CFF03B05DF804FB70B504460525FFF721
:10CE5000ACFF661C0123324600212046FFF7B0FFDD
:10CE600094F90130002B26DBFF2203212046FFF737
:10CE7000E0FF4FF08F3332461021C4F801302046D6
:10CE800073600823FFF796FF00220F212046FFF76B
:10CE9000D0FF00234FF420621A212046C4E9052365
:10CEA0000A4AC4E90723FFF75FFF22212046FFF764
:10CEB0005BFF012070BD0A2002F056F8013DC9D188
:10CEC0000349044801F09AFE2846F3E7FFFF0F00EC
:10CED0005C1D0108980A002007292DE9F347044644
:10CEE0000E4615469DF82C9007D93249324801F07C
:10CEF00085FE002002B0BDE8F0879DF82820012AB9
:10CF000001D92E49F2E75F1E3B0601D52C49EDE71A
:10CF10002C4A954204D92C49274801F082FEE8E7C3
:10CF20002A4B9D4202D82A4A2A49F5E74FF00108C8
:10CF300001230DF107020321FFF742FF08FA06F86B
:10CF40009DF8072006F1100A0321204642EA080254
:10CF50005FFA8AFAD2B28DF80720FFF76AFF8F22B4
:10CF600051462046FFF765FFB9F1000F20D02A4651
:10CF700019492046FFF7BAFE2046F10027622A3100
:10CF800001F0FE01FFF7F0FE9DF807200321204687
:10CF900022EA08028DF80720FFF74BFF0F225146C7
:10CFA0002046FFF746FF04EB860401206562A1E7F7
:10CFB0004D46F8E77A1D0108980A0020AC1D0108CB
:10CFC000DA1D0108C06878040C1E010867780400A7
:10CFD00068780400511E01080046C32300207047F2
:10CFE0007047827F407F101A704710B590F8253047
:10CFF00090F824209A428BBF026A01235C1C436094
:10D0000091BF002080F825400120D15410BDF8B513
:10D0100005460C468F180026BC4201D13046F8BDAB
:10D020002B68284614F8011B1B6898470644F3E751
:10D03000437F827F9A4281BF8269591C4177D05CCD
:10D0400098BF4FF0FF307047827F437F9A4286BF80
:10D050008269D05C4FF0FF30704710B5047C00212E
:10D06000204601F011FF20460121BDE8104001F0EB
:10D07000A1BE10B5447C0021204601F005FF2046EA
:10D080000121BDE8104001F095BE817C007C01F0DB
:10D0900091BE817C407C01F08DBE08B5007C01F022
:10D0A0002BFFC0B208BD08B5407C01F025FFC0B21F
:10D0B00008BD037A10B5044633B901F053FF636825
:10D0C000C01AC043C00F10BD01F04AFFF7E70000CF
:10D0D00042744FF4206201744282642230B582822D
:10D0E00000244FF000624FF47A758461848480F8E4
:10D0F0002640C0E90724084A8262084AC262084AF8
:10D100000263084A4263084AC0E901458263074D49
:10D11000074A0560C26330BD5BD000088BD00008B1
:10D1200073D0000893D000089BD00008A01E01080F
:10D13000A7D00008F0B5838A85B004460E46019357
:10D140000123294D8DF80C3001F00AFF019B274F78
:10D15000034420460293002384F82630236B98472B
:10D16000234A2B687968B3FBF2F3E27C53437A6875
:10D17000521A9342FBDCA36A204698471C4A2B684C
:10D1800079681A48B3FBF2F3E27C53434268521ABF
:10D190009342FBDC3EB101A9204600F02EF828B9ED
:10D1A000022005B0F0BD636B20469847104A2B68FB
:10D1B0000E4EB3FBF2F3E27C716853437268521A6D
:10D1C0009342FBDCE36A20469847094A2B68716862
:10D1D0000648B3FBF2F3E27C53434268521A93428F
:10D1E000FBDC0020DDE700BF50020020001000E063
:10D1F00040420F000121FFF79DBF70B5436B05460C
:10D200000E469847EB6B28469847044608B1012024
:10D2100009E03046FFF74DFF0028F3D021462846AD
:10D22000FFF788FF204670BD2DE9FF41868A012364
:10D2300004460D46019608278DF80C3001F090FE4B
:10D240000644DFF8E0800296344E236B2046984770
:10D250002B0620464CBFE36AA36A9847304AD8F8A9
:10D2600000307168B3FBF2F3E27C53437268521AE8
:10D270009342FBDC01A92046FFF7BFFFA8B1284A73
:10D28000D8F800307168B3FBF2F3E27C5343726864
:10D29000521A9342FBDC6D0001A8EDB2FFF709FFC3
:10D2A00040B101212046FFF745FF0225284604B082
:10D2B000BDE8F081013F17F0FF07C6D1236B204680
:10D2C0009847E36A20469847154AD8F800307168B5
:10D2D000124EB3FBF2F3E27C53437268521A93424C
:10D2E000FBDC01A92046FFF788FF0028DDD0A36BF7
:10D2F000204698470A4AD8F80030051E716818BFC2
:10D3000001250648B3FBF2F3E27C53434268521A0C
:10D310009342FBDC236B20469847C7E7001000E0F0
:10D3200040420F0050020020F8B5134F0446836AB4
:10D330000D469847114A3B68114EB3FBF2F3E27C6D
:10D34000716853437268521A9342FBDC236B204688
:10D3500098470A4A3B6871680948B3FBF2F3E27CDC
:10D3600053434268521A9342FBDC29462046BDE8EB
:10D37000F840FFF759BF00BF5002002040420F00A5
:10D38000001000E000232DE9F0430B7085B0858A82
:10D39000012304460E46019591468DF80C3001F0AC
:10D3A000DFFD0544DFF82481464F029508253378D8
:10D3B00020465B003370236B9847E36A204698470A
:10D3C000414A3B68D8F80410B3FBF2F3E27C5343C4
:10D3D000D8F80420521A9342FADC01A92046FFF73C
:10D3E0000CFF002860D0384A3B68D8F80410B3FB23
:10D3F000F2F3E27C5343D8F80420521A9342FADC49
:10D40000E36B20469847002845D0A36B20469847F9
:10D4100018B1337843F001033370013D15F0FF0577
:10D42000C5D1236B20469847B9F1000F41D0A36ABC
:10D430002046264E9847244A3B687168B3FBF2F3B6
:10D44000E27C53437268521A9342FBDC01A92046E6
:10D45000FFF7D3FE40B31C4A3B6871681B48B3FB1F
:10D46000F2F3E27C53434268521A9342FBDCE36BD3
:10D4700020469847F8B1144A3B681449B3FBF2F3CD
:10D48000E27C486853434A68121A9342FBDC236BE0
:10D490002046984709E001A8FFF70BFE0028AFD00F
:10D4A00001212046FFF746FE0225284605B0BDE8CB
:10D4B000F083E36ABCE701A8FFF7FBFD0028D6D0A4
:10D4C000EEE700BF5002002040420F00001000E0D5
:10D4D0000122C1700270002242708270704738B51C
:10D4E0000578EDB9C41C204600F064FE2A460221EE
:10D4F000204600F0E9FD2A460321204600F0E4FD25
:10D50000204600F06FFE012203210546204600F070
:10D51000DBFD01220221204600F0D6FD284638BD61
:10D52000FF25FBE738B5C41C0D461146204600F028
:10D530001FFE2946204600F03DFE20460022042121
:10D5400000F0C2FD204601220421BDE8384000F071
:10D55000BBBD0000F8B51746027804460E4682BBF4
:10D56000C51C0221284600F0AFFDAA2245F2555104
:10D570002046FFF7D7FF552242F6AA212046FFF7A3
:10D58000D1FFA02245F255512046FFF7CBFF3A4686
:10D5900031462046FFF7C6FF01220221284600F04F
:10D5A00093FD284600F02AFE064B074A1B680749F0
:10D5B000B3FBF2F31922486853434A68121A9342A4
:10D5C000FBDCF8BD5002002040420F00001000E0DC
:10D5D000027838B50446AABBC51C0221284600F0D3
:10D5E00073FD2046AA2245F25551FFF79BFF2046C6
:10D5F000552242F6AA21FFF795FF2046802245F2E8
:10D600005551FFF78FFF2046AA2245F25551FFF7EB
:10D6100089FF2046552242F6AA21FFF783FF2046C4
:10D62000102245F25551FFF77DFF284601220221C5
:10D6300000F04AFD284600F0E1FD6420BDE83840D6
:10D6400001F092BC38BD70B505780446EDBBC61C30
:10D650002A460221304600F037FDAA2245F25551F4
:10D660002046FFF75FFF552242F6AA212046FFF72A
:10D6700059FF802245F255512046FFF753FFAA2259
:10D6800045F255512046FFF74DFF552242F6AA219B
:10D690002046FFF747FF302229032046013501F4D9
:10D6A0007041FFF73FFF192001F05EFC102DD4D12F
:10D6B00030460122022100F007FD304600F09EFDB9
:10D6C0006420BDE8704001F04FBC70BD0278F8B531
:10D6D0000446002A40F08180C51C02213F4E2846A6
:10D6E0003F4F00F0F1FCAA2245F255512046FFF7CA
:10D6F00019FF552242F6AA212046FFF713FF902278
:10D7000045F255512046FFF70DFF364A33687968D8
:10D71000B3FBF2F30A2253437A68521A9342FBDCBA
:10D72000284600F06BFD00220321284600F0CCFCC7
:10D730000021284600F03EFD2A4A33687968284FC8
:10D74000B3FBF2F30A2253437A68521A9342FBDC8A
:10D75000284600F047FD01216070284600F02AFDB0
:10D76000204A336879681E4FB3FBF2F30A22534311
:10D770007A68521A9342FBDC284600F033FD0122FE
:10D780000321A070284600F09FFCAA2245F25551C3
:10D790002046FFF7C7FE552242F6AA212046FFF792
:10D7A000C1FEF02245F255512046FFF7BBFE0D4A5F
:10D7B000336879680A48B3FBF2F30A22534342689C
:10D7C000521A9342FBDC28460122022100F07CFC25
:10D7D0002846BDE8F84000F011BDF8BD5002002019
:10D7E000001000E040420F0038B5037805465BB9F1
:10D7F0004FF6FF74A1B22846FFF771FEFF2801D053
:10D80000601C38BD013CF5D10020FAE770B5C51C9D
:10D8100004460E46284649B100F07AFD0122002157
:10D82000284600F051FC0023237070BD00F052FD2B
:10D8300032463146284600F047FC0123F4E7000059
:10D840002DE9F843C51C04460F461D4E28464FF0EF
:10D850000C0800F05DFD284600250122002108FB90
:10D86000076800F031FC20462570FFF7ECFEB8F8A1
:10D870000490A9450ED80C2300254FF0010803FBA6
:10D880000766A9450FD120460021FFF7BFFF40469C
:10D89000BDE8F883D8F80830A9B220465A5D0135B2
:10D8A000FFF758FEE3E7A9B22046FFF718FEB3687A
:10D8B0005B5D0135834218BF4FF00008E1E700BF10
:10D8C000C41E010810B586B072B602224FF40413CC
:10D8D000002401A91148CDE901230323CDE9034325
:10D8E000FBF77AF90720FAF7BDFE2246214607200A
:10D8F000FAF786FE224601214FF0FF30FAF780FE4C
