:020000040800F2
:1000000000000120AD500008FD500008FD50000820
:10001000FD500008FD500008FD50000800000000E1
:10002000000000000000000000000000FD5000087B
:10003000FD50000800000000FD5000083B260008AD
:10004000FD500008FD500008FD500008FD5000085C
:10005000FD500008FD500008ED270008F3270008B8
:10006000F9270008FF27000805280008FD500008B0
:10007000FD500008FD500008FD500008FD5000082C
:10008000FD500008FD500008FD500008FD5000081C
:10009000FD500008FD500008FD5000080B28000826
:1000A0008523000811230008FD50000835230008AF
:1000B000492300080000000000000000FD50000877
:1000C000FD500008FD500008FD500008FD500008DC
:1000D000FD500008553400086D34000889340008CC
:1000E00021280008FD50000800000000000000006A
:1000F0000000000000000000000000000000000000
:1001000000000000FD50000800000000FD50000845
:1001100000000000000000005D23000871230008BB
:10012000FD500008FD500008FD500008FD5000087B
:10013000FD5000080000000000000000000000006A
:10014000FD500008FD500008FD500008FD5000085B
:10015000FD500008FD500008A5340008FD500008BF
:10016000FD500008FD500008FD5000080000000090
:10017000FD500008FD500008FD5000080000000080
:0C018000FD500008FD500008FD50000874
:1001900081F0004102E000BF83F0004330B54FEA38
:1001A00041044FEA430594EA050F08BF90EA020FA5
:1001B0001FBF54EA000C55EA020C7FEA645C7FEA38
:1001C000655C00F0E2804FEA5454D4EB5555B8BF5B
:1001D0006D420CDD2C4480EA020281EA030382EACC
:1001E000000083EA010180EA020281EA0303362D5E
:1001F00088BF30BD11F0004F4FEA01314FF4801C31
:100200004CEA113102D0404261EB410113F0004F42
:100210004FEA03334CEA133302D0524263EB4303F9
:1002200094EA050F00F0A780A4F10104D5F1200E97
:100230000DDB02FA0EFC22FA05F2801841F10001F2
:1002400003FA0EF2801843FA05F359410EE0A5F1C6
:1002500020050EF1200E012A03FA0EFC28BF4CF0F7
:10026000020C43FA05F3C01851EBE37101F00045AD
:1002700007D54FF0000EDCF1000C7EEB00006EEBBA
:100280000101B1F5801F1BD3B1F5001F0CD3490844
:100290005FEA30004FEA3C0C04F101044FEA44529B
:1002A00012F5800F80F09A80BCF1004F08BF5FEA22
:1002B000500C50F1000041EB045141EA050130BD02
:1002C0005FEA4C0C404141EB0101013C28BFB1F514
:1002D000801FE9D291F0000F04BF01460020B1FA5F
:1002E00081F308BF2033A3F10B03B3F120020CDA32
:1002F0000C3208DD02F1140CC2F10C0201FA0CF010
:1003000021FA02F10CE002F11402D8BFC2F1200C74
:1003100001FA02F120FA0CFCDCBF41EA0C0190402A
:10032000E41AA2BF01EB0451294330BD6FEA040473
:100330001F3C1CDA0C340EDC04F11404C4F120025E
:1003400020FA04F001FA02F340EA030021FA04F370
:1003500045EA030130BDC4F10C04C4F1200220FAC7
:1003600002F001FA04F340EA0300294630BD21FA05
:1003700004F0294630BD94F0000F83F4801306BFCB
:1003800081F480110134013D4EE77FEA645C18BFBF
:100390007FEA655C29D094EA050F08BF90EA020F56
:1003A00005D054EA000C04BF1946104630BD91EA4E
:1003B000030F1EBF0021002030BD5FEA545C05D151
:1003C0004000494128BF41F0004130BD14F5800490
:1003D0003CBF01F5801130BD01F0004545F0FE4104
:1003E00041F470014FF0000030BD7FEA645C1ABF39
:1003F000194610467FEA655C1CBF0B46024650EA70
:10040000013406BF52EA033591EA030F41F400219B
:1004100030BD00BF90F0000F04BF0021704730B521
:100420004FF4806404F132044FF000054FF00001F6
:1004300050E700BF90F0000F04BF0021704730B5B7
:100440004FF4806404F1320410F0004548BF40428C
:100450004FF000013EE700BF42004FEAE2014FEAE1
:1004600031014FEA02701FBF12F07F4393F07F4FBC
:1004700081F06051704732F07F4208BF704793F0BF
:100480007F4F04BF41F40021704730B54FF46074D2
:1004900001F0004521F000411CE700BF50EA0102D5
:1004A00008BF704730B54FF000050AE050EA01027E
:1004B00008BF704730B511F0004502D5404261EBEE
:1004C00041014FF4806404F132045FEA915C3FF42F
:1004D000D8AE4FF003025FEADC0C18BF03325FEACC
:1004E000DC0C18BF033202EBDC02C2F1200300FA7D
:1004F00003FC20FA02F001FA03FE40EA0E0021FAA2
:1005000002F11444BDE600BF4FEA4102B2F1E043FC
:1005100024BFB3F5001CDCF1FE5C0DD901F0004CEA
:100520004FEAC0024CEA5070B2F1004F40EB83003A
:1005300008BF20F00100704711F0804F21D113F166
:100540003872BCBF01F00040704741F480114FEA9F
:100550005252C2F11802C2F1200C10FA0CF320FA28
:1005600002F018BF40F001004FEAC1234FEAD32345
:1005700003FA0CFC40EA0C0023FA02F34FEA4303AF
:10058000CCE77FEA625307D150EA01331EBF4FF038
:10059000FE4040F44000704701F0004040F0FE4053
:1005A00040F40000704700BF53B94AB9002908BFA2
:1005B00000281CBF4FF0FF314FF0FF3000F00CB8A7
:1005C000ADF1080C6DE904CE04F094FEDDF804E012
:1005D000DDE9022304B07047704700BF034613F8FB
:1005E000012B002AFBD1181A0138704700000000C7
:1005F00001F0FF01102A2BDB10F0070F08D010F8D4
:10060000013B013A8B422DD010F0070F42B3F6D1D7
:10061000F0B441EA012141EA014122F007047FF0F0
:1006200000070023F0E80256083C85EA010586EA47
:10063000010685FA47F5A3FA87F586FA47F6A5FA83
:1006400087F68EB9EED1F0BC01F0FF0102F007028F
:1006500032B110F8013B013A83EA010313B1F8D13A
:100660000020704701387047002D06BF354603381B
:10067000073815F0010F07D1013015F4807F02BF54
:10068000013015F4C03F0130F0BC0138704700BFA5
:1006900010B5054C237833B9044B13B10448AFF3BC
:1006A00000800123237010BD5401002000000000D1
:1006B0005C60000808B5034B1BB103490348AFF366
:1006C000008008BD00000000580100205C600008A8
:1006D0007047000038B50F4B1A7805460AB901205B
:1006E00038BD4FF47A73B3FBF2F30B4A1068B0FBDA
:1006F000F3F000F09BF804460028F0D10F2DEED85F
:10070000024629464FF0FF3000F03EF8034B2046EA
:100710001D60E5E7000000204400002004000020E8
:1007200010B5032000F01EF80020FFF7D3FF0446A9
:1007300018B9FFF7CDFF204610BD0124FBE70000EC
:10074000034A044B11681B780B441360704700BFC9
:100750007001002000000020014B1868704700BFA6
:10076000700100200749CA6822F4E0620302120403
:1007700003F4E063120C134343F0BF6343F400330C
:10078000CB60704700ED00E0164B30B5DC68C4F379
:100790000224C4F10703251D042B28BF0423062DC2
:1007A0004FF0FF358CBF033C002405FA03F321EA28
:1007B0000303A54022EA0502A340002843EA0203FE
:1007C000ACBF00F16040084A4FEA0313B8BF00F025
:1007D0000F00DBB2AABF00F56140135480F800336C
:1007E00030BD00BF00ED00E014ED00E0002807DBA5
:1007F000044A4109012300F01F00834042F82130E0
:10080000704700BF00E100E000280CDB4309064907
:1008100000F01F0020330122824041F82320BFF363
:100820004F8FBFF36F8F704700E100E00138B0F1E8
:10083000807F0BD24FF0E023054A5861F02182F807
:1008400023100020072298611A6170470120704729
:1008500000ED00E0002808DB4309044900F01F0018
:1008600001226033824041F82320704700E100E01C
:10087000704708B5FFF7FCFF08BD704710B5044688
:1008800008B9012010BD437F03F0FF0213B90277BE
:10089000FFF7F3FF022363772379E3B92368134A51
:1008A0005A619A6822F018029A6062792368D2B974
:1008B0004FF0FF321A619A68616922F060020A43C0
:1008C0009A609A68A16922F080020A439A60012323
:1008D00063770020D6E7D4E90212204600F008F83A
:1008E0000028E2D0CDE72269E4E700BFB71DC104CC
:1008F00010B51F23013B1CD321FA03F4E407F9D5FB
:10090000102A12D004D83AB1082A10D001200BE0E6
:10091000182AFBD1062BF9D800684161836823F0BF
:10092000180313438360002010BD072BF3E70F2B40
:10093000F1E7102AEAD0E9D8002AE7D1ECE710B5B0
:10094000044640B10223037101F0F2FD0020206152
:100950006071207110BD0120FCE710B50468012210
:10096000236801F0100102FA01F123EA0103236078
:100970000271002010BD90F82520022A034606D0FF
:100980000422C2630120002283F8242070470268F9
:10099000116821F00E011160116821F00101116050
:1009A000D0E91002012102F01C0201FA02F24260B9
:1009B00083F825100020E6E710B590F82520022ADC
:1009C00003D00422C263012010BD0268836B11684A
:1009D00021F00E011160116821F001011160D0E9D0
:1009E0001042012102F01C0201FA02F262600022B0
:1009F00080F8251080F8242003B198470020E3E711
:100A0000044A5169014208B502D0506101F0D8FE94
:100A100008BD00BF00040140024A136843F480731C
:100A20001360704700700040024B186800F4C0600B
:100A3000704700BF00700040174A1368B0F5007F90
:100A400003F4C0631BD1B3F5007F1BD0136823F4FC
:100A5000C06343F400731360104B1B6832214B4397
:100A60000F49B3FBF1F301335169490500D523B9AF
:100A700053695B0506D503207047013BF4E7B3F5E6
:100A8000806F01D100207047136823F4C06343F4E2
:100A900080631360F6E700BF007000404400002050
:100AA00040420F0037B51E4DAB6DDA00044618D535
:100AB000FFF7BAFFB0F5007F23D1802C29D9A12CF4
:100AC00034BF0124022417490A6822F00702224396
:100AD0000A60086800F00700001B18BF012003B07F
:100AE00030BDAB6D43F08053AB65AB6D03F080530D
:100AF0000193019BFFF798FFAB6D23F08053AB652B
:100B0000D8E7802C07D808D0A4F170035C425C4180
:100B1000D9E70024D7E70324D5E70224D3E700BFB1
:100B20000010024000200240224B9A68D96812F05F
:100B30000C0205D00C2A15D101F00301012918D1AE
:100B400019681D48090755BFD3F894101968C1F3F7
:100B50000321C1F3031150F8210012B10C2A09D06E
:100B600000207047042A22D0082A144818BF002009
:100B700070470020DA6802F00302022A15D00F49FC
:100B8000032A08BF0846D968DA68C2F3062242433E
:100B9000D868C0F34160C1F3021101300131400057
:100BA000B2FBF1F2B2FBF0F070470548EBE7044806
:100BB000704700BF00100240EC64000800127A0089
:100BC0000024F4002DE9F7430546002860D0954C39
:100BD0000368A668E768DB0606F00C0607F0030763
:100BE00076D51EB10C2E55D1012F53D1236898070D
:100BF00002D5AB69002B4BD02368286A190756BF72
:100C0000D4F8943023681B0903F0F003984229D9E3
:100C1000FFF748FF00283BD1236843F00803236017
:100C200023682A6A23F0F003134323606368EA69A8
:100C300023F47F4343EA02236360FFF775FFA36851
:100C4000794AC3F30313D35C03F01F03D840774BF7
:100C50001860774B1868FFF73DFD002838D003B0C7
:100C6000BDE8F083236843F008032360236823F082
:100C7000F003034323606368EA6923F47F4343EA94
:100C800002236360002ED8D1FFF70CFF0028D4D0D8
:100C90000120E4E7AB69002B3AD0236843F001035D
:100CA0002360FFF759FD804623689A0728D52368FB
:100CB00043F00803236023682A6A23F0F0031343F8
:100CC00023606368EA6923F47F4343EA0223636095
:100CD0002B68D8072DD42B6899076BD42B6818077D
:100CE00000F1A8802B68590700F1CE802B68980688
:100CF00000F13781AB6A002B40F05D810020AEE748
:100D0000FFF72AFDA0EB08000228CDD90320A6E7B3
:100D1000236823F001032360FFF71EFD804623684C
:100D20009B07D5D5FFF718FDA0EB08000228F6D9E0
:100D3000ECE7082E03D00C2E08D1032F06D1236830
:100D40009A03C8D56B68002BC5D1A1E76B68B3F5D2
:100D5000803F10D1236843F480332360FFF7FCFC0D
:100D6000804623689B03B6D4FFF7F6FCA0EB08008F
:100D70006428F6D9CAE7B3F5A02F04D1236843F459
:100D800080232360E6E7226822F480322260226812
:100D900022F480222260002BE0D1FFF7DDFC8046A8
:100DA0002368980397D5FFF7D7FCA0EB08006428C9
:100DB000F6D9ABE7042E03D00C2E10D1022F0ED1A2
:100DC0002368590503D5EB68002B3FF461AF6368D6
:100DD0002A6923F0F85343EA026363607EE7EB6815
:100DE0007BB1236843F480732360FFF7B5FC0746AB
:100DF00023685A05EBD4FFF7AFFCC01B0228F7D9D4
:100E000084E7236823F480732360FFF7A5FC07467B
:100E100023685B057FF562AFFFF79EFCC01B0228CD
:100E2000F6D973E700100240246500084400002052
:100E3000040000206B699BB1D4F8943043F00103A7
:100E4000C4F89430FFF788FC0746D4F894309A072A
:100E50003FF548AFFFF780FCC01B0228F5D955E7E6
:100E6000D4F8943023F00103C4F89430FFF774FCF5
:100E70000746D4F894309B077FF534AFFFF76CFC3E
:100E8000C01B0228F5D941E7A36DDF0029D4A36D6B
:100E900043F08053A365A36D03F080530193019B3E
:100EA0004FF00108954F3B68D8051DD5AB68012B65
:100EB0002BD1D4F8903043F00103C4F89030FFF701
:100EC0004BFC41F288390746D4F890309A0742D556
:100ED000B8F1000F3FF40AAFA36D23F08053A36570
:100EE00004E74FF00008DDE73B6843F480733B60A4
:100EF000FFF732FC81463B68D905D7D4FFF72CFCBD
:100F0000A0EB09000228F6D900E7052B06D1D4F89A
:100F1000903043F00403C4F89030CAE7D4F890202E
:100F200022F00102C4F89020D4F8902022F00402AC
:100F3000C4F89020002BC2D1FFF70EFC41F2883993
:100F40000746D4F890309B07C2D5FFF705FCC01BBD
:100F50004845F6D9DAE6FFF7FFFBC01B4845B3D991
:100F6000D4E66B6A9BB1D4F8983043F00103C4F81F
:100F70009830FFF7F1FB0746D4F8983099073FF512
:100F8000B9AEFFF7E9FBC01B0228F5D9BEE6D4F8DD
:100F9000983023F00103C4F89830FFF7DDFB0746D3
:100FA000D4F898309A077FF5A5AEFFF7D5FBC01BA4
:100FB0000228F5D9AAE6022B40F08880E368EA6AA5
:100FC00003F00301914222D1296B03F07002013931
:100FD000B2EB011F1BD1696B03F4FE42B2EB012F90
:100FE00015D1A96B03F07842B2EBC16F0FD1EA6B58
:100FF000520803F4C001013AB1EB425F07D12A6CF9
:10100000520803F0C063013AB3EB426F45D00C2E97
:101010003FF43EAE23685B013FF53AAE236823F010
:1010200080732360FFF798FB064623689F012ED448
:10103000E268334B1340EA6A13436A6B43EA0223C4
:10104000AA6B43EAC2632A6B013A43EA0213EA6BD2
:101050005208013A43EA42532A6C5208013A43EAE1
:101060004263E360236843F080732360E36843F0E6
:101070008073E360FFF770FB0546236898013FF536
:101080003DAEFFF769FB401B0228F6D93EE6FFF7AD
:1010900063FB801B0228C8D938E6236899013FF515
:1010A0002DAE236843F080732360E36843F08073C0
:1010B000E360FFF751FB054623689A013FF51EAE3A
:1010C000FFF74AFB401B0228F6D91FE60C2E3FF41F
:1010D000DFAD236823F080732360FFF73DFB0546F7
:1010E00023689B0104D4E268064B1340E36005E6E5
:1010F000FFF732FB401B0228F2D907E600700040E0
:101100008C809D01FCFFEEFE2DE9F0410D4604466A
:1011100010B90120BDE8F0814B4A136803F00703C2
:101120008B422CD32168880734D4C9073FD4216867
:101130008A0768D4444A136803F00703AB426FD8A8
:1011400011F0040F414D77D10B0706D5AB6822692A
:1011500023F4605343EAC203AB60FFF7E5FCAB68DE
:101160003B4AC3F30313BDE8F041D35C03F01F0314
:10117000D840384B1860384B1868FFF7ABBA136883
:1011800023F007030B431360136803F007038B423C
:10119000BFD1C7E72D4AA068936803F0F0039842D7
:1011A00081BF936823F0F00303439360BDE7626857
:1011B000264E032A33681AD113F0007FA9D0B368F2
:1011C00023F003031343B360FFF7C6FA41F28838F4
:1011D0000746B368626803F00C03B3EB820FA6D036
:1011E000FFF7BAFAC01B4045F3D9032092E7022A61
:1011F00002D113F4003FE1E712B913F0020FDDE76B
:1012000013F4806FDAE7114AA068936803F0F003E3
:1012100098423FBF936823F0F0030343936089E74C
:10122000136823F007032B431360136803F00703CD
:10123000AB427FF46EAF83E7AB68E26823F4E06310
:101240001343AB6080E700BF002002400010024063
:10125000246500084400002004000020054B064AD5
:101260009B68C3F30223D35C044A106803F01F0396
:10127000D8407047001002401C6500084400002060
:10128000054B064A9B68C3F3C223D35C044A10682B
:1012900003F01F03D8407047001002401C6500088F
:1012A000440000207047704703681A69910710B521
:1012B00004460FD5DA6892070CD56FF002021A6166
:1012C000012202779B69990700F0858001F0B7F849
:1012D0000023237723681A69520710D5DA6850076C
:1012E0000DD56FF004021A61022222779B6913F474
:1012F000407F204675D001F0A2F8002323772368B1
:101300001A6911070FD5DA6812070CD56FF00802B9
:101310001A6104222277DB699B07204667D001F01F
:101320008EF80023237723681A69D00610D5DA686F
:10133000D1060DD56FF010021A6108222277DB6901
:1013400013F4407F204658D001F079F8002323772A
:1013500023681A69D20708D5DA68D00705D56FF077
:1013600001021A61204601F047F823681A69110644
:1013700008D5DA68120605D56FF080021A6120469A
:1013800000F0A7F823681A69D00508D5DA681106B5
:1013900005D56FF480721A61204600F09BF823682F
:1013A0001A69520608D5DA68500605D56FF0400272
:1013B0001A612046FFF777FF23681A69910622D544
:1013C000DA6892061FD56FF0200220461A61BDE848
:1013D000104000F07DB801F030F82046FFF762FFC2
:1013E00076E701F02AF82046FFF75CFF85E701F079
:1013F00024F82046FFF756FF93E701F01EF8204639
:10140000FFF750FFA2E710BD174A0368904202D0D1
:10141000B0F1804F08D14A6823F070031343CA68C3
:1014200023F44073134306E0104A9042F7D002F5CC
:1014300080629042F3D04A6923F080031343036033
:101440008B68C3620B688362074B984207D003F531
:10145000A053984203D003F58063984201D10B69F1
:101460000363012343617047002C014000400140A9
:1014700010B5044650B390F83D3003F0FF021BB99D
:1014800080F83C2001F076FC0223206884F83D308F
:10149000211DFFF7B9FF012384F84830002084F8AC
:1014A0003E3084F83F3084F8403084F8413084F88E
:1014B000423084F8433084F8443084F8453084F86E
:1014C000463084F8473084F83D3010BD0120FCE7F9
:1014D000704770477047026852E8003F23F49073EA
:1014E00042E8003102680029F5D102F1080353E80F
:1014F000003F23F0010302F1080C4CE80031002901
:10150000F3D1036E012B07D152E8003F23F0100303
:1015100042E800310029F7D12023C3670023036686
:1015200043667047026852E8003F23F0800342E8B8
:10153000003102680029F5D152E8003F43F0400332
:1015400042E800310029F7D17047826F212A034613
:1015500011D1B0F8522092B20AB9FFF7E3BFC26CC2
:10156000016812F8010B0885DA64B3F85220013AD9
:1015700092B2A3F852207047826F212A034613D1FA
:10158000B0F8522092B20AB9FFF7CCBFDA6C00680B
:1015900032F8021BC1F308010185DA64B3F8522066
:1015A000013A92B2A3F85220704770470346806F09
:1015B00020282BD141B33AB393F87400012825D0E9
:1015C000A3F85220A3F850200022C3F88020212243
:1015D0009A679A68D964B2F5805F13D118690C4A8A
:1015E0000C49002808BF0A469A66002283F8742036
:1015F000196851E8002F42F0800241E800200028DD
:10160000F6D17047024AEFE7012070470220704789
:101610004B1500087915000808B5806A0023A0F86A
:101620005A30A0F8523001F0F1FE08BD70470000BA
:101630000368DA69196870B540F60F0632429D6892
:1016400004460CD1960640F1AB808E0640F1A8808E
:10165000436E002B00F09E80BDE87040184715F0E7
:10166000010064D012F0010F02F002057CD13DB1FF
:1016700002251D62D4F8805045F00405C4F880505E
:1016800056075ED504201862D4F8800040F00200AE
:10169000C4F8800012F0080F07D008201862D4F8B0
:1016A000800040F00800C4F8800016050AD54D01FE
:1016B00008D54FF400601862D4F8803043F020035E
:1016C000C4F88030D4F88030002B63D0900605D564
:1016D0008A0603D5636E0BB1204698472668D4F876
:1016E0008020B36802F0280203F0400353EA0205A9
:1016F000204650D0FFF7EFFEB3685B0647D522685F
:1017000002F1080353E8003F23F04003083242E8A7
:1017100000310029F3D1206F002838D0774B836344
:10172000FFF74AF9002835D0206F836B94E7744E99
:10173000314235D012F0010F02F0020507D15507F2
:101740000DD41507B1D501F020050543A4E7CE055A
:1017500010D4002DF3D15507F3D5002892D11607E8
:10176000A3D511F0200F97E7CE0503D4002D7FF409
:101770007FAFF0E701251D62D4F88050960745F051
:101780000105C4F88050E6D50028D8D070E720467F
:1017900001F03CFE70BD01F039FEC4F88050F9E75D
:1017A000206E01287ED1D6067CD5C8067AD51022B7
:1017B0001A629A68510646D5226F11684A6892B239
:1017C000002AE7D0B4F858009042E3D9A4F85A2090
:1017D0000A6892062DD453E8002F22F4807243E861
:1017E00000210029F7D103F1080252E8002F22F06E
:1017F000010203F1080040E800210029F3D103F1C0
:10180000080252E8002F22F0400203F1080040E8ED
:1018100000210029F3D12022E267216653E8002F3E
:1018200022F0100243E800210029F7D1206FFFF7D2
:10183000A2F8B4F85A30B4F85810C91A89B2204640
:10184000FFF7F4FEA6E7B4F85A20B4F85A00B4F84B
:10185000581080B292B200289CD0891A89B200290F
:1018600098D053E8002F22F4907243E8002000281B
:10187000F7D103F1080252E8002F22F0010203F130
:10188000080545E800200028F3D12022E2676066C1
:10189000206653E8002F22F0100243E800200028C1
:1018A000F7D1CCE7D60209D5680207D54FF48012EC
:1018B00020461A62BDE8704001F000BE160607D54A
:1018C0000D0605D5A36E002B3FF464AF2046C3E69A
:1018D00050067FF55FAF4A067FF55CAF53E8002FF7
:1018E00022F0400243E800210029F7D12023A3671A
:1018F000A166204601F086FD4CE700BF19160008DE
:1019000020010004C16F0268222908B5B0F85C30DC
:1019100042D1918C426D0B401370436D013343658E
:10192000B0F85A30013B9BB2A0F85A30B0F85A30A8
:101930009BB26BBB026852E8003F23F4907342E80D
:10194000003103680029F5D103F1080252E8002FA5
:1019500022F0010203F1080C4CE800210029F3D128
:101960002022C267026E4166012A12D1016653E845
:10197000002F22F0100243E800210029F7D1DA6994
:10198000B0F85810D20644BF10221A62FFF74EFE7C
:1019900008BD01F033FDFBE7138B9BB243F0080356
:1019A0001383F5E7C26FB0F85C10222A08B503680C
:1019B0003FD19A8C1140426D22F8021B4265B0F86B
:1019C0005A20013A92B2A0F85A20B0F85A2092B2A6
:1019D0005ABB53E8002F22F4907243E800210029FB
:1019E000F7D103F1080252E8002F22F0010203F1BF
:1019F000080C4CE800210029F3D12022C267026EB6
:101A00004166012A12D1016653E8002F22F010022C
:101A100043E800210029F7D1DA69B0F85810D2065E
:101A200044BF10221A62FFF701FE08BD01F0E6FC78
:101A3000FBE71A8B92B242F008021A83F5E710B561
:101A400090F87430012B1CD0012380F874302423CB
:101A50008367026852E8003F23F00C0342E8003439
:101A60000168002CF5D151E8002F42F0080241E84E
:101A70000023002BF7D12022826780F874301846AB
:101A800010BD0220FCE710B590F87430012B1CD07B
:101A9000012380F8743024238367026852E8003FF2
:101AA00023F00C0342E800340168002CF5D151E822
:101AB000002F42F0040241E80023002BF7D120223E
:101AC000826780F87430184610BD0220FCE7826FF0
:101AD000C06F10437047000038B5044603682169A1
:101AE000A2681D68C0690A4361690A4367490243E5
:101AF00029400A431A605A68E16822F440520A43B6
:101B000063495A608B42A26999681AD121F4306105
:101B10000A439A605F4BD3F8883003F44063B3F50F
:101B2000006F78D007D8002B6DD0B3F5806F00F030
:101B3000AA8001206BE0B3F5406FFAD14FF400406A
:101B40006AE0256A21F430612A430A439A60524AC6
:101B5000934210D14F4BD3F8883003F00303022B8C
:101B600038D0032B18D0012B2ED1B0F5004F77D1F0
:101B7000FEF7DAFF26E0494A934274D1454BD3F889
:101B8000883003F00C03082B24D003D8ABB1042B0E
:101B9000EBD0CEE70C2BCCD1B0F5004F1ED04FF4DC
:101BA0000040636800EB5300B0FBF3F04FF6EF73B7
:101BB000A0F1100246E0302BEDE7B0F5004F47D121
:101BC000FFF74CFB10B309E0B0F5004F45D1FFF72C
:101BD00057FBF7E7B0F5004F3148E2D16268530890
:101BE00003EB4003B3FBF2F34FF6EF72A3F11001E6
:101BF00091429ED823F00F02216892B2C3F34203B0
:101C00001343CB6002E0FFF729FB28B90020002333
:101C1000C4E9193338BD2248626802EB42038342AB
:101C200087D8B0EB023F84D8510800238C464FF48C
:101C300080751946E0FB05C16046FEF7B5FC194BFF
:101C4000A0F540729A423FF674AF2368D860DDE792
:101C5000FFF704FB0028D9D0A3E7FFF711FBF9E752
:101C6000FEF762FFF6E7104A93427FF462AF094B3A
:101C7000D3F8883003F03003202BABD09BD8002B57
:101C80009BD0102B84E7FEF74FFFBEE7F369FFEF11
:101C90000080004000100240003801400044004035
:101CA0000024F400FFFC0F0000480040436ADA07FC
:101CB00010B506D50168846A4A6822F400322243CE
:101CC0004A609C0706D50168C46A4A6822F48032DB
:101CD00022434A60590706D50168046B4A6822F41A
:101CE000802222434A601A0706D50168446B4A687D
:101CF00022F4004222434A60DC0606D50168846B68
:101D00008A6822F4805222438A60990606D50168C7
:101D1000C46B8A6822F4005222438A605A060FD5A7
:101D20000168046C4A6822F480122243B4F5801FD3
:101D30004A6005D14A68446C22F4C00222434A60DA
:101D40001B0606D50268816C536823F400230B43FD
:101D5000536010BD2DE9F843DDF8209005460F468D
:101D6000164698462A68D36937EA03030CBF012355
:101D70000023B34201D0002027E0B9F1FF3FF2D0A9
:101D8000FEF7EAFCA0EB080048452C6802D8B9F140
:101D9000000F1CD154E8003F23F4D07344E8003214
:101DA000002AF7D104F1080353E8003F23F00103B0
:101DB00004F1080141E80032002AF3D12023AB6787
:101DC000EB67002385F874300320BDE8F8832368AF
:101DD0005A07C7D5E3691B05C4D54FF400632362D6
:101DE00054E8003F23F4D07344E80032002AF7D1CE
:101DF00004F1080353E8003F23F0010304F1080154
:101E000041E80032002AF3D12023AB67EB67C5F825
:101E10008030D6E72DE9F7439846836F202B0446A0
:101E20000E4617464DD1002949D0002A47D090F8D8
:101E30007430012B45D0012380F874300025212314
:101E4000C0F880508367FEF787FCA368A4F8507041
:101E5000B3F5805F8146A4F8527003D123690BB9B2
:101E600035461E46002384F87430B4F85220CDF86D
:101E7000008092B24B463AB940212046FFF76AFFF4
:101E800040B92023A36706E0002280212046FFF707
:101E900061FF18B1032003B0BDE8F08322685EB98A
:101EA00035F8023BC3F308031385B4F85220013A16
:101EB00092B2A4F85220D8E716F8013BF4E70120CB
:101EC000E9E70220E7E773B504460026C0F8806022
:101ED000FEF742FC23681B681A07054616D42368E0
:101EE0001B685B070AD56FF07E43009300222B46E8
:101EF0004FF480012046FFF72DFF98B920230020E2
:101F0000A36784F87400E36720660CE06FF07E43FB
:101F10000093324603464FF400112046FFF71AFFA4
:101F20000028DCD0032002B070BD10B5044640B3D9
:101F3000836F1BB980F87430FFF737FB22682423C6
:101F4000A367136823F0010313602046FFF7C4FD65
:101F5000012816D0636A13B12046FFF7A7FE236855
:101F60005A6822F490425A609A6822F02A029A60D3
:101F70001A6842F0010220461A60BDE81040FFF7DF
:101F8000A2BF012010BD10B5044660B3836F1BB91A
:101F900080F87430FFF709FB22682423A3671368D5
:101FA00023F0010313602046FFF796FD01281AD0A5
:101FB000636A13B12046FFF779FE23685A6822F45A
:101FC00090425A609A6822F022029A609A6842F01F
:101FD00008029A601A6842F0010220461A60BDE8C1
:101FE0001040FFF770BF012010BD000010B5A0F831
:101FF0005820A0F85A20826841650023B2F5805F1E
:1020000043662DD10369002B40F2FF1318BFFF2355
:10201000A0F85C300023C0F880302223C367026838
:1020200002F1080353E8003F43F00103083242E89D
:10203000003102680029F2D184680369B4F5805F39
:102040002BD1EBB1184B436680F8741052E8003F77
:1020500043F4907342E800310029F7D1002010BD0D
:102060002AB90369002B14BF7F23FF23D0E7B2F105
:10207000805FCDD10369002B14BF3F237F23C7E7C7
:102080000A49416680F8743052E8003F43F020036B
:1020900042E800310029F7D1E0E7034C446680F8BC
:1020A0007410002BF0D0D1E705190008A51900081D
:1020B000C36F202B30B41FD1D9B1D2B190F8743096
:1020C000012B19D0012380F87430002304680366C3
:1020D0000A4B9C420AD063681B0207D554E8003FB4
:1020E00043F0806344E80035002DF7D130BCFFF7A2
:1020F0007DBF012030BC70470220FBE7008000401C
:1021000090F87430012B12D0012380F874300168EC
:1021100001F1080353E8002F42F40002194641E898
:102120000023002BF3D180F874301846704702204A
:10213000704790F87430012B12D0012380F874306E
:10214000016801F1080353E8002F22F40002194648
:1021500041E80023002BF3D180F874301846704713
:102160000220704790F87430012B0FD0012380F8C3
:102170007430016851E8002F42F0020241E8002368
:10218000002BF6D180F87430184670470220704753
:1021900090F87430012B0FD0012380F8743001685F
:1021A00051E8002F22F0020241E80023002BF6D173
:1021B00080F874301846704702207047836810B565
:1021C00004462BB10322014698470023C4E9023399
:1021D00010BD836810B5044613B103220146984729
:1021E000204610BD124A9042034616D0B0F1804FEF
:1021F00015D0A2F58E32904213D002F58062904243
:1022000011D002F5963290420FD002F580624FF65F
:10221000FF70934208BF05207047002070470120DF
:10222000704702207047032070470420704700BFAA
:10223000002C0140014670B5044651F8100FFFF71D
:10224000D1FF0546084600F0FBFC094A002342F88E
:10225000253004F16406E36004F1B405B54204D00E
:10226000103D2846FFF7B5FFF8E7204670BD00BFD8
:1022700074010020F8B504460846FFF7B3FF4FF697
:10228000FF77B84200D1FEE7256905B1FEE71F4B95
:1022900084F82C5004F10C0243F8202004F11006BD
:1022A0000E23C4E9173521613046C4E90C55C4E951
:1022B0000E55C4E91055A56484F84C5084F84D506F
:1022C000E46000F059FC04F16400FFF777FF04F1CB
:1022D0007400FFF773FF04F18400FFF76FFF04F150
:1022E0009400FFF76BFF04F1A400FFF767FF802362
:1022F000C4E90055C4E90657C4E90855A5606561FD
:10230000A3623046BDE8F840FFF7B2B87401002080
:1023100010B5074C206810B10430FEF7C5FF6069A6
:1023200020B1BDE810400430FEF7BEBF10BD00BFB5
:1023300074010020034B186810B10430FEF7B4BFDD
:10234000704700BF74010020034B586810B104307F
:10235000FEF7AABF704700BF74010020034B9868C6
:1023600010B10430FEF7A0BF704700BF7401002019
:10237000034BD86810B10430FEF796BF704700BF1A
:1023800074010020034B186910B10430FEF78CBFB4
:10239000704700BF740100200022C0E90022C0E99C
:1023A00002227047F8B504460E4600F1640500F1BC
:1023B000B40728461035FFF7EFFFBD42F9D10023DF
:1023C000204623613146FFF755FF2046F8BD82685D
:1023D00010B50AB903F0ECF8BDE81040C36818471F
:1023E00008B500B9FEE700F0C5FB0068C36E13B185
:1023F0006430FFF7ECFF08BDFFF7F2BF10B500B97E
:10240000FEE7037F013B072B10D8DFE803F004143D
:102410000F100F0F0F12012400F0ACFB2401006815
:102420006434204483680BB1FFF7D1FF10BD03244F
:10243000F2E70424F0E70224EEE7FFF7DFBFFFF73F
:10244000DDBF03F0BFB803F0C5B8000086B00528B3
:102450004ED8DFE800F003111D293541254BDA6C19
:1024600042F00102DA64DB6C03F001030093009B8D
:102470004FF0904006B070471E4B1F48DA6C42F098
:102480000202DA64DB6C03F002030193019BF1E7C3
:10249000184B1A48DA6C42F00402DA64DB6C03F081
:1024A00004030293029BE5E7124B1548DA6C42F0F5
:1024B0000802DA64DB6C03F008030393039BD9E79B
:1024C0000C4B1048DA6C42F01002DA64DB6C03F05B
:1024D00010030493049BCDE7064B0B48DA6C42F0E3
:1024E0008002DA64DB6C03F080030593059BC1E78F
:1024F0000020BFE700100240000400480008004828
:10250000000C004800100048001C004808B50749AE
:1025100000F0F8FAC0F3C430012802D0022802D03B
:10252000FEE7002008BD1020FCE700BF8C63000818
:102530000268094B9A420DD103F5CE339A6B42F0F3
:1025400000529A639A6B22F000529A639A6D22F0BD
:1025500000529A65704700BF0074004010B50B49E7
:1025600086B0044600F0ACFA019060B12046FFF757
:10257000CDFF30F01003014605D101A8FEF7EDF9BB
:1025800001A8FEF7DCF906B010BD00BF8C6300089F
:10259000F8B51449144E074600F092FAFFF722FEF0
:1025A00056F82030044673B9B420FFF74AFF0D49AE
:1025B0000546384600F084FA01462846FFF7F2FE49
:1025C00056F824301D6056F824301C6844B120466B
:1025D000FFF730FE2046B421BDE8F840FFF733BFD7
:1025E000F8BD00BF306200087401002037B5FEF767
:1025F000B3F84FF0E0250446AB690093FEF7ACF862
:10260000AB6901936969844201F101014FF47A7366
:1026100008D0019A8A1A5A43B2FBF1F203FB002058
:1026200003B030BD009A8A1A5A43B2FBF1F203FBA1
:102630000420F5E7FEF790B8704708B5FEF780F87C
:10264000FEF717F9FFF7F8FF08BD000010B592B0CC
:1026500004464422002101A803F019F9FEF7DCF931
:10266000032C12D8DFE804F0021A2A40264BD3F8D4
:10267000942042F00102C3F89420D3F894309C07D0
:1026800003D40823019301230693019B002B39D027
:1026900001A8FEF797FA002834D0FEE71A4B1A6813
:1026A00042F480721A601B685905EED4022301932C
:1026B0004FF480721023CDE90423E6E7124BD3F8E0
:1026C000902042F00102C3F89020D3F890209407A4
:1026D000DBD4D3F8902022F01802C3F89020042312
:1026E000019301230393D0E7074B1A6842F4803229
:1026F0001A601B6899035EBF01224FF48033CDE955
:102700000123C2E712B010BD001002407047000064
:102710000F4B9A6D42F080529A659A6D84B002F028
:1027200080520192019A1A6E42F001021A661A6EE4
:1027300002F001020292029A9A6C42F480529A6468
:102740009B6C03F480530393039B04B0704700BF5A
:10275000001002400C4BD3F8FC20D2015EBFD3F82E
:10276000FC2042F08072C3F8FC20084B00225A6023
:102770001A6842F001021A6000BF00BF00BF58682B
:10278000B0FA80F04009704700ED00E0001000E072
:1027900008B5FFF7BDFFFFF7DDFFFDF7C1FFFFF74E
:1027A000B5FF02F001F9BDE808400148FEF766B840
:1027B000200000200023C0E90033C0E90233704745
:1027C0000023012803F101020AD11422DBB2534392
:1027D000054A181D1044816829B11A441369184725
:1027E00040081346EDE770478C0100200120FEF7FA
:1027F00007B90220FEF704B90420FEF701B908204A
:10280000FEF7FEB81020FEF7FBB838B505242025EA
:10281000A8B2FEF7F5F8013C4FEA4505F8D138BDFE
:1028200038B506244FF48065A8B2FEF7E9F8013CFC
:102830004FEA4505F8D138BD344A104608B506239D
:1028400000F8043BFFF7B6FF072302F118001375E9
:10285000FFF7B0FF082302F12C0082F82830FFF7C1
:10286000A9FF092302F1400082F83C30FFF7A2FFE4
:102870000A2302F1540082F850301721FFF79AFF23
:1028800002F1680082F86410FFF794FF02F17C0007
:1028900082F87810FFF78EFF02F1900082F88C101A
:1028A000FFF788FF02F1A40082F8A010FFF782FF73
:1028B00002F1B80082F8B4102821FFF77BFF02F183
:1028C000CC0082F8C810FFF775FF02F1E00082F833
:1028D000DC10FFF76FFF02F1F40082F8F010FFF751
:1028E00069FF02F5847082F80411FFF763FF02F5B7
:1028F0008E7082F81811FFF75DFFBDE8084002F501
:10290000987082F82C11FFF755BF00BF8C01002092
:1029100038B5054CA4F5A075143C201DFFF759FCF3
:10292000AC42F9D138BD00BFCC02002030B591FADD
:10293000A1F391FAA1F1B3FA83F3C4685B00032514
:10294000B1FA81F105FA03F3490024EA03038A404E
:102950001A43C26030BD431C04D00C3151F80C3C0A
:102960005A1C01D100207047834201F10C01F5D1BE
:1029700001207047F8B5471C06460D4600D1FEE71A
:1029800000F00F02414BC0F3031053F82240FFF751
:102990005DFD94FAA4F3B3FA83F3876803225B0026
:1029A00002FA03F394FAA4F2B2FA82F227EA0307D6
:1029B0005200032393403B4305F007018360032942
:1029C00003D8DFE801F05F032C61FEE7012394FAEE
:1029D000A4F2B2FA82F206685200032707FA02F262
:1029E00026EA020694FAA4F2B2FA82F25200934066
:1029F000013933430129036005D843682A074CBFD6
:102A00002343A3434360C5F30112012A02D0022AE3
:102A100018BF00222146BDE8F840FFF787BFC5F385
:102A200006227F2A01D10223D1E7360716D5230AD1
:102A300093FAA3F6B6FA86F6476A93FAA3F3B600BA
:102A40004FF00F0CB3FA83F30CFA06F69B0027EA5B
:102A5000060602FA03F333434362E4E794FAA4F36D
:102A6000B3FA83F3066A9B000F2707FA03F326EAFB
:102A7000030694FAA4F3B3FA83F39B009A4032431B
:102A80000262D0E70023A2E70323A0E7AC640008BA
:102A9000431C06D17047834202D18968FFF76ABFA1
:102AA0000C310B685A1CF6D1FEE70B685A1C01D199
:102AB00000207047834201D1486870470C31F4E729
:102AC000431C01D0FFF7F1BF002070474B6813B9DA
:102AD0004FF0FF307047834201D1086870470C31D6
:102AE000F4E708B1FFF7F2BF4FF0FF30704703463D
:102AF0000868421C00D17047984201D1886870472D
:102B00000C31F5E7431C01D0FFF7F1BF70470346D6
:102B10008B42084604D01BB100290CBF1846002088
:102B200070470000114B4FF000629A60D3F8882084
:102B300042F47002C3F888200D4B1A68002142F05D
:102B400001021A6099601A6822F0A85222F4102239
:102B50001A604FF48052DA601A6822F480221A60F8
:102B600040F27F7299611A62704700BF00ED00E089
:102B7000001002400438704703682B4A934286B025
:102B80000BD12A4B1A6E42F400621A661B6E03F4D4
:102B900000630093009B06B07047B3F1804F0BD1E8
:102BA00003F504339A6D42F001029A659B6D03F0C0
:102BB00001030193019BEEE71D4A93420AD11B4B8F
:102BC0009A6D42F010029A659B6D03F01003029318
:102BD000029BE0E7174A93420AD1144B9A6D42F0E8
:102BE00020029A659B6D03F020030393039BD2E7B9
:102BF000114A93420AD10D4B1A6E42F480321A6682
:102C00001B6E03F480330493049BC4E70B4A934286
:102C1000C1D1064B1A6E42F400321A661B6E03F4E1
:102C200000330593059BB6E7002C014000100240DD
:102C300000100040001400400040014000440140EA
:102C400003681B4A934206D102F56442136E23F4D3
:102C5000006313667047B3F1804F05D1154A936D39
:102C600023F0010393657047134A934205D102F59F
:102C70000032936D23F01003F4E7104A934205D11C
:102C800002F5FE32936D23F02003EBE70C4A9342EA
:102C900005D102F55042136E23F48033D9E7094A77
:102CA0009342D7D102F54C42136E23F40033D0E7A0
:102CB000002C0140001002400010004000140040B1
:102CC0000040014000440140431C18D0114B984281
:102CD00018D007D8B0F1804F16D0A3F58063984282
:102CE00014D0FEE70C4B984212D003F58063984253
:102CF00003D0A3F5C0539842F3D1192070476FF069
:102D00000D007047372070471C20704736207047F1
:102D1000182070470014004000400140431C18D0A8
:102D2000124B984218D00BD8A3F58E33984215D089
:102D300003F58063984213D0B0F1804F12D0FEE7C4
:102D40000B4B984210D003F580639842F7D11920BD
:102D500070476FF00D0070471B207047362070479A
:102D6000372070471C20704718207047002C014006
:102D70000040014038B5FFF7FFFE04460068FFF74A
:102D8000A3FFD4E91312FDF7FFFC2068FFF79CFFB7
:102D9000FDF72CFD22681046FFF7C0FF05461046E0
:102DA000FFF792FF85420BD02846D4E91312FDF7B6
:102DB000EBFC2068FFF7B2FFBDE83840FDF716BD19
:102DC00038BD00002DE9F04F87B004460F46D0F81B
:102DD000900098499846109B01939146FFF770FE2A
:102DE00095498246D4F89400FFF76AFE9349064657
:102DF000D4F89800FFF764FE91490546D4F89C008A
:102E0000FFF75EFE8346BAF1000F00F09980D4F818
:102E10009420013202D0002E00F09280D4F8982045
:102E2000013202D0002D00F08B80D4F89C200132BA
:102E300003D0BBF1000F00F0838031465046FFF70E
:102E400066FE29462060FFF762FE59462060FFF7C4
:102E50005EFE2060002873D07A4B984273D103F550
:102E600058431A6C42F480421A641A6C22F480426D
:102E70001A641A6E42F480421A661B6E03F4804391
:102E80000293029B2523A4F8A0306A49D4F890004D
:102E9000FFF7FEFD26B16849D4F89400FFF7F8FD6E
:102EA000002D00F09C806549D4F89800FFF7F0FDF4
:102EB0004FF4807ABBF1000F06D06149D4F89C0032
:102EC0004AF4007AFFF7E4FD94F8A1105E4A019BF2
:102ED00094F9A000C4F80C90251D42F821502268F6
:102EE000C4E901270C22C4E9062A0022C4E90438F7
:102EF000C4E9092222620121FDF746FCD4F80080D2
:102F0000524B984540F04781B7F5165F284670D878
:102F1000FFF7F6F82846FFF725F92846002E40F07F
:102F20009D80FFF730F858B10220FFF78FFB236830
:102F3000434556D02846FFF726F8002840F0F08099
:102F400007B0BDE8F08F424B984215D103F5E63348
:102F50009A6B42F400329A639A6B22F400329A63BD
:102F60009A6D42F400329A659B6D03F4003303932B
:102F7000039B4FF4937386E7364B984215D103F5C4
:102F8000E4339A6B42F480229A639A6B22F4802293
:102F90009A639A6D42F480229A659B6D03F48023B4
:102FA0000493049B40F227236DE7284B98427FF45B
:102FB0006CAF03F5C833DA6B42F00102DA63DA6B07
:102FC00022F00102DA63DA6D42F00102DA65DB6DAC
:102FD00003F001030593059B40F2463353E7AA46ED
:102FE00068E71D4AD2F8883043F44063C2F888305D
:102FF000A0E7FFF79EF82846FFF7CAF828465EB913
:10300000FEF7C1FF00289BD0134B1A6823685105B7
:1030100040F1BC8043458BE0FEF787FF00288FD04E
:103020000D4B1A682368520540F1B28043453FD1E9
:1030300035E000BFB861000840610008D4600008B6
:103040007460000800380140CC020020008000407D
:10305000004400400048004000100240FEF765FFB9
:1030600000283FF46DAF0220FFF7F0FA23684345D4
:1030700006D14A4AD2F8883043F44063C2F8883017
:103080002846FEF752FF00283FF45AAF434B226810
:103090001B6813F4806F424B36D09A420AD13F4AE4
:1030A000D2F8883023F4406343F40063C2F88830D8
:1030B000002E3ED02846FEF738FF00283FF440AFF0
:1030C0002268374B9A4206D1344AD2F8883023F42A
:1030D0004063C2F888302846FEF727FF00283FF4F7
:1030E0002FAF22682E4B9A4208D12C4AD2F8883052
:1030F00023F4406343F48063C2F88830284607B065
:10310000BDE8F04FFEF711BF9A42E4D1234AD2F84E
:10311000883023F44063C2F88830002EDBD11CE0F5
:103120001E4B22681B6813F4806F1D4B13D09A420C
:10313000B5D02846FEF727FF00283FF401AF2268EC
:10314000174B9A4209D1154AD2F8883023F44063CC
:10315000C2F8883001E09A42D8D02846FEF713FF23
:1031600000283FF4EDAE22680D4B9A4208D10B4A7D
:10317000D2F8883023F4406343F48063C2F8883087
:10318000284607B0BDE8F04FFEF7FDBE4345E3E734
:103190004345C2D1BAE7002EB0D1F1E7001002409A
:1031A0000080004010B4019C20B101945DF8044BF4
:1031B000FFF708BE5DF8044B704700000A4B13B5DB
:1031C000D3F8A84009492046FFF77AFC48B10848DF
:1031D0000023C0F890401A4600934FF41651FFF7B1
:1031E000F1FD02B010BD00BFE4630008B861000843
:1031F0004800002008B5074B90F8A12053F82200A2
:10320000FEF765FC00F02200A0F12203584258416D
:1032100008BD00BFCC02002008B5074B90F8A120E4
:1032200053F82200FEF753FC00F02100A0F1210327
:103230005842584108BD00BFCC0200202DE9F0479C
:103240002B4C06460D46FDF787FA94F8A130032B68
:10325000074613D894F8A120264B53F82240A4F136
:1032600004084046FFF7D8FFD0BB4FF47A73AAB2E8
:1032700031462046FEF7CEFD40B908E01E4B1F49FF
:10328000D3F8A8804046FFF71BFC18BB0025284652
:10329000BDE8F0875AF8233043B994F8A1300133E0
:1032A000DBB2032B84F8A130F4D90CE04946404648
:1032B000FFF706FC94F8A1205AF822301B688342DD
:1032C000EBD1032AC6D9FFF779FF94F8A130032B7D
:1032D000C0D9DBE7DFF81CA0DFF820900023E0E78F
:1032E000FDF73AFAC01BB0F57A7FBAD3CEE700BF3C
:1032F00048000020CC020020E4630008B861000808
:1033000070B50E46054610B94FF0FF3070BDFFF79F
:1033100071FF04460028F7D12946012211F8A23F87
:10332000337095F8A100034B53F82000FEF7C0FE60
:103330002046EBE7CC02002038B50D460446C0B16C
:10334000FFF758FFA8B994F9A000C4F88850FDF71A
:103350005BFA94F8A100074B04F1A20153F8200096
:103360000122FEF7A5FE94F9A000BDE83840FDF764
:103370003DBA38BDCC02002038B515460446C8B168
:10338000C0F88C1090F9A000FDF73EFAD4F8A830F0
:10339000B4F8B21094F8A10013FA81F1064BAAB266
:1033A00053F82000FEF702F994F9A000BDE8384078
:1033B000FDF71CBA38BD00BFCC02002050B1D0F8D8
:1033C0009430013306D190F8A120034B53F822002A
:1033D000FEF735BB704700BFCC02002050B1D0F8DB
:1033E0009430013306D190F8A120034B53F822000A
:1033F000FEF749BB704700BFCC020020D0F88430F4
:1034000004381847D0F888300438184710B50446F7
:1034100050F80439DA69D1070CD501221A62FFF796
:10342000E9FEB0B904F19E0120460122BDE810403A
:10343000FEF73EBEDA69920701D50222EEE7DA69AD
:10344000510701D50422E9E7DA691207E7D5082216
:10345000E4E710BD08B52520FDF7FCF9024B18681C
:10346000BDE80840FEF7E4B8CC02002008B52620ED
:10347000FDF7F0F9034B586818B1BDE80840FEF7B6
:10348000D7B808BDCC02002008B52720FDF7E2F927
:10349000034B986818B1BDE80840FEF7C9B808BDED
:1034A000CC02002008B54620FDF7D4F9024BD868BD
:1034B000BDE80840FEF7BCB8CC020020012200F1B4
:1034C0009E01FEF7F5BD00000A490346086810B5E5
:1034D0000344EFF30882934205D9074B0C221A608C
:1034E0004FF0FF3010BD054A054C121B9342F4D239
:1034F0000B60F7E7000100204007002000000120DA
:1035000000040000FEE70000024B16221A604FF094
:10351000FF307047400700200120704710B5044677
:10352000084662702170002101F0EAFD207801F068
:1035300089FE003818BF012000232072637201F059
:10354000B5FE6060204610BD38B50446007801F035
:1035500079FE227A031E18BF01239A4205460DD038
:10356000237201F0A3FE6368C01A6378984202D305
:103570000DB10123637201F099FE606038BD03460E
:103580000022407A5A7270470122417002707047DF
:10359000037810B5044673B9436863B101F086FE41
:1035A0006368C01A41F28833984204D9601C01F064
:1035B0006DF80123237010BD0278F8B50D46002A7E
:1035C00051D1441C0221204600F0F7FF274E294626
:1035D000274D204601F044F8264A33686968B3FB5A
:1035E000F2F30A2253436A68521A9342FBDC002228
:1035F0000321204600F0E1FF1D4F1E4A3368696831
:10360000B3FBF2F3142253437A68521A9342FBDC61
:10361000204601F02DF8012203210546204600F046
:10362000CCFF144A79683368114FB3FBF2F31422CC
:1036300053437A68521A9342FBDC0122022120464E
:1036400000F0BBFF204601F059F80A4A3368796858
:10365000B3FBF2F30648142253434268521A9342D2
:10366000FBDC2846F8BDFF25FBE700BF4400002037
:10367000001000E040420F0070B5441C1546204683
:1036800000F0EEFF194E2946194D204600F0D0FFFC
:10369000184A2B687168B3FBF2F314225343726823
:1036A000521A9342FBDC00220421204600F085FFE1
:1036B000104A71682B680D4EB3FBF2F3142253438A
:1036C0007268521A9342FBDC01220421204600F06A
:1036D00074FF084A2B687168B3FBF2F30348502269
:1036E00053434268521A9342FBDC70BD001000E065
:1036F0004400002040420F00F8B517460278044607
:103700000E469ABB451C0221284600F056FFAA220D
:1037100045F255512046FFF7AFFF552242F6AA2148
:103720002046FFF7A9FFA02245F255512046FFF79A
:10373000A3FF3A4631462046FFF79EFF01220221B1
:10374000284600F03AFF284600F0D8FF284600F04F
:10375000CBFF0749074B084A1B684868B3FBF2F3E5
:10376000502253434A68121A9342FBDCF8BD00BF53
:10377000001000E04400002040420F00027838B5FD
:103780000446002A45D1451C0221284600F015FFB9
:10379000AA2245F255512046FFF76EFF552242F608
:1037A000AA212046FFF768FF802245F255512046A6
:1037B000FFF762FFAA2245F255512046FFF75CFF52
:1037C000552242F6AA212046FFF756FF102245F265
:1037D00055512046FFF750FF01220221284600F0F4
:1037E000ECFE284600F08AFF284600F07DFF0949DC
:1037F000094B0A4A1B684868B3FBF2F35022534353
:103800004A68121A9342FBDCBDE83840642001F09C
:1038100051BD38BD001000E04400002040420F00C0
:1038200010B50446013059B100F04CFF00230748A1
:103830002370238100F019FA01F038FD606010BD9B
:1038400000F024FF01232370F9E700BF28030020C4
:1038500008B5044800F0BEF8BDE80840024800F092
:10386000B9B800BF28030020DC0200202DE9FF4189
:10387000534D0446284600F0DCF8012819D00228F0
:1038800014D1E0238DF80F30012300224D4800931E
:10389000AA210DF10F0300F09EF84B49494800F0B2
:1038A00090F949490246494801F0CCF904B0BDE815
:1038B000F0816A884FF2AA039A4213D1A123002211
:1038C0008DF80F3000900DF10F033E48AA2100F053
:1038D00082F83D493B4800F074F93B4902463B48B9
:1038E00001F0B0F9AB7883BB238913B92046FFF709
:1038F00045FF2389DFF8D8800133238101F0D6FC0E
:1039000047466060002695F84330B34240DC00260D
:10391000012795F84330B34244DC002F0CBFE1236C
:10392000A1238DF80F300123002226480093AA21FD
:103930000DF10F0300F04FF82349224800F041F940
:1039400021490246214801F07DF9AD78012DADD124
:10395000A1238DF80F3000220DF10F0319480095B7
:10396000AA2100F038F81849164800F02AF9661C18
:1039700002461549154801F065F9304600F086FE0B
:1039800025700A2001F096FC304600F009FE8DE714
:10399000298817F8012F314489B22046FFF7ACFE81
:1039A0000136B0E72988314489B22046FFF704FE8A
:1039B00018F8013F0136834218BF0027A9E700BF6E
:1039C00028030020DC02002074030020940400205F
:1039D0002A030020704710B59DF8084002808170CE
:1039E00080F8434000220230944200DC10BD995C14
:1039F00000F8011F0132F7E703466FF0460210B5E9
:103A0000D21A00F1470400201319994200DC10BDBE
:103A100014F8013F602B04D9573BDBB203EB0010D5
:103A2000F2E7402B01D9373BF7E72F2BF6D9303B94
:103A3000F3E790F8452038B504460B46052A2ED802
:103A4000DFE802F0030E2F4C688C3A2B06D14FF4BE
:103A50008073A0F84430002380F84630002038BD41
:103A600090F84620511CC9B20244022980F8461041
:103A700082F84830F2D1002580F84650FFF7BCFFAD
:103A800094F84430C0B20344402884F8430084F8DA
:103A9000443002D884F84510E0E784F8455002200D
:103AA000DDE790F84620511CC9B20244042980F891
:103AB000461082F84830D1D1002380F84630FFF715
:103AC0009BFF94F8443082B2184400EB122022800D
:103AD00084F84400032384F84530BFE790F846207B
:103AE000511CC9B20244022980F8461082F84830BD
:103AF000B4D10023A0F84630FFF77EFF94F844309D
:103B0000C0B2A070184494F8433084F844001BB34A
:103B10000423E0E790F84620511CC9B20244022970
:103B200080F8461082F8483098D1002380F846305B
:103B3000FFF762FF94F8443094F8472053FA80F37B
:103B400084F84430531C2244DBB284F84730D070F0
:103B500094F843209A4281D10523BCE790F846208F
:103B6000511CC9B20244022980F8461082F848303C
:103B70007FF474AFFFF740FF94F844305B42DBB250
:103B8000C0B20022834284F8443084F8452086D1B4
:103B9000012064E7581EC00030B5F025854002EBD7
:103BA000430304309A4200D130BD01EA0504C44009
:103BB000092C8CBF3734303402F8014B2D090438FE
:103BC000F0E7F8B50A463A23002580F8445002F899
:103BD000013B04460F46012390F84310FFF7DAFF3C
:103BE00094F8443094F843202188134484F84430F6
:103BF000FA1C02232046FFF7CDFF228894F84430B8
:103C0000A178134403EB12232646FA1D84F84430AE
:103C100020460123FFF7BEFF94F8443016F8022F28
:103C20001344DBB2093794F8431084F84430A942B6
:103C30003A4607F102070BDC5942C9B2204684F824
:103C400044100123FFF7A6FF68000B30C0B2F8BD97
:103C500016F8011F01232046FFF79CFF94F844301B
:103C600032781344DBB20135DDE7002380F84530BC
:103C7000704738B50446002508462170657001215B
:103C800001F03EFA2078294601F0A4FA204638BD1A
:103C900070B50446164600780D4619B901F09AFA37
:103CA000657070BD01211AB901F094FA6670F8E7E9
:103CB00001F090FA0123A6806580637001F0F6FAA6
:103CC000A060EEE710B54378012B04460FD101F058
:103CD000EDFAA368C01A6388984208D320780021BF
:103CE00001F078FA0223637001F0E0FAA0606378D3
:103CF000022B0FD101F0DAFAA368C01AA388984208
:103D000008D32078012101F065FA0123637001F0E6
:103D1000CDFAA06010BDF8B504460D4614F8241B7A
:103D2000490001F0FE01204617461E4600F052FBF6
:103D30002946204600F0CEFA0025B54205DB0121D8
:103D4000204600F04DFA0120F8BD795D204600F0D4
:103D5000C1FA0135F1E738B504461D46243000F0BC
:103D60000DFA2570204638BD07EE902A07EE101A8E
:103D7000F8EE677AB8EE477AF8B5C7EE276A0546D7
:103D8000FCEEE67A16EE900A17EE904AFCF764FB1A
:103D9000064620460F46FCF73DFB02460B463046E2
:103DA0003946FCF7F9F9FCF7AFFB9FED0C7A0C49AB
:103DB00007EE900A67EE877AE401FCEEE77AA4F555
:103DC000007417EE903ADB01B3FBF1F21444C2EB3E
:103DD00002529B1AC5E906316C61F8BDF0FF7F49BC
:103DE000FFFF0F00C36970B41C0A44708370C48A5B
:103DF000066A858A1B0B23F00F03837104F003040A
:103E00008369037244EA06146DBAC4701C0A024640
:103E10008580C47170BC08230132FFF77CBF322358
:103E20000387243000F03CBA102B01D8FFF773BF92
:103E300000207047102B2DE9F041074688461646B2
:103E40001D462ED80446013D14F8241B490001F0FC
:103E5000FE01204600F0BEFA4146204600F03AFA44
:103E60000121204600F0BCF9397849000131C9B27E
:103E7000204600F0AFFA0027AF420BDB0022711999
:103E8000204600F0D5FA0121204600F0A9F90120D2
:103E9000BDE8F081F1190122204600F0C9FA01378E
:103EA000EAE70020F4E707B501238DF807200DF1BC
:103EB0000702FFF730FF03B05DF804FB70B504465E
:103EC000FFF7ADFF0525661C012332460021204681
:103ED000FFF7B0FF94F90130002B2ADBFF2203210A
:103EE0002046FFF7E0FF4FF08F33C4F80130324631
:103EF0007360102108232046FFF796FF00220F2150
:103F00002046FFF7D0FF00234FF46062C4E9052389
:103F10000D4A1A21C4E907232046FFF763FF222137
:103F20002046FFF75FFF0949094801F04FF80120DB
:103F300070BD0A2001F0BEF9013DC5D10549044814
:103F400001F044F82846F3E7FFFF0F00346500084E
:103F500094040020546500082DE9FF4707299DF8C7
:103F6000349005460E46144607D93A493A4801F0BE
:103F70002DF8002004B0BDE8F0879DF83020012A1C
:103F800001D93649F2E75F1E3B0601D53449EDE71A
:103F9000344A944204D934492F4801F02AF8E8E71A
:103FA000324B9C4202D8324A3249F5E701230DF1E7
:103FB0000F020321FFF73EFF4FF001089DF80F208D
:103FC00008FA06F842EA080206F1100AD2B2032102
:103FD00028465FFA8AFA8DF80F20FFF764FF8F22D8
:103FE00051462846FFF75FFFB9F1000F06D122497D
:103FF0001948324600F0FDFF0120BBE72246284663
:104000001E49FFF7B1FEF1002A312F6201F0FE01D7
:104010002846FFF7E7FE9DF80F20032122EA080259
:1040200028468DF80F20FFF73EFF51460F22284605
:10403000FFF739FF124A1349B4FBF2F3064802FBBB
:1040400013446422B4FBF2F43246009400F0D1FF32
:10405000D2E700BF7265000894040020A465000840
:10406000D265000800E1F50504660008E0F50500EA
:10407000E1F5050046660008876600080008AF2FD6
:1040800040420F00A5660008002070477047827FFD
:10409000407F101A704710B590F8253090F8242012
:1040A0009A4281BF026A5C1C80F82540D1549BBFB4
:1040B000012343600120002010BDF8B505460C46E1
:1040C0008F180026BC4201D13046F8BD2B6814F889
:1040D000011B1B68284698470644F3E7437F827F0D
:1040E0009A4281BF8269591C4177D05C98BF4FF0DA
:1040F000FF307047827F437F9A4286BF8269D05CDF
:104100004FF0FF30704710B5047C0021204601F0CD
:1041100061F820460121BDE8104000F0F1BF10B564
:10412000447C0021204601F055F820460121BDE8DD
:10413000104000F0E5BF817C007C00F0E1BF817C95
:10414000407C00F0DDBF08B5007C01F07BF8C0B218
:1041500008BD08B5407C01F075F8C0B208BD037A0F
:1041600010B5044633B901F0A3F86368C01AC04320
:10417000C00F10BD01F09AF8F7E7000042744FF449
:1041800020624282642230B5828200244FF00062B5
:10419000C0E907240B4A82620B4AC2620B4A0263DF
:1041A0000B4A42634FF47A750A4A8263C0E90145BB
:1041B000094A0A4D056001748461848480F82640B0
:1041C000C26330BD07410008374100081F410008A5
:1041D0003F4100084741000853410008E8660008D5
:1041E000F0B585B0838A0193012304460E468DF80D
:1041F0000C3001F05BF8019B264D274F03440293DE
:10420000002384F826302046236B9847234A2B68E6
:10421000B3FBF2F3E27C796853437A68521A934213
:10422000FBDCA36A204698471C4A2B68B3FBF2F3D9
:10423000E27C7968184853434268521A9342FBDC87
:104240003EB101A9204600F02EF828B9022005B0A1
:10425000F0BD636B204698470F4E104A2B68B3FBA6
:10426000F2F3E27C716853437268521A9342FBDCAA
:10427000E36A20469847094A2B68B3FBF2F3E27CD5
:104280007168054853434268521A9342FBDC002090
:10429000DDE700BF44000020001000E040420F00B6
:1042A0000121FFF79DBF70B5436B05460E46984749
:1042B000EB6B28469847044608B1012009E03046D8
:1042C000FFF74DFF0028F3D021462846FFF788FF6F
:1042D000204670BD2DE9FF41868A019601230446E0
:1042E0000D468DF80C3000F0E1FF06440296DFF831
:1042F000E080354E0827236B204698472B064CBF9D
:10430000E36AA36A20469847304AD8F80030B3FBE6
:10431000F2F3E27C716853437268521A9342FBDCF9
:1043200001A92046FFF7BFFFA8B1284AD8F80030FE
:10433000B3FBF2F3E27C716853437268521A934202
:10434000FBDC6D0001A8EDB2FFF709FF40B10121D0
:104350002046FFF745FF0225284604B0BDE8F0815E
:10436000013F17F0FF07C6D1236B20469847E36A49
:1043700020469847154AD8F80030B3FBF2F3E27CA8
:104380007168114E53437268521A9342FBDC01A9C3
:104390002046FFF788FF0028DDD0A36B2046984712
:1043A0000A4AD8F80030B3FBF2F3E27C7168051ECC
:1043B000054818BF012553434268521A9342FBDC5B
:1043C000236B20469847C7E7001000E040420F00EB
:1043D00044000020F8B50446124F836A124E0D4681
:1043E0009847124A3B68B3FBF2F3E27C716853438F
:1043F0007268521A9342FBDC236B204698470B4AA3
:104400003B68B3FBF2F3E27C7168074853434268B0
:10441000521A9342FBDC29462046BDE8F840FFF7DC
:1044200059BF00BF44000020001000E040420F00D0
:104430002DE9F043002385B00B70858A0195012397
:1044400004460E4691468DF80C3000F02FFFDFF841
:104450002881474F05440295082533785B00337067
:10446000236B20469847E36A20469847414A3B68B9
:10447000B3FBF2F3E27CD8F804105343D8F80420DD
:10448000521A9342FADC01A92046FFF70CFF0028DC
:1044900060D0384A3B68B3FBF2F3E27CD8F80410F2
:1044A0005343D8F80420521A9342FADCE36B2046B7
:1044B0009847002845D0A36B2046984718B1337819
:1044C00043F001033370013D15F0FF05C5D1236BA7
:1044D00020469847B9F1000F41D0A36A264E2046E6
:1044E0009847244A3B68B3FBF2F3E27C716853437C
:1044F0007268521A9342FBDC01A92046FFF7D3FEF3
:1045000040B31C4A3B68B3FBF2F3E27C71681A4883
:1045100053434268521A9342FBDCE36B20469847B0
:10452000F8B11549134A3B68B3FBF2F3E27C4868E3
:1045300053434A68121A9342FBDC236B2046984788
:1045400009E001A8FFF70BFE0028AFD001212046AB
:10455000FFF746FE0225284605B0BDE8F083E36A72
:10456000BCE701A8FFF7FBFD0028D6D0EEE700BFAF
:104570004400002040420F00001000E0037853B9CF
:104580004FF090431B691A0405D4034B1B699B072A
:104590005CBF024B1B697047001C004800040048C8
:1045A00010B54FF090444FF40063A361142000F065
:1045B00081FE4FF00063A36110BD49B94FF09043F5
:1045C0001AB14FF400629A6170474FF00062FAE747
:1045D0000378002BF8D0012908D14FF0904312B98D
:1045E0004FF00042EFE74FF40042ECE7022908D118
:1045F0004FF0904312B94FF08042E4E74FF480420D
:10460000E1E7032908D14FF0904312B94FF08052EF
:10461000D9E74FF48052D6E70429D5D14FF0904323
:1046200012B94FF00052CEE74FF40052CBE7000032
:10463000037893B14FF0904201F0C70393611B04DC
:1046400083F447038902936101F46042C943034B39
:10465000090401F060419A619961704700080048BF
:1046600003780BB1014B5961704700BF000400484B
:104670004FF09043186903F5006300F0C7001B6911
:104680009B0A03F038031843704700004FF0904333
:10469000C7229A610A4A4FF460419161A2F5806293
:1046A0004FF6FF7191614FF471429A6103F5E05347
:1046B00003229A6101229A6100230370704700BFB0
:1046C00000080048037810B5044643B9FFF7DEFF41
:1046D000044B4FF4803201209A61207010BD0020FD
:1046E000FCE700BF001C00484FF09043C7229A61CE
:1046F0004FF46042C3F8182870470000024B4FF691
:10470000FF729A61704700BF00040048F0B59DF841
:104710001470002F0CBF0124032423401025012610
:10472000002032420ABF01EA040C184340EA0C00A0
:10473000760027B95B006400013DF2D1F0BD9B001B
:10474000A400F9E76D4B2DE9F047DA6CDFF8B4917E
:10475000DFF8B4816A4E42F00102DA64DA6C86B0A6
:1047600002F001020292029ADA6C42F00202DA646A
:10477000DA6C02F002020392039ADA6C42F004024D
:10478000DA64DA6C02F004020492049ADA6C42F001
:104790008002DA64DB6C4FF0904A03F0800300275C
:1047A0000593059BDAF80410009701234FF6C71212
:1047B0000446FFF7ABFFCAF80400D9F804100097CD
:1047C00001234FF6FF722046FFF7A0FFC9F804004F
:1047D000D8F80410009701234FF460422046FFF7F9
:1047E00095FFC8F804007168009701230322204652
:1047F000FFF78CFF01257060DAF8001000952B465A
:104800004FF6C7122046FFF781FFCAF80000D9F81B
:10481000001000952B464FF6FF722046FFF776FFFB
:10482000C9F80000D8F8001000952B464FF46042FC
:104830002046FFF76BFFC8F80000316800952B4653
:1048400003222046FFF762FF3060DAF80810009577
:10485000134620464FF6C712FFF758FFCAF8080064
:10486000D9F80810009503234FF6FF722046FFF792
:104870004DFFC9F80800D8F80810009503234FF43D
:1048800060422046FFF742FF0323C8F80800B168E2
:1048900000951A462046FFF739FFB060DAF80C1091
:1048A00000953B464FF6C7122046FFF72FFFCAF888
:1048B0000C00D9F80C1000953B464FF6FF722046CD
:1048C000FFF724FFC9F80C00D8F80C1000953B4600
:1048D0004FF460422046FFF719FFC8F80C00F1685A
:1048E00000953B4603222046FFF710FFF06020466C
:1048F000FFF7CCFE06B0BDE8F08700BF0010024015
:10490000001C0048000400480008004813B5214876
:10491000012100F09FFA1F48002100F077FA1D489E
:1049200006224FF4E13100F0CFFA1B4800220121AA
:10493000FFF7AEF91948FFF7C1FAD0B10124002101
:10494000CDE90014164A15482346FFF705FB234618
:104950004FF4E1122146CDE900441048FFF7FCFA7C
:10496000CDE900440D4823464FF4E1120221FFF740
:10497000F3FA0C48FFF714FE4FF4FA7000F09AFCBB
:10498000054840F69E72012102B0BDE81040FFF7D5
:104990007FB900BF94040020840400201404002088
:1049A000809698001004002000B597B044220021A2
:1049B00005A800F06CFF14220021684600F067FF94
:1049C0004FF40070FCF738F800B1FEE74FF4807246
:1049D00008921022099201210A220223CDE9060041
:1049E000CDE9111205A80722CDE90F33CDE9132334
:1049F00005931593FCF7E6F800B1FEE7CDE9020058
:104A00000F220323049004216846CDE90023FCF71C
:104A10007BFB00B1FEE717B05DF804FB10B5CB21BE
:104A20000B480C4CFFF725F9052231210A48FEF707
:104A300075FD29216023CA220848FFF78CF920461A
:104A4000FFF780FE21780648BDE81040FEF79CBDC8
:104A500084040020100400207804002014040020A6
:104A600004040020F8B52E4E2E48FFF787FD30468F
:104A7000FEF78EFD2C48FFF725F92C48FEF764FD64
:104A80002B4800F05FFA431C05D033781BB9C1B244
:104A90003046FEF7EBFE274C277817B1012F19D0CF
:104AA000F8BD2248FEF76BFD0028F9D022492048C6
:104AB00000F08CFA1A480121FEF7B2FEC8221A480B
:104AC0001146FFF7E5F80123237000F0EFFB1B4BC5
:104AD0001860E5E71548FEF752FD054680B1184914
:104AE000134800F073FA0E480021FEF799FE0E48B5
:104AF00040F69E723946FFF7CBF800232370CFE7CC
:104B00003678012ECCD10F49094800F05FFA0648EB
:104B100040F69E723146FFF7BBF82570C0E700BF34
:104B200004040020100400208404002078040020E5
:104B300094040020900400200C670008000400206A
:104B40002067000833670008B0F84431B0F840210E
:104B5000981A00F03F007047B0F84431B0F8402197
:104B60009BB293421ABFD0F83831985C4FF0FF30B7
:104B7000704790F84231B0F84601C0B2834227BF77
:104B8000C3F13F03C018C01A00F1FF30704707B5EA
:104B900003688DF807105B6801220DF10701984743
:104BA00003B05DF804FB13B50DF107010446FEF7F1
:104BB000A7FB90B9B4F8B030B4F8AC20013303F0DF
:104BC0003F03934209D0B4F8B020D4F8A4109DF864
:104BD000070092B28854A4F8B03002B010BD0000B3
:104BE000B0F8B220D0F8B41011FA82F202F03F020D
:104BF00010B5A0F8B220B0F8B210B0F8AE2089B26B
:104C00008A421BD0B0F8B240B0F8B210A4B2403221
:104C1000121B544289B204F03F0402F03F02C1F17A
:104C2000400158BF62428A4228BF0A46C0F8B420F9
:104C30000349FEF7A1FB4FF0FF3010BD0020FCE759
:104C4000E14B000803682DE9F0479B68044688465D
:104C50001646984701232374D4F82831B4F84291BA
:104C600001338246C9F1400904F1940708D194F850
:104C70004C312BB1002384F84C313846FEF79EFBB3
:104C8000236820469B6898470028F9D035464D4553
:104C900023D8554521D8B4F84221D4F83C01531902
:104CA000402B10442FD82A46414600F085FEA946E5
:104CB000B4F842311D4405F03F05A4F8425138468E
:104CC000FEF7AAFA30B91749C4F848914A4638465F
:104CD000FEF752FB3046BDE8F087D145236828BF78
:104CE000D1464A4641465B6820469847236820469D
:104CF0009B689847A5EB0905C844B4F842918246E1
:104D0000C9F14009C3E7C2F140094A46414600F0F3
:104D100053FED4F83C01A5EB090208EB090100F0B1
:104D20004BFEC5E7E14B0008037C33B1B0F84221EC
:104D3000B0F846319BB29A42FAD17047C0F82C3194
:104D4000009BC0F83031914208BF4FF0FF3100F1B5
:104D50001103C0E94921C0F8383100F151020023A4
:104D6000A0F84431C0E94F23A0F846317047000055
:104D7000F7B54FF47A7317460022C0E901231E4BA2
:104D800003604FF0FF33C0F828311C4B1C4E044623
:104D90009C42D6F8A8000D4606D1D6F8A430C4F837
:104DA0002831C4F824010CE01649FDF789FE85423C
:104DB00017D1D6F8A430C4F82831D6F8A830C4F8F2
:104DC0002431012F4FF0FF3308BFC4F8283100937E
:104DD0002046D4E949214FF0FF33FFF7AFFF03B07E
:104DE000F0BD09492846FDF77CFE0649C4F82801B4
:104DF0002846FDF776FED4E7646700089404002097
:104E0000E4630008B861000840610008CBB2312BB0
:104E100008D80E4A52F8233001F4E0611943C0F873
:104E20002811704701F0C002C02A0CD1CC2B0AD83F
:104E3000074B01F03F0201F4E06153F82220034BDD
:104E400053F82230EAE74FF0FF31E8E7E463000867
:104E5000B0630008CBB2312B08D80E4A52F8233089
:104E600001F4E0611943C0F82411704701F0C00259
:104E7000C02A0CD1CC2B0AD8074B01F03F0201F419
:104E8000E06153F82220034B53F82230EAE74FF059
:104E9000FF31E8E7E4630008B0630008D0F8283188
:104EA000013310B504460ED10368DB68984794F8C7
:104EB0004C3143B9012384F84C3104F19400BDE82E
:104EC0001040FEF78BBA10BD02F00703023BDBB2C5
:104ED000042B73B50546C0F8501180F84D219CBFD6
:104EE0001548C45C02F0300388BF0024302B1BD16E
:104EF00001344FF4C063073C022C1CD8C2F3C0023B
:104F0000520300920D4A05F1940652F824203046CF
:104F1000FEF748F92846FFF7C1FF0949304602B0BD
:104F2000BDE87040FEF708BA12F020031CBF013440
:104F30004FF48063DFE7FEE7546700084867000826
:104F4000A74B000810B50446FFF7A8FFB4F84421AA
:104F5000B4F8403192B29A421FBFD4F83821D05CE5
:104F6000013303F03F0314BFA4F840314FF0FF308A
:104F700010BD0000024903480022FFF7F9BE00BF40
:104F8000008000409404002070B505460C46084699
:104F900049B1FBF723FB2B680246214628465B6894
:104FA000BDE87040184770BD08B50249FFF7ECFF37
:104FB00008BD00BF8466000838B50546FFF7E4FF6A
:104FC00004462846FFF7F0FF204438BDFFF7F4BF42
:104FD00070B50D46144630B1461E012E05D8114657
:104FE0002846FEF72BF9204670BD03685B6898479A
:104FF000F9E70EB403B503AA52F8041B019200F0BE
:10500000F3FB02B05DF804EB03B0704710B5044643
:1050100000F04CF9E060236820465B69984700285F
:1050200008DA00F043F9E368C01AA3689842F2D3A3
:105030004FF0FF3010BDF8B507460D468E180C46F0
:10504000B44201D1601BF8BD3846FFF7DFFF031EF5
:10505000F8DB04F8013BF3E72DE9F0410746884609
:1050600016461D4673B100243846FFF7CFFF031ED6
:1050700005DB434503D033550134A542F4D1204626
:10508000BDE8F0811C46FAE708B50320FBF76AFB90
:10509000BDE8084000F02AB908B5AFF30080FFF77B
:1050A00035FCFFF7DFFC00F013F9FAE7DFF834D046
:1050B000FDF738FD0C480D490D4A002302E0D45895
:1050C000C4500433C4188C42F9D30A4A0A4C002352
:1050D00001E013600432A242FBD300F047FCFFF76B
:1050E000DBFFFEE70000012000000020540100204B
:1050F000E46700085401002048070020FEE7000094
:10510000C3B2312B2DE9F0410D462AD82C4A52F872
:10511000233000F4E0641C43621C4ED0294EC4F3DB
:10512000031704F00F0856F8273023FA08F3DB07BB
:1051300010D525492046FDF70EFC18B32046FDF793
:105140000DFA56F82730012202FA08F223EA020388
:1051500046F82730052D1FD8DFE805F01F2B25273F
:10516000292D00F0C002C02A27D1CC2B25D8174BFF
:1051700000F03F0200F4E06453F82220104B53F893
:105180002230C8E712492046FDF7E5FB0028D8D0B9
:105190002046FDF7FDF9D4E7FEE700212046BDE8F3
:1051A000F041FDF7E7BB1021F8E72021F6E70321E6
:1051B000F4E70121F2E70921F0E7BDE8F08100BF43
:1051C000E4630008E80500208C630008B063000871
:1051D00030620008C3B2312B14D8164A52F823307B
:1051E00000F4E0601843C0F30313052B1DD8124AE6
:1051F00052F82330114A00F00F0052F82020B1B1CC
:105200009A61704700F0C002C02A0CD1CC2B0AD89A
:105210000B4B00F03F0200F4E06053F82220054BF6
:1052200053F82230DEE74FF0FF300023E2E79A62C6
:10523000704700BFE463000808000020AC64000869
:10524000B0630008C2B2312A10B5144900F4E0631B
:1052500009D851F822201343C3F30312052A0ED9AB
:1052600000231B69FFDE00F0C004C02CF8D1CC2A5B
:10527000F6D80B4A00F03F0052F82020E9E7094930
:1052800003F00F0351F822200749126951F8233027
:1052900093430CBF0120002010BD00BFE463000851
:1052A000B063000808000020AC640008FDF7C2B934
:1052B000FDF79CB938B5044648B1FDF7BBF9054682
:1052C00000F016F8FDF7B6F9431BA342F8D338BD3A
:1052D00008B5044B2BB10448FFF736FC08B1AFF317
:1052E000008008BD0000000094040020FDF750BAC3
:1052F000704700002DE9F047089D0C46002B4ED169
:1053000094468C458646B2FA82F262D94AB1C2F11D
:105310002003914020FA03F30CFA02FC194300FA2F
:1053200002FE4FEA1C471FFA8CF6B1FBF7F44FEA76
:105330001E4307FB141143EA014304FB06F19942A3
:105340000AD91CEB030304F1FF3080F0128199426B
:1053500040F20F81023C6344591A1FFA8EF3B1FBED
:10536000F7F007FB101143EA014300FB06F69E42EB
:105370000AD91CEB030300F1FF3180F0FC809E4250
:1053800040F2F980634402389B1B40EA044000214C
:105390001DB1D3400022C5E90032BDE8F0878B4241
:1053A00005D90DB1C5E9000100210846F5E7B3FABA
:1053B00083F1002946D1A34202D39042C0F0F0808D
:1053C000861A64EB03030120002DE6D0C5E90063D3
:1053D000E3E7002A40F09080A1EB0C044FEA1C4860
:1053E0001FFA8CF70121B4FBF8F64FEA1E4308FBC5
:1053F000164443EA044307FB06F0984208D91CEB25
:10540000030306F1FF3402D2984200F2CD80264613
:105410001C1A1FFA8EF3B4FBF8F008FB104443EAA1
:10542000044300FB07F79F4208D91CEB030300F17C
:10543000FF3402D29F4200F2B0802046DB1B40EADC
:105440000640A5E7C1F120068B4022FA06F71F436C
:1054500020FA06FC04FA01F343EA0C03F44000FAD4
:1054600001F8380C4FEA1349B4FBF0FE1FFA87FC31
:1054700000FB1E4449EA04440EFB0CF9A14502FA64
:1054800001F20AD93C190EF1FF3A80F08480A1455F
:1054900040F28180AEF1020E3C44A4EB09041FFAF5
:1054A00083F9B4FBF0F300FB134449EA044403FB23
:1054B0000CFCA44507D93C1903F1FF3067D2A44581
:1054C00065D9023B3C4443EA0E40A0FB0293A4EBA7
:1054D0000C049C42CE469C4651D34ED055B1B8EBFD
:1054E0000E0364EB0C0404FA06F6CB401E43CC40DA
:1054F000C5E90064002150E7C2F1200320FA03F15E
:105500000CFA02FC24FA03F394400C434FEA1C48C3
:1055100000FA02FE1FFA8CF7B3FBF8F008FB10311B
:10552000230C43EA014300FB07F1994208D91CEB25
:10553000030300F1FF362CD299422AD90238634482
:105540005B1AA4B2B3FBF8F108FB113344EA03443D
:1055500001FB07F3A34208D91CEB040401F1FF3659
:1055600013D2A34211D902396444E41A41EA00413A
:1055700039E70446F0E6084606E7C845AED2B9EB7F
:10558000020E63EB070C0138A8E73146EDE703464E
:1055900099E73046D4E7D6467FE7634402384DE7C3
:1055A0000646234608460FE7023E634430E700BF45
:1055B00008B500F000F808B5062000F099F90120C0
:1055C000FDF7A0FF024B0146186800F02DB800BFA0
:1055D00004010020024B0146186800F0FBB900BF2F
:1055E0000401002070B50F4E0C463168054611B914
:1055F00000F09AF930602146284600F095F9431CE6
:1056000003D14FF0FF34204670BDC41C24F00304C6
:10561000A042F8D0211A284600F086F90130F2D1D4
:10562000EFE700BF000600202DE9F843CD1C25F070
:10563000030508350C2D38BF0C25002D064601DB6F
:10564000A94204D90C2333600020BDE8F883DFF8B9
:10565000D48000F069F8D8F800301C4644BB2946D5
:105660003046FFF7BFFF431C044658D1D8F800402E
:105670002746002F43D1002C4BD0236839463046B3
:1056800004EB030900F050F9814542D121686D1AFD
:1056900029463046FFF7A6FF01303AD023682B4455
:1056A0002360D8F800305A6862BBC8F800700FE079
:1056B0002268521B20D40B2A17D96119A3422560F6
:1056C00018BF5960636808BFC8F8001062514B608A
:1056D000304600F02FF804F10B00231D20F00700E6
:1056E000C21A1CBF1B1AA350AFE76268A3420CBFCB
:1056F000C8F800205A60EBE723466468AEE73C46F2
:105700007F68B6E71A465B68A342FBD1002353606B
:10571000DEE70C233360304600F00CF894E70560B8
:10572000D6E700BF04060020014800F043B900BFDF
:1057300044070020014800F03EB900BF44070020A4
:105740002DE9F041804615460C4621B9BDE8F041EF
:105750001146FFF769BF2AB900F03CF90024204642
:10576000BDE8F08100F080F98542064602D8B5EB2D
:10577000500FF4D829464046FFF756FF0746002849
:10578000ECD0B5422A46214628BF324600F014F933
:105790002146404600F01EF93C46E0E7F0B5ADF585
:1057A000057D0E4604AF4FF4007103910093394616
:1057B000134603AA054600F021F8044680B10246CC
:1057C000039B3146284600F0BFF8BC42039003D04B
:1057D0002146284600F0FEF803980DF5057DF0BD42
:1057E0004FF0FF30F9E7000013460A460146024831
:1057F0000068FFF7D3BF00BF0401002030B5154695
:105800009BB02C681A46D9B1002C19D04FF4C16353
:1058100000910491ADF80C30214619DB4FF6FF736F
:1058200002910591ADF80E3069461E9B00F080F99B
:1058300000280FDB009B286000221A7004980AE001
:1058400000214FF42273ADF80C3000910491E5E78C
:105850008B23036000201BB030BD884210B501EBE4
:10586000020402D98442234607D8431EA14208D02D
:1058700011F8012B03F8012FF8E7024401468A4290
:1058800000D110BD13F8014D02F8014DF7E70244B5
:105890000346934200D1704703F8011BF9E71F2923
:1058A00038B505460C4604D9162303604FF0FF3087
:1058B00038BDC26B12B152F821304BB9284600F006
:1058C00031F8224601462846BDE8384000F018B8B5
:1058D000012B0AD0591C03D1162303600120E7E7EE
:1058E000002142F82410204698470020E0E70000FD
:1058F000024B01461868FFF7D2BF00BF0401002029
:1059000038B5074D00230446084611462B60FDF7C5
:10591000FBFD431C02D12B6803B1236038BD00BFDF
:1059200040070020FDF7F8BD38B5064D00230446BA
:1059300008462B60FDF7C8FD431C02D12B6803B15C
:10594000236038BD4007002038B5074D044608469F
:10595000114600222A601A46FFF73AFB431C02D187
:105960002B6803B1236038BD4007002070B50D4D92
:105970000D4C641BA4100026A64209D10B4D0C4C03
:1059800000F06CFB641BA4100026A64205D170BD7C
:1059900055F8043B98470136EEE755F8043B984725
:1059A0000136F2E7C4670008C4670008C46700084E
:1059B000DC670008704770470A44914200F1FF33EA
:1059C00000D1704710B511F8014B03F8014F914217
:1059D000F9D110BD38B50546002941D051F8043C35
:1059E0000C1F002BB8BFE418FFF79EFE1D4A13687A
:1059F00033B9636014602846BDE83840FFF79ABEAB
:105A0000A34208D9206821188B4201BF19685B683E
:105A100009182160EDE71A465B680BB1A342FAD979
:105A200011685018A0420BD12068014450188342DD
:105A30001160E0D118685B68536008441060DAE7D1
:105A400002D90C232B60D6E7206821188B4204BFB3
:105A500019685B68636004BF091821605460CAE775
:105A600038BD00BF0406002051F8043C181F002B6D
:105A7000BCBF0B58C01870472DE9F0478E681F4611
:105A8000BE420B6882460C4690462DD8B1F90C20D8
:105A900012F4906F26D06569096905EB4505A3EB03
:105AA000010905EBD5757B1C4B446D109D4238BF39
:105AB0001D46530527D52946FFF7B6FD064660B3B8
:105AC00021694A46FFF778FFA38923F4906343F0E6
:105AD0008003A381266165614E44A5EB090526601C
